:0C2B2C00C10901550001560002530000D1
:10AB7B007E007D107C7022F54DF54CF54B22F55186
:0FAB8B00F550F54F22FC8F4E8E4D8D4C8C4B228A
:106AA900E4754EC012AB827552C012AB897F54FE99
:106AB9007D077C7112A105E4754E8312AB82755274
:106AC90083126B6B7F88126B967F0012AB7B125B14
:106AD900217F00126B967F0412AB7B125B21E4F5D8
:106AE9004E12AB82755280126B6BE4754E0712AB76
:106AF9008275520712AB897F08FE7D107C7012A146
:106B090005E4754E0112AB8275520112AB897F04FF
:106B1900FE7D10126B8AC0E0EDC0E0EEC0E0EFC070
:106B2900E0126B7CD0E0FFD0E0FED0E0FDD0E012B7
:106B3900AB907F9C7E007D00126B8AC0E0EDC0E0C7
:106B4900EEC0E0EFC0E0126B7CD0E0FFD0E0FED0F9
:106B5900E0FDD0E012AB907F907E007D007C70025A
:106B6900A105F551F550F54F7F0CFE7D107C701293
:106B7900A105227F06125B448F528E518D508C4F96
:106B8900227C7012A1057F06125B44EC227E007DF7
:076B9900007C00125B2A22C0
:108A9B00C2AF7F08128B18E529540FFFE48F29F51D
:108AAB0028F527F5267F04FEFDFCAB29AA28A9276C
:108ABB00A826C3121563600EE47F0CFEFDFCA826EE
:108ACB00C312156370447F00128B18E5552401FD0A
:108ADB00E433FCE5566D7001EC7004D209800E7422
:108AEB005B2555F8EFF6E55504541FF5557F141229
:108AFB00AB7B125B108F298E288D278C267B007AFF
:0C8B0B00007926E4FF125C0F40BCD2AFE2
:108B1700227E007D107C70125B108F298E288D2796
:038B27008C262277
:0BAFFE00E55565566003D38001C322B7
:0EAF3400745B2556F8E6FFE55604541FF556EB
:01AF420022EC
:029E17008F2F8B
:109E1900E554455360130554E554AE537002055398
:109E290014F5828E83E52FF022C2AF7F1412AB7B2B
:109E3900125B108F338E328D318C30D2AF7B007A2A
:109E49000079307F06125C0F50DFC2AFAF2FE4FC00
:0F9E5900FDFE125B2A7F0012AB7B125B21D2AFA2
:019E680022D7
:102B3800021C0000C100C102C101011B00C103C188
:102B48000444E5060000000001180A01190A011AE8
:012B58000A72
:10AEB0007E007D007C7022FC8F4E8E4D8D4C8C4B25
:01AEC000226F
:108EFD007F09128F7C7FFC12AEB0125B217F0412B2
:108F0D005B44ECC0E0EDC0E0EEC0E0EFC0E0128FDE
:108F1D006ED0E0FFD0E0FED0E0FDD0E012AEB77F26
:108F2D009812AEB012A1057F04125B44ECC0E0EDC7
:108F3D00C0E0EEC0E0EFC0E0128F6ED0E0FFD0E0F9
:108F4D00FED0E0FDD0E012AEB77F9012AEB012A110
:108F5D00057F03128F7C7F087E017D007C70025B94
:108F6D00217F04125B448F528E518D508C4F227E87
:098F7D00007D007C00125B2A2239
:10A73F00051DE51D7002051CD2041518E518701DC6
:10A74F0075180AD200D5190D75190AD202D51A0536
:0DA75F00751A0AD201300305D51B02C20392
:01A76C0022CA
:0AB01F00C2038F1BD2032003FD22A1
:10AE2C00C204CEEFCE1FEED3940040073004FDC217
:04AE3C000480EF227D
:07B0B200C2038F1BD2032231
:04B10B00A203B322C6
:10AEC1008F4E8E4D8D4C8C4B7F807E007D007C7033
:01AED100225E
:09B05B00D2BAD2AAC2B8D2A822CE
:03001300029883CD
:0D988300C0E0C0F0C083C082C0D075D0101E
:10989000C2AF7FAC12AECB125B108F258E248D230E
:1098A0008C22D2AF7B007A0079227F06125C0F50A7
:1098B0002F128A9BC2AF7F06125B44C014C015C032
:1098C00016C0177F06125B448F528E518D508C4FFD
:1098D000D017D016D015D01412AEC112A105D2AF38
:0B98E000D0D0D082D083D0F0D0E03296
:030003000298EB75
:0D98EB00C0E0C0F0C083C082C0D075D008BE
:1098F800C2AF7FA812AECB125B108F2D8E2C8D2B92
:109908008C2AD2AF7B007A00792A7F04125C0F5030
:109918002F12A73FC2AF7F04125B44C00CC00DC01A
:109928000EC00F7F04125B448F528E518D508C4FA6
:10993800D00FD00ED00DD00C12AEC112A105D2AFEF
:0B994800D0D0D082D083D0F0D0E0322D
:10A9DE00456E746572203F20746F20676574207415
:10A9EE00686520434C492068656C7020636F6D6DFF
:04A9FE00616E640022
:072B590044E50A0000000042
:0D00060090E2CB121610EE5401FEE4FD2234
:0CAFCE0012A8A5EF60057F0512B0D52287
:0CAFDA0030000812AF04129FA6C2002233
:0CAFE60030020812AE02123C58C20222D7
:10A8CF0030012412AB3A12AFCE12AA4AC20190E560
:10A8DF000A121610EF2401FFE43EFEE43DFDE43CB6
:08A8EF00FC90E50A1216962206
:1092970090E2CB1216A200000010120006744012D2
:1092A70093051292ED781E121574EF5401FFE4FE38
:1092B700EF70EF754E08F54DF54CF54B755208F507
:1092C70051F550F54F7F7C7D0D7C7112A105120081
:1092D7000674801293051292ED781F121574EF54DD
:0592E70001FFEF70F132
:1092EC00227F887E007D0D7C71125B1090E2CF1284
:1092FC00169690E2CF12161022FC125B2A7F887E03
:09930C00007D0D7C71125B212231
:108173001287B7EFB431031292977FD37EC07D018C
:108183007C00125B2A7F547E007D077C71125B2189
:10819300128EFD126AA912B05BD2AF7F1412AE2CFD
:1081A30012B04712B04712931512AA0212AE7A12F6
:1081B300AE8C12867E12B11512ADED12B0DBEF60FC
:1081C3000312A96D1274A912713112940DEF600399
:1081D30012A96D12AB5B127A6B129A847F01129013
:1081E3009112643612B0477BFF7AA979DE12B0EDA3
:1081F3007F3E129E1712B0DBEF600312B09A129902
:10820300BA12B0E7EF70EE12AFDA12AFE612A8CFF0
:0582130075870180E009
:108DE90025252053797374656D2068616E67696EF6
:108DF9006720283078004275696C64204461746585
:108E09002020202020203A2000536F667477617259
:108E1900652056657273696F6E3A2000436F646509
:108E2900205265766973696F6E2020203A200048C8
:108E390057205265766973696F6E20202020203A89
:108E49002000436869702046616D696C7920202093
:108E590020203A20003735317800205265762E00DF
:0A8E690020556E6B6E6F776E2E00C1
:082B600041E50E0041E50F0004
:0AB02900E0FEA3E0AA06F97BFF2277
:08B09A0075F2AF12AD5280FE09
:10A96D0012B0DB90E2CBEFF07FE812AE2C7BFF7ADA
:10A97D008D79E912ABD790E2CBE0FF12ABF412AABE
:06A98D000212AE7A80E226
:06B0D50090E50FEFF022F0
:06B0DB0090E50FE0FF22EA
:06B0E10090E50EEFF022E5
:06B0E70090E50EE0FF22DF
:10AE7A007BFF7A8D79FF12ABD790E50012B02902D9
:02AE8A00B0ED29
:10AA02007BFF7A8E791212ABD790E50212B029122F
:10AA1200B0ED7BFF7A8E792512ABD790E50412B0A8
:04AA22002902B0ED68
:10AE8C007BFF7A8E793812ABD71287B712B11202C8
:02AE9C00B047BD
:10931500C2AF7F007E007D077C71125B1090E2D2A8
:10932500121696D2AF90E2D2121610781C1215744E
:10933500EF540FFFEF244190E2D6F07BFF7A8E7950
:109345004B12ABD790E2D2121610780C121574EFAF
:109355005410FFEE5475FEE4FDFC7B107A75F9F8A8
:10936500C31215637BFF701A7A8E795E12ABD77BB9
:10937500FF7A8E796312ABD790E2D6E0FF12B11275
:0C93850080077A8E796912ABD712B047CE
:0193910022B9
:10AEF40090E2DDEFF012B0C790E2DDE0FF029AE7E6
:03B10F0002B0C7C4
:0300000002758501
:1075850075818A1275A578FEE4F6D8FD90E0007F36
:10759500007E20E4F0A3DFFCDEFA75818A02761A0C
:1075A50075FF0075FE0075FD0775FCEA75FB7075C6
:1075B500FA0075F90075F73C75FFDF75FEFF75FD7F
:1075C5000075FC0075F76475FF0075FE0075FC011C
:0A75D50075F760758E0075F2AF22A5
:042B680041E512032E
:103EFD00493243202D2048617264776172652046F6
:103F0D0049464F732077696C6C20626520666C752D
:103F1D007368656400545820627566666572206525
:103F2D006D7074792054696D656F75740A0049322E
:103F3D00432054782054696D656F75740049324380
:103F4D00202D20436F756C646E2774207472616E22
:103F5D00736D697420726561642072657175657326
:103F6D007400776169745F666F725F74785F6275F4
:103F7D00666665725F656D70747900526561642067
:103F8D0054696D654F75742841646472292000521F
:103F9D0041575F494E54525F535441542830786411
:103FAD00293A2030780052585F544C2830786529D2
:103FBD003A2030780054585F544C28307866293AAE
:103FCD0020307800434C525F52585F554E44455255
:103FDD002830783131293A20307800434C525F52E5
:103FED00585F4F5645522830783132293A20307873
:103FFD0000434C525F54585F4F564552283078312C
:10400D0033293A20307800434C525F52445F524579
:10401D00512830783134293A20307800434C525FA2
:10402D0054585F414252542830783135293A203066
:10403D007800434C525F52585F444F4E45283078BC
:10404D003136293A20307800434C525F4143544970
:10405D00564954592830783137293A203078004361
:10406D004C525F53544F505F44455428307831388B
:10407D00293A20307800434C525F53544152545FDB
:10408D004445542830783139293A20307800434C52
:10409D00525F47454E5F43414C4C28307831612982
:1040AD003A203078004354524C2830783162293A06
:1040BD0020307800535441542830783163293A2008
:1040CD003078005458464C522830783164293A20C3
:1040DD003078005258464C522830783165293A20B4
:1040ED0030780054585F414252545F534F555243FC
:1040FD00452830783230293A20307800434C525FD1
:10410D00494E54522830783130293A2030780056B3
:10411D005453535F5457495F5457495F5258464C57
:10412D005228746865206461746120696E2074681A
:10413D0065207278206669666F293A2000206973C0
:10414D0020626967676572207468616E206578709A
:10415D0065637465643A2000565453535F54574950
:10416D005F5457495F5241575F494E54525F535404
:10417D0041543A2000565453535F5457495F545796
:10418D00495F54585F414252545F534F5552434516
:03419D003A2000C5
:107D5A00C2AF7F747E047D107C702290E3131216EA
:107D6A0010EF24FFFFEE34FFFEED34FFFDEC34FF8D
:107D7A002290E313E4FFFEFDFC021629D2AFC2AF44
:107D8A007F017E007D007C0022E4FFFEFDFC1216CE
:107D9A0029C30215637B407A42790F780090E31F6A
:107DAA00021610783F120F1C7B007A2479747849E6
:107DBA00121025E4FBFA22121610EF2401FFE43E0A
:107DCA00FEE43DFDE43CFC221215878F528E518D54
:107DDA00502290E302E0FDF42290E31FE0FEA3E0CC
:107DEA00FFE4FCFD22FC90E313021696E47B0AFAF8
:107DFA00F9F8021411EFF0A3EDF0A30216FF90E3D5
:047E0A000702161045
:0882180090E31FEEF0A3EFF06C
:10822000C2AF7F04127D5E1282B090E3211216105D
:10823000EFFBEE5403FAE4F9F8127DE3C312156381
:10824000606DC2AF7F78127D5E1282B0127D5A12CD
:108250005B1090E325121696D2AF90E321127D7E3B
:10826000C3121563700CFFFEFDFC90E325127D9890
:1082700060097BFF7A3E79FD12B0EDC2AF7F00123C
:108280007D8C125B2A7F6C127D5E125B21D2AFC2A5
:10829000AF127DE3125B2A7F04127D5E125B211216
:0F82A0007D86125B2A7F6C127D5E125B21D2AF4E
:0D82AF0022125B1090E321121696D2AF222E
:10A650007F3212B0B2127D5A125B1090E31F1216B5
:10A6600096D2AF12B10B500D7BFF7A3F792212B018
:10A67000EDE4FEFF2290E31F127D9370D8FE7F0170
:01A6800022B7
:069D160090E31F121696F7
:109D1C007F0512B0B2127D5A125B1090E32312161B
:109D2C0096D2AF12B10B500D7BFF7A3F793B12B03C
:109D3C00EDE4FEFF22E47F06FEFDFC90E323121609
:109D4C0029D312156350CEC2AF90E31F1216101216
:109D5C005B2A7F10127D5E125B21D2AF7E007F01E9
:019D6C0022D4
:1077340090E31FEDF0EF6045C2AFE47F01FEFDFC76
:10774400E0F9F8121587ED4401FDEC8F4E8E4D8D56
:107754004CF54BE47F01FEFDFCA801121587ED44B6
:1077640001FDEC127DD5F54F7F541277C6A80112A6
:107774007DD28C4F7F581277C6A8018032C2AFE405
:10778400F54EF54DF54CF54BF552F551755031F577
:107794004F7F541277F1F552F551755030F54F7F04
:1077A400581277F17F01FEFDFC90E31FE0F9F81217
:1077B4007DD28C4F7F3C7E007D077C7112A105D267
:1077C400AF227E007D077C7112A105D2AFC2AFE467
:1077D4007F01FEFDFC90E31FE0F9F81215878F4E40
:1077E4008E4D8D4C8C4BE47F01FEFDFC22FE7D070B
:1077F4007C7112A105D2AFC2AFE4F54EF54DF54C44
:03780400F54B221F
:1064360090E31F1216A20EE6B280127D9F12149CE4
:10644600127DF6EF24F8127D6EFCC2AF125B2A7F36
:1064560014127D5E12653D127DF6127D6BFCC2AF95
:10646600125B2A7F18127D5E12653DEF24FFFFEE58
:1064760034FFE4FCFDE4FE7801121587EF4401FFCA
:10648600ECC2AF125B2A7F987E017D007C70125BA6
:1064960021D2AF127DA7E41210C27BCD7ACC798CC3
:1064A600127DADF978C11265547F1C127D5E125BB8
:1064B60021D2AF127DA7E41210C27B337A3379B3AF
:1064C600127DAD798078BF1265547F20127D5E12F1
:1064D6005B21D2AFE4FEFDFC0414044402FFEF543A
:1064E600FBFFEF54F7FFEF54EFFFEF4420FFEF44BD
:1064F60040FFEEC2AF125B2A7F00127D5E125B2167
:10650600D2AF127D9F12149CE41210C2E4FBFA79FA
:1065160080783E120F1C121100C2AF125B2A7F94C4
:10652600127D5E125B21127D86125B2A7F6C127DC4
:066536005E125B21D2AFF2
:10653C0022125B21D2AF7B407A42790F780090E334
:10654C001F12161012149C22120E2B121100C2AF25
:04655C00125B2A2282
:0685E10090E302127DFF91
:1085E70090E30B1216A20000000090E302E0FDF4F6
:1085F70060057F0112773490E303E0FF7E0012826B
:108607001812A650EF4E605690E30712161090E32B
:108617000FEEF0A3EFF0D390E310E0940090E30F98
:10862700E064809480403790E3041216DF121299B9
:10863700FFE4FCFDFE129D16EF4E602290E305E479
:1086470075F00112134690E30B127DC190E30B12F4
:10865700169690E30F74FFF5F012134680B87F0269
:1086670012B01F90E302E0FDF46005E4FF127734D7
:0686770090E30B12161047
:01867D0022DA
:0626920090E302127DFF3F
:1026980090E30B1216A200000000E490E319F0A3E7
:1026A800F0127DDC60057F0112773490E303E0FFD0
:1026B8007E00128218127E0890E317EEF0A3EFF066
:1026C80090E317E0FEA3E0FFD39400EE64809480CB
:1026D80050030229A8D3EF9408EE64809480400C3C
:1026E80090E3131216A200000008800F90E317E091
:1026F800FEA3E0FFEE3395E0FD8041127D7BD3120F
:102708001563403D12A650EF4E60257F007E017D87
:10271800007C00129D16EF4E701F7BFF7A3F794AAE
:1027280012B0ED127DDC6005E4FF1277340228DC7C
:102738007BFF7A3F796F12B0ED127D65127DEF80D5
:10274800BA7F0A12B0B290E317E0FAA3E0FBD39481
:1027580008EA64809480401790E3131216A20000E0
:10276800000890E31774FF75F0F81213468013AF52
:1027780003AE02EE3395E0FD127DEFE490E317F02F
:10278800A3F0127D7BD312156350030226C81229C9
:10279800E612B10B40030228E27BFF7A3F798812E8
:1027A800ABD790E303E0FFE4FCFDFE12950012B006
:1027B80047C2AF7F341229BE7A3F799C122AECC2F5
:1027C800AF7F381229BE7A3F79B3122AECC2AF7FA5
:1027D8003C1229FC7A3F79C21229D27F441229FC83
:1027E8007A3F79D11229D27F48122A207A3F79E894
:1027F800122A0EC2AF7F4C122A207A3F79FE122A83
:102808000EC2AF7F50122A447A407914122A32C27B
:10281800AF7F54122A447A407929122A32C2AF7FF4
:1028280058122A687A40793F122A56C2AF7F5C1242
:102838002A687A407955122A56C2AF7F60122A8CCC
:102848007A40796C122A7AC2AF7F64122A8C7A4055
:102858007983122A7AC2AF7F68127D5E122AD47AEF
:1028680040799B122A9EC2AF7F6C127D5E122AD4D9
:102878007A4079B2122A9EC2AF7F70127D5E122A08
:10288800E07A4079C1122AB0127D5A122AE07A40C1
:1028980079D0122AB01229E67A4079E0122AC2C207
:1028A800AF7F80127D5E122B147A4079F0122AC213
:1028B800C2AF7F40127D5E122B147A417909122B28
:1028C8002012AD0712B047126436127DDC6005E4B1
:1028D800FF127734E4FFFEFDFC2290E30F127D9394
:1028E8007003022796127E0890E30F121629D3125E
:0428F8001563406BB9
:1028FC007A41791C122B201295007BFF7A41794A80
:10290C0012ABD7127E0812950012B0477BFF7A41AA
:10291C00796512ABD7C2AF7F34127D5E122AFC7B75
:10292C00FF7A41798212ABD7C2AF7F80127D5E12E3
:10293C002AFCC2AF7F00127D8C125B2A7F6C127D49
:10294C005E125B21D2AF7F0212B01F127D88125B28
:0B295C002A7F6C127D5E125B21D2AF5F
:10296700C2AF7F10127D5E125B1090E30F121696B6
:10297700D2AF90E30F12161090E3041216DFEF1296
:10298700131290E305E475F00112134690E30B125E
:102997007DC190E30B121696127D65127DEF02271B
:1029A7008A7F0212B01F127DDC6005E4FF127734C4
:0629B70090E30B12161064
:1029BD00227E047D107C70125B1090E30F12169630
:1029CD00D2AF7BFF227BFF12ABD790E30F12161015
:1029DD0012AD0712B047C2AF22C2AF7F787E047D21
:1029ED00107C70125B1090E30F121696D2AF227E00
:1029FD00047D107C70125B1090E30F121696D2AF0F
:102A0D00227BFF12ABD790E30F12161012AD0712F7
:102A1D00B047227E047D107C70125B1090E30F1284
:102A2D001696D2AF227BFF12ABD790E30F12161082
:102A3D0012AD0712B047227E047D107C70125B1020
:102A4D0090E30F121696D2AF227BFF12ABD790E315
:102A5D000F12161012AD0712B047227E047D107CA6
:102A6D0070125B1090E30F121696D2AF227BFF12FD
:102A7D00ABD790E30F12161012AD0712B047227E9E
:102A8D00047D107C70125B1090E30F121696D2AF7E
:102A9D00227BFF12ABD790E30F12161012AD071267
:102AAD00B047227BFF12ABD790E30F12161012AD79
:102ABD000712B047227BFF12ABD790E30F1216100F
:102ACD0012AD0712B04722125B1090E30F1216964B
:102ADD00D2AF22125B1090E30F121696D2AF2212D4
:102AED00ABD790E30F12161012AD0712B04722129A
:102AFD005B1090E31B121696D2AF90E31B121610CB
:102B0D0012AC1112B04722125B1090E30F12169601
:0F2B1D00D2AF227BFF12ABD790E30F121610221C
:10A18800E4FEFDFC90E316121629C3021563E4FCF5
:10A19800FDFEEF5401FFE42290E2EBE0FF7E007C3D
:10A1A800007D04121768EF2212153BA804A905AA1E
:0FA1B80006AB0722121610EE5401FEE4FDFC2246
:10AC2E00C3EE94014015EEC4F854F0C868FEEFC4AC
:0CAC3E00540F482400FFEE3401FE2222D7
:0E2F8D0090E2ECEDF0A3EBF090E2EBEFF0FA47
:102F9B00E490E2EEF0A3F0A3F090E2F61216A2009A
:102FAB00000000AF02E4FCFDFEFBFA7901F81214FD
:102FBB0011E42FFFE43EFEED341EFDEC3471FC906A
:102FCB00E2FE12169690E3021216A2000007FF9083
:102FDB00E3061216A200000FFF90E30A1216A200DE
:102FEB00009C4090E30E1216A200002EE090E3121C
:102FFB001216A20000355E90E2ECE05403FFE4FCF5
:10300B00FDFE90E316121696E4FF12A18970047F61
:10301B000380187F0112A18870047F02800D7F024C
:10302B0012A18870047F0180027F00EF3395E0FED0
:10303B00FDFC90E31A12169690E2EDE090E2EFF0B1
:10304B00FBA3F090E3021216A2000000E4EB600F6A
:10305B0090E3061216A2000000B190E30A800390E1
:10306B00E30E12161090E2F212169690E2EEE0606A
:10307B000A90E2F21216A200013880C2AF90E3066A
:10308B0012A1BC7801121587C004C005C006C00789
:10309B0090E30212A1BC780A121587D003D002D09C
:1030AB0001D00012A1B090E2EFE060047F0180023A
:1030BB007F0012A1961232B824081232CE90E2EBA6
:1030CB00E0FF7B017AE3791E12A034C2AF90E31FBD
:1030DB00E07D00FC90E31EE07E007810C333CE331E
:1030EB00CED8F990E3201232E124401232FB90E368
:1030FB0022E07D00FC90E321E07E007810C333CE0C
:10310B0033CED8F990E3231232E1243C1232FB90F8
:10311B00E31A121610EF5403FFE4FEFDFC781A12AB
:10312B001587ED4474FDC004C005C006C00790E2CE
:10313B00EFE060047F0180027F0012A196781112EC
:10314B001587D003D002D001D00012153BC004C0AC
:10315B0005C006C00790E2F0E060047F0180027FAB
:10316B000012A1967810121587D003D002D001D08F
:10317B000012A1B090E2EEE06006E47FFFFE800457
:10318B007FFF7EFFE4FDFC1232B824701232CEC2F8
:10319B00AF12A1A02434FFEE3412FEED3481FDEC0E
:1031AB003471FCC004C005C006C00790E2EFE070AC
:1031BB00047F0180027F0012A19678091215878F78
:1031CB004E8E4D8D4C8C4BE4F552755102F550F5EE
:1031DB004FD007D006D005D00412A105D2AFE49092
:0D31EB00E2F1F090E2F1E0FFC3940B5043DD
:1031F800EF04FF12AD9712B06490E324EFF030E5CE
:10320800047F0180027F0090E2EFEFF090E2F66029
:103218000812161090E30A800612161090E30E1298
:0B32280016291213F690E2F61216961B
:1032330090E2F1E004F080B390E2F6121629C37431
:10324300049BFF74809AFE740399FDE498FCE47B6D
:103253003CFAF9F812149C90E2FA121696C2AF9057
:10326300E2EEE06007E4FFFEFDFC8007E47FFF7E03
:1032730001FDFC125B2A7F6C7E067D017C71125B73
:1032830021D2AFC2AFE47B3CFAF9F890E2F2121616
:103293001012149C12AC2EE4FCFD125B2A12A1A0A6
:1032A300243CFFEE3406FEED3401FDEC3471FC12D8
:0432B3005B21D2AF1A
:1032B7002212153B125B2A90E2EBE0FF7E007C00B6
:1032C7007D04121768EF22FFEE3406FEED3401FD90
:1032D700EC3471FC125B21D2AF22FFEE4CFEEF4DB6
:1032E700FFE0FDEF4DFFE4FCFD125B2A90E2FE12CA
:1032F7001610EF22FFE43EFEE43DFDE43CFC125BCA
:0633070021D2AFC2AF228B
:0AA1490090E2E9EDF090E2E8EFF09B
:10A1530090E2EA7420F012B0F390E2EAE0FE90E2BB
:10A16300E9E0FD5EB506047E0180027E00EF600734
:10A17300EE60047F0180027F00AE0790E2E8E0FF1B
:05A18300AB06022F8D68
:0DAF9A00C8ECC8C9EDC9CAEECACBEFCB2286
:10A105008F4A8E498D488C47125B1012AF9AAF5219
:10A11500AE51AD50AC4F12154812152E12AF9AE53F
:10A125004E5552FFE54D5551FEE54C5550FDE54B5D
:10A13500554FFC12153B125B2AAF4AAE49AD48ACF0
:04A1450047025B2151
:106C9400F890E2E8121610E4FFFEEC12153B90E2C5
:106CA400E812169690E2F402161012153B90E2EDEB
:106CB400E0FAA3E02408F582E43AF58312169690EC
:106CC400E301021610F582E43AF583EFF090E30550
:106CD4000216107F03E490E2F5FEFDFC121629C3B0
:106CE400021563C2AF7F3C7E8B7D887C7122A3E05A
:106CF400FFE4FCFDEF5403FFE4FE7809021587FF6F
:106D0400E4FEFDFC12169690E2F102161090E2E108
:106D1400E0FEA3E022EF2404F582E43EF583E022C2
:106D2400E4FCFDFEEF5401FFE402158790E2EDE080
:106D3400FAA3E0227E007D007C00228F828E83A352
:106D4400A322121574EF5403FFE4FEFDFC2290E22B
:106D5400EFE0FEA3E0F5828E832212153BA804A97E
:106D640005AA06AB07227F0C7E907D887C7122FDEC
:106D7400E490E2E4F0A3F0FB7F012290E2E4021647
:016D840010FE
:0A51340090E2E1EEF0A3EFF0AB050E
:10513E00E4A3F090E2F01216A20000000090E2F458
:10514E001216A20000000090E2F81216A200000053
:10515E0000EB7019126D11FF12A44F126D11FF1298
:10516E00AAB4126CF5EF4402FFEC025327126D1134
:10517E00FF12AAB490E2FCEEF0A3EFF0126D11FF55
:10518E0012A52190E2E8121696126D11FF12A822B6
:10519E0090E2EC12169690E2FCE0FEA3E0FF6402B1
:1051AE004E6009EF64034E6003025252126D1124D9
:1051BE0008F582E43EF58312161090E2F41216966C
:1051CE0090E2FCE07004A3E0640290E2F470361208
:1051DE0016107818121587E4FBFAF9ECF890E2EC49
:1051EE00121610E4FC12153B90E2EC126CA5780836
:1051FE00121574EFFBEEFAE4126C947818126D46E9
:10520E0090E2E4803A121610EFFBEEFAE4F9126C1B
:10521E00947810121574EF543FFFE4FEFDFC90E2FB
:10522E00E4126CA57816126D4690E2F8126CA57811
:10523E0019121574EF5401FFE4FEFDFC90E2F0121A
:10524E001696804F90E2FCE4F0A304F090E2E41294
:10525E0016A200000000E47F0B90E2E4126CDD5019
:10526E0032126D7F90E2E2E02408FD90E2E1E0343C
:10527E0000FAA9057B01125C0F4018126D7FEF2416
:10528E0001FFE43EFEE43DFDE43CFC90E2E4121638
:10529E009680C3C2AF90E2E8121610125B2A7F34DA
:1052AE00126CEB125B21D2AFC2AF90E2EC12161071
:1052BE00125B2A7F38126CEB125B21D2AF90E2F0B8
:1052CE00121610EC4D4E4F60047F0180027F007865
:1052DE000C126D24EE4408FEC004C005C006C007C3
:1052EE0090E2FC126CF2D003D002D001D000121565
:1052FE003BC004C005C006C007126D7FEF543FFFD0
:10530E00E4FEFDFC7803121587D003D002D001D045
:0C531E000012153BEF4401FFEC12A4B993
:01532A002260
:0E4B120090E2EDEEF0A3EFF0A3ECF0A3EDF0D7
:104B2000126CE7125B1090E2F1121696D2AF126D82
:104B30000BE4FFEE5408FEE4FDFCEE700774FFFF8B
:104B4000FEFDFC22126D0B7809121574EF540390D0
:104B5000E2F5126D037803121574EF543F90E2F9F9
:104B6000126D03E4FFEE5410FEE4FDFCEE6005E47C
:104B70000FFE8005E4FFFEFDFC90E2FD121696C2DA
:104B8000AF7F34126CEB125B1090E301121696D2D9
:104B9000AFC2AF7F38126CEB125B1090E3051216B8
:104BA00096D2AF7F02126CD96008126CD7600302F4
:104BB0004C85126D527401F0126CD77065126D0B3A
:104BC0007810121574EF5407FFE4FEFDFC781612FE
:104BD0001587C004C005C006C00790E2FD1216107C
:104BE0007819121587D003D002D001D00012153BDE
:104BF000C004C005C006C00790E2F9121610781074
:104C0000121587D003D002D001D000126D5E126C55
:104C1000C3E4FDFC126CAE7433FFFEEC90E30102C2
:104C20004C80126CC37808121587E4FFE4FCC004C2
:104C3000C005C006C00790E2F912161078181215C8
:104C400087D003D002D001D00012153BC004C005AC
:104C5000C006C007126CD17818121574E4FEFDFC72
:104C6000D003D002D001D000126CAEE4FF7401FE7C
:104C7000EC90E301121696126CD1745EFC90E30581
:104C80001216968037126D52E4F0C2AF7F04FEFD1B
:104C9000FC90E2F9121629121411E42FFFEE348C65
:104CA000FEED3488FDEC3471FC125B10126D302483
:104CB00008F582E43AF583121696D2AF126CC378E7
:104CC00010121574EE540FFE126D30FBF5828A83BC
:104CD000EEF0A3EFF0126CC378081215748B828A81
:104CE00083A3A3EFF0126CC3126D30FBF5828A83AD
:104CF000A3A3A3126CCF7818121574EB2404126CC2
:104D0000C97810121574126D30FB2405126CC97825
:104D100008121574EB2406126CC990E2EDE0FCA3B6
:0E4D2000E02407F582E43CF583EFF0126D0B02
:014D2E002262
:109C630090E2E8ECF0A3EDF0A3EBF090E2E6EEF087
:039C7300A3EFF06C
:109C760012A44F90E2EAE0601A90E2E6E0FEA3E06A
:109C8600FF12AAB490E2EBEEF0A3EFF07F04126DA0
:109C960038800F90E2EB126CF2EF4406FFEE4408B8
:109CA600FEEC12A4B990E2E6E0FEA3E0FFA3E0FC1E
:069CB600A3E0FD124B12B9
:019CBC002285
:10AA6E00C2AFE4754E2C754D01F54CF54B7552FE8B
:10AA7E007551FF75501FF54F7F30126D6C12A10589
:03AA8E00D2AF2222
:107E0E0090E2E1EFF0A3EDF0C2AFEB60047F0180F2
:107E1E00027F00780D126D24C004C005C006C00795
:107E2E0090E2E1E060047F0180027F00E4FCFDFE51
:107E3E00EF5401FFE47813121587D003D002D0015E
:107E4E00D00012153BC004C005C006C00790E2E288
:107E5E00E0541FFFE4FCFDFE780E121587D003D010
:107E6E0002D001D000126D5E90E2E4E0FEA3E0FFCE
:107E7E00E4FCFDEE541FFEE412153B8F4E8E4D8D2D
:107E8E004C8C4B7552FF7551FF75500F754F00128C
:107E9E006D6A12A105D2AF7F03126D3812A4B9C25A
:107EAE00AF7F00126D38125B2A126D6A125B21D2FF
:027EBE00AF22F1
:08B0A2007F05126D3802A4B90C
:10ADC30090E2E0EFF0126D73127E0E90E2E0E0127B
:05ADD3006D73027E0E0D
:10A4B900C2AF125B2A126CE9125B21D2AF126CE7B0
:10A4C900125B1090E2FE121696D2AF90E2FE1216BF
:10A4D90010EF5407FFE4FEFDFCFBFAF9F8C312156F
:03A4E9006370DAC3
:01A4EC00224D
:10A44F0090E2FEEEF0A3EFF0C2AF12A521125B2A4D
:10A45F007F34126CEB125B21D2AFC2AF90E2FEE001
:10A46F00FEA3E0FF12A822125B2A7F38126CEB12B8
:05A47F005B21D2AF22B9
:04A52100AD07AC06D0
:10A525008D828C83E0FAA3E0FBEA90E300F0A3EBD5
:10A53500F08D828C83A3A3E090E302F08D828C835F
:0EA54500A3A3A3E090E303F090E3001216102E
:01A5530022E5
:10A82200126D1990E300F0EF2405126D1C90E30104
:10A83200F0EF2406126D1C90E302F0EF2407126D74
:0BA842001C90E303F090E300121610DE
:01A84D0022E8
:10AC8200126D3FE0B40111126D3FA3E0700A126D24
:0BAC920019B45E047F0180027F0022E5
:10AD8100126D3FE0B4330C126D3FA3E0B433047F86
:06AD91000180027F002298
:10AAB400AD07AC0612AC82EF60057E007F0222AEC9
:10AAC40004AF0512AD81EF60057E007F0322E4FE32
:02AAD400FF225F
:0BB009007F037E007D007C0002A2455A
:10A24500C2AF125B2A7F447E8B7D887C71125B21B5
:10A25500D2AF7F6412B0B2C2AF7F447E8B7D887C63
:10A2650071125B10D2AFEF5403FFE4FEFDFCFBFA65
:0DA27500F9F8C3121563600512B10B50DA41
:01A2820022B9
:10A2C10025252054696D656F7574207768656E204A
:10A2D10063616C6C696E672068325F736572646577
:10A2E100735F6D6163726F5F70686173655F6C6FDF
:0CA2F1006F705F6C6F636B656428290060
:10468500D2AFC2AF90E2DEE0FFE4FCFDFEFBFA79BB
:1046950001F8121411E42FFFE43EFEED341EFDEC8B
:1046A5003471FC22FFE43EFEE43DFDE43CFCE47590
:1046B5004E01F54DF54CF54B755201F551F550F59B
:1046C5004F22C2AF90E2E8E075F020A4FFAEF07C87
:1046D500007D04121768EF2408FFE43EFEED340365
:1046E500FDEC3471FC22D2AFC2AF90E2E1E0FF7E77
:1046F500007C007D04121768E42FFFEE3412FEEDF6
:104705003481FDEC3471FC2290E2CD121610EF24B9
:1047150001FFE43EFEE43DFDE43CFC22C2AF90E235
:10472500CBE0FEA3E022C2AF90E2E1E0FF7E007C99
:10473500007D04121768EF2448FFEE3405FEED34C2
:1047450001FDEC3471FC227808E4FCFDFEEF540118
:10475500FFE402158712169690E39912161090E35E
:104765008912162912140390E39912169690E39D67
:10477500021610E4F54EF54DF54CF54B22FFEE33E0
:1047850095E0FDFC90E39512162912152EEC4D4E81
:104795004F22FFEE3395E0FDFC1213F6E47B08FA99
:1047A500F9F8121411E42FFFEE227F0B90E2CDE40D
:1047B500FEFDFC0216291216108F4E8E4D8D4C8C67
:1047C5004BE422E475F00190E2CB02134612162960
:1047D5001213F690E391121696E490E2CBF0A3F053
:1047E50022D2AFC2AF7F007E007D007C0022E47F35
:1047F500B07E04FDFC90E39112162912141190E38A
:10480500A112162912149CC32290E389121629902D
:10481500E399021610FFC39408EE6480948022E0A9
:10482500FF7E007C007D04121768EF22E4FCFDFE8C
:10483500EF5401FFE402158774017E00A8070822E2
:1048450090E38D12162912140390E39D0216967FAC
:10485500087E057D017C7122F552755101F550F5F3
:104865004F2224E9F58274E2222409F58274E322B9
:1048750012169690E38D22EF5401FFE48F4E22121B
:104885001610EF540FFFE4FEFDFC22D2AFEF5401EA
:10489500FFE4FEFDFCEF221213F690E3910216965B
:1048A5002429F58274E3222449F58274E32290E3F6
:1048B5007902169690E38502169612161012AC4AE6
:0E48C500E4FCFD22F552755140F550F54F22EE
:01B118002214
:10AC4A00C3EE94014015EEC4F854F0C868FEEFC490
:0CAC5A00540F482400FFEE3401FE2222BB
:1018060090E3A67408F0A31216A20000000090E36D
:10181600AB7401F090E2D91216A200000BB890E367
:10182600691216A20000000090E2DD1216A2000066
:10183600000090E36D1216A200000BB890E3791237
:1018460016A20003800490E37D1216A20003800412
:1018560090E3891216A200000FA090E3A57401F090
:1018660090E2E51216A20000000890E2E11216A22C
:101876000000000890E3751216A20000001490E321
:10188600711216A20000001490E3811216A2000045
:10189600077790E3851216A20000077790E38D1272
:1018A60016A20000003290E3A11216A2000000C8A2
:1018B6007F0190E3A71247B4C3121563704A90E301
:1018C600A5F090E3891216A20000753090E3691224
:1018D60016A20000000090E36D1216A200000000A0
:1018E60090E38D1216A2000000C890E3711216A2B2
:1018F6000000000090E3751216A20000000090E3BD
:10190600A11216A2000000C890E3ABE0600C90E3C1
:10191600951216A200000081802890E3A6E0FFC37E
:1019260074089FFF74FF7E00A807088006CEA2E712
:1019360013CE13D8F8FFEE3395E0FDFC90E3951235
:10194600169690E36D12161090E3691247D212476D
:101956002312481A503E12483D8005C333CE33CE7B
:10196600D8F9124782602890E391121629C000C068
:1019760001C002C00390E2DD12161090E2D91216E1
:10198600291213F6D003D002D001D00012489C12BF
:1019960047C880BA1247F374049FFF74809EFE7492
:1019A600039DFDE49CFC90E39912169690E3751254
:1019B600161090E3711247D212472312481A503E6E
:1019C60012483D8005C333CE33CED8F91247826024
:1019D6002890E391121629C000C001C002C00390EE
:1019E600E2E512161090E2E11216291213F6D00360
:1019F600D002D001D00012489C1247C880BA1247C4
:101A0600F374779FFF74079EFEE49DFDE49CFC1231
:101A1600484E90E3A5E07003021B89A3E024FFFE75
:101A2600E434FF90E2CBF0A3CEF0124723FFC3EEDF
:101A3600648094805003021B5612483D8005C333D0
:101A4600CE33CED8F91247827003021AF212481426
:101A5600C004C005C006C0071247237802C333CEB0
:101A660033CED8F91248673EF583D007D006D005A5
:101A7600D00412476FC004C005C006C00712472332
:101A86007802C333CE33CED8F91248A53EF583D0BB
:101A960007D006D005D004121696124814C004C00A
:101AA60005C006C0071247237802C333CE33CED80B
:101AB600F912486E3EF583D007D006D005D0041241
:101AC600476FC004C005C006C0071247237802C38B
:101AD60033CE33CED8F91248AC3EF583D007D006C4
:101AE600D005D00412475A124845805A1247237827
:101AF60002C333CE33CED8F9FBAA061248673AF5AD
:101B0600831216A20000000074292BF58274E33AB2
:101B1600F5831216A2000000001247237802C33391
:101B2600CE33CED8F9FBAA0612486E3AF5831216C2
:101B3600A20000000074492BF58274E33AF5831283
:101B460016A20000000074FFF5F01247CC021A300E
:101B560012480E1214031248B312480E12140390C0
:101B6600E37D12487512162912477212140390E388
:101B7600811248751216291247721214031248B9B7
:101B8600021C841247DE90E3A6E0FFC390E2CCE09D
:101B96009F7480F890E2CBE06480984003021C5565
:101BA60090E389121610C004C005C006C00712478C
:101BB600237802C333CE33CED8F91248673EF58375
:101BC600D007D006D005D004124875121610C004EE
:101BD600C005C006C0071247237802C333CE33CEF2
:101BE600D8F91248A53EF583D007D006D005D00413
:101BF60012169690E389121610C004C005C006C0DE
:101C0600071247237802C333CE33CED8F912486E73
:101C16003EF583D007D006D005D0041248751216BB
:101C260010C004C005C006C0071247237802C3339C
:101C3600CE33CED8F91248AC3EF583D007D006D0C5
:101C460005D00412475A1248451247C8021B8C1287
:101C560048141248B312481490E37D12476F90E37C
:101C66008112476F1248B9C2AF7FFF1247EC125B71
:101C76002A7F787E137D817C71125B21D2AF90E240
:101C8600CD1216A2000000001247AFD31215634012
:101C960003021D661247AFC3121563700C90E2D1A2
:101CA6001216A20000000B80031220DB1247DE1280
:101CB600472312481A4003021D5A12483D8005C3A5
:101CC60033CE33CED8F9124782603BC2AF90E2D909
:101CD600121F4234201247031220B890E2E1124844
:101CE600BF12201B12479734281247031220B890C0
:101CF600E2DD121F4234301247031220F290E2E571
:101D06001248BF021D2A1247E812201B12479734B9
:101D160020121EF13428121EF13430124703125BD2
:101D2600211247E6125B2AE47F08FEFDFC90E2D111
:101D3600121629121411A804A905AA06AB07124700
:101D4600231247973438124703125B21D2AF12474A
:101D5600C8021CB512470D90E2CD121696021C8ED3
:101D66001247DE12472312481A5062C2AFEF7802BA
:101D7600C333CE33CED8F912486712207B34001213
:101D86001F8D1247217802C333CE33CED8F91248BD
:101D9600A51220C03401121F8D1247217802C333C9
:101DA600CE33CED8F912486E12207B3402121FB8F9
:101DB6001247217802C333CE33CED8F91248AC127B
:101DC60020C03403121FB81247C8021D6990E2CD25
:101DD6001216A2000000001247AFD3121563506915
:101DE6001247AFC3121563700C90E2D11216A2000F
:101DF60000000B80031220DBC2AF90E369121FE3E1
:101E0600E42F122008C2AF90E3711220621247A796
:101E1600342F1247031220F290E36D121FE3E42FD2
:101E2600FFEE34371247031220FA90E37512206250
:101E36001247A7343F124703125B21D2AF12470D58
:101E460090E2CD121696021DDD90E2D51216A20082
:101E5600000000E47F02FEFDFC90E2D5121629C3C5
:101E66001215634003021EF0C2AF90E37912203DC3
:101E7600EF24F0122008C2AF90E38112209F1214C3
:101E860011EF24F0FFEE342F1247031220FA90E3ED
:101E96007D12203DEF24F0FFEE3437124703125B2C
:101EA60021D2AFC2AF90E38512209F121411EF2406
:101EB600F0FFEE343F124703125B21D2AF90E305E9
:101EC60012161090E37D1216961248B390E345124F
:101ED60016101248B990E38112169690E2D5124771
:0A1EE6001090E2D5121696021E5964
:101EF00022FEED3481FDEC3471FC125B21D2AFC2C5
:101F0000AF7F007E007D007C00125B2AE47F08FE2C
:101F1000FDFC90E2D1121629121411A804A905AAF9
:101F200006AB0790E2CBE0FEA3E0FFEE3395E0FDC9
:101F3000FC1213F6E47B08FAF9F8121411E42FFFEF
:101F4000EE22E47B3CFAF9F812161012149C12AC43
:101F50004AE4FCFD125B2AE47F08FEFDFC90E2D11E
:101F6000121629121411A804A905AA06AB0790E2BB
:101F7000CBE0FEA3E0FFEE3395E0FDFC1213F6E4A8
:101F80007B08FAF9F8121411E42FFFEE22FEEF2578
:101F9000E0FFEE33FE3395E0FDFCE47B04FAF9F854
:101FA000121411E42FFFEE3420FEED3481FDEC34E9
:101FB00071FC125B21D2AF22FEEF25E0FFEE33FE73
:101FC0003395E0FDFCE47B04FAF9F8121411E42FD8
:101FD000FFEE3420FEED3481FDEC3471FC125B2108
:101FE000D2AF22E47B3CFAF9F812161012149C12BC
:101FF000AC4AE4FCFD125B2AE47F08FEFDFC90E2A3
:10200000D112162912141122FFEE3427FEED34816D
:10201000FDEC3471FC125B21D2AF22125B2AE47F0B
:1020200008FEFDFC90E2D1121629121411A804A991
:1020300005AA06AB0790E2CBE0FEA3E022E47B3CDE
:10204000FAF9F812161012149C12AC4AE4FCFD12B4
:102050005B2AE47F08FEFDFC90E2D51216291214DB
:10206000112212161012AC4AE4FCFD125B2AE47F26
:1020700008FEFDFC90E2D1121629223EF5831216CD
:1020800010E47B3CFAF9F812149C12AC4AE4FCFD13
:10209000125B2A90E2CCE024D8FF90E2CBE022123F
:1020A000161012AC4AE4FCFD125B2AE47F08FEFD28
:1020B000FC90E2D512162922125B21D2AFC2AF22C8
:1020C0003EF58312161012AC4AE4FCFD125B2A9016
:1020D000E2CCE024D8FF90E2CBE02290E2CD1216D1
:1020E00010EF04FF12AD97E4FCFDFE90E2D1121652
:1020F0009622125B21D2AFC2AF22125B21D2AFC2B5
:02210000AF220C
:0956750090E2E1EFF0A3EDF0FB7F
:10567E00A31216A200000064EB5403FF6402600440
:10568E00EFB403047F018011EFB401047F0280099F
:10569E00EF70047F0380027F0090E2E7EFF0C2AF6D
:1056AE0090E2E112468CEF241C12471612477875D1
:1056BE0052101246C01257F612482424341246FFD6
:1056CE001247781248C912A1051246EBE4754E0234
:1056DE0012477B7552021246C012A105D2AF7F0A45
:1056EE0012AE2C12472BE4F54E1246B71257F61295
:1056FE0046CCE4754E0212477B7552021246C0121A
:10570E00A1051246EB1247787552021246C012A13D
:10571E0005D2AF7F0112AE2CC2AF90E2E112482447
:10572E00247C12473E125B10D2AFE4FEFDFCEF600C
:10573E000E90E2E374FF121657EC4D4E4F70D4C22A
:10574E00AF90E2E112468CE4754EC812477B75525B
:10575E00C81246C01258011246CC12477875520232
:10576E001246C012A105D2AF90E2E1E0FFA3E0FD28
:10577E0012442990E2E1E0FFA3E0FD12A149124795
:10578E002BC004C005C006C007A3E030E4047F00B0
:10579E0080027F01EF60047F0180027F0012487C4F
:1057AE001246B7D007D006D005D0041258011246C3
:1057BE008CC00790E2E7E05403FFE48F4E12477B64
:1057CE007552031246C0D00712A105D2AFC2AF90D8
:1057DE00E2E112468C1247787552C81246C012A1E9
:0857EE0005D2AF7F0102AE2CD1
:1057F60012A105D2AFC2AF90E2E12212A105D2AF4B
:06580600C2AF90E2E122B6
:086D850090E2DEEFF0A3EDF057
:106D8D005403FF64026004EFB403047F018011EF2C
:106D9D00B401047F028009EF70047F0380027F003D
:106DAD0090E2E0EFF090E2DFE0FDF47003026E5D43
:106DBD0090E2DEE0FF12A14990E2DEE0FFE4FD1279
:106DCD00A2FDC2AF90E2DE12482424341246FFE445
:106DDD00F54E754D40F54CF54B1248C9126E6B12C0
:106DED004730C004C005C006C007A3E030E4047FEF
:106DFD000080027F01EF60047F0180027F00124856
:106E0D007C1246B7D007D006D005D004126E6B1297
:106E1D00468CC00790E2E0E05403FFE48F4E12472A
:106E2D007B7552031246C0D00712A105D2AFC2AF77
:106E3D0090E2DE12468CEF241C124716E4754E11BB
:106E4D0012477B7552111246C012A105D2AF800BAD
:0E6E5D0090E2DEE0FFA3E0FD12567502B119CF
:0B6E6B0012A105D2AFC2AF90E2DE2200
:054F3C0090E2DEEFF041
:104F410012AF4390E2E4EFF090E2DEE0FF12A87AC4
:104F5100EF600890E2DF7401F0800E90E2E4E0B4CB
:104F6100010B90E2DF7401F0E4A3F0A3F090E2E41E
:104F7100E0FFB4080B90E2E27401F0E4A3F08019C1
:104F8100EF64026003EF700AE490E2E2F0A304F040
:104F91008007E490E2E2F0A3F090E2E2E070030225
:104FA100503290E2DFE070047F0180027F00781AC6
:104FB10012474EEF4401FFC004C005C006C0079070
:104FC100E2E0E060047F0180027F0078191248313D
:104FD100D003D002D001D00012153BC004C005C0DF
:104FE10006C00790E2E1E060047F0180027F007863
:104FF10018124831D003D002D001D00012153B90D5
:10500100E2E5121696124687EF2494124716C00461
:10501100C005C006C00790E2E51247BB755201F515
:1050210051F550754F07D007D006D005D004025175
:105031002E124687EF244C124716C004C005C00645
:10504100C00790E2E3E060047F0180027F00124824
:105051007C1246B7D007D006D005D00412A10512A4
:105061004685EF2454124716C004C005C006C00788
:1050710090E2E3E060047F0180027F0012474C125E
:1050810047BE12485DD007D006D005D00412A10555
:10509100124685EF2450124716C004C005C006C051
:1050A1000790E2E1E060047F0180027F00E4FCFD03
:1050B100FEEF5401FFC004C005C006C00790E2E046
:1050C100E060047F0180027F00E4FCFDFEEF5401FB
:1050D100FFE47804121587D003D002D001D000126A
:1050E100153BC004C005C006C00790E2DFE07004B4
:1050F1007F0180027F0012474CD003D002D001D043
:105101000012153B1247BE75521112485FD007D0ED
:1051110006D005D00412A105D2AF90E2DEE0FF7DFA
:1051210001128E73124687EF24481246A912A10577
:02513100D2AFFB
:015133002259
:0944290090E2E8EFF0A3EDF0FBD6
:1044320090E2F61216A200000000EBF470030246AE
:104442006290E2E9E0541390E2FAF01246C7C00427
:10445200C005C006C007A3E030E404E4FF8003E423
:104462007F01FEFDFC1247BE1246BDD007D006D02A
:1044720005D00412A105D2AF90E2E9E05403FF6037
:10448200156401601190E2F6121610EF4411FFEC70
:1044920090E2F612169690E2FAE030E41190E2F61B
:1044A200121610EF4401FFEC90E2F6121696C2AF1C
:1044B20090E2E812468CEF2420124716C004C00591
:1044C200C006C00790E2F61247BB7552111246C0F1
:1044D200D007D006D005D00412467BFF64106004DA
:1044E200EFB4111712466370091216A200000010F1
:1044F20080341216A20000000F802B90E2FAE0FF37
:104502006003B4011712466370091216A20000007C
:104512001080131216A20000000E800A90E2EA1226
:1045220016A20000000590E2EE1216A200000000A2
:1045320090E2F21216A20000000090E2FAE020E4FB
:104542001490E2EE1216A20000000590E2F212169A
:10455200A200000005C2AF90E2E812468CEF2430C0
:10456200124716C004C005C006C00790E2EE12480A
:1045720084C004C005C006C00790E2EA121610EF1C
:10458200541FFFE4FEFDFC7808121587D003D00209
:10459200D001D00012153BC004C005C006C0079070
:1045A200E2F21248847804121587D003D002D001B7
:1045B200D00012153B1247BE7552FF75511FF550C0
:1045C200F54FD007D006D005D00412467012468CA3
:1045D200EF2434124716C004C005C006C00790E29B
:1045E200E8E0FFE4FCFDFE7810121587EF4443FF7C
:1045F200EE4410FEEC8F4E8E4D8D4CF54B75527F76
:104602007551107550FF754F00D007D006D005D0F8
:104612000412A105D2AF7F0212AE2CC2AF90E2E823
:1046220012468CEF2434124716124778F552755110
:1046320010F550F54F12467012468CEF24041246C4
:10464200A912467B6003B401091246C7E4754E0104
:1046520080061246C7E4F54E1246B712A105D2AF44
:104662002290E2E8E0FF12AF43EF90E2EA2212A1C9
:1046720005D2AFC2AF90E2E82212A105D2AF90E21A
:03468200FAE02239
:10AE5400C2AF1246B37F08FE7D077C7112A105D2F2
:03AE6400AF80FEBE
:10867E0012B118127F71EF700D7BFF7AA279C112C1
:10868E00B0ED7F04803312A79BC2AF7F031247EC7D
:10869E00125B2A124854125B21D2AF7F0A12B0B27B
:1086AE00C2AF124854125B10124890600512B10B03
:1086BE0050EE12B10B50057F0302B0D5C2AFE47578
:1086CE004E0412477B7552041246C012485412A132
:1086DE0005D2AF12B0A212B0097F0412B01F12AAB7
:1086EE006E121806C2AF7FEC7EB17D147C00125B59
:1086FE002A7F74124856125B211247E6125B2A7FBC
:0C870E00307E8B7D887C71125B21D2AF25
:01871A00223C
:1071310090E2CD1216A200000000E490E2CBF090A4
:10714100E2CBE0FFC3940B5071EF04FF12AD9790B7
:10715100E2CCEFF0A3121629C000C001C002C003A7
:1071610090E2CCE0FF12483D8005C333CE33CED848
:10717100F9FFEE3395E0FDFCD003D002D001D00041
:1071810012153B90E2CD121696C2AF7F807E257D0F
:10719100007C00125B2A90E2CC12468CEF24241270
:1071A1004716125B21D2AF90E2CCE0FF7DFF12AA1D
:1071B100F890E2CBE004F0027140C2AF7F0C7E0197
:1071C1007D0D7C71125B10124890604390E2CC748B
:1071D10004F090E2CCE0FFC3940850337B017AE2E3
:1071E10079CD125C0F402090E2CCE0FF7DFF12AC24
:1071F1009DC2AF90E2CC12468C124778755238127C
:1072010046C012A105D2AF90E2CCE004F080C302E7
:02721100B119B1
:10AAF80090E2DCEFF0A3EDF012AC9D90E2DCE0FF19
:10AB0800A3E0FD126D8590E2DCE0FFA3E0FD024FBB
:01AB18003C00
:10AC9D0090E2DEEFF0A3EDF012567590E2DFE0B436
:0BACAD00FF0890E2DEE0FF12ADC322C2
:10A2FD0090E2E1EDF0C2AF12468EEF243412471614
:10A30D00C004C005C006C00790E2E1E070047F0103
:10A31D0080027F0012474C1247BE12485DD007D015
:0BA32D0006D005D00412A105D2AF221B
:01B119002213
:10AD5200C2AF7F011247EC125B2A7F087E007D079B
:08AD62007C71125B21D2AF22CB
:105B10008CFB8DFA8EF98FF6ACFFADFEAEFDAFFCBF
:105B2000228CFB8DFA8EF98FF7228CFF8DFE8EFD75
:035B30008FFC22C5
:10656000C2AF90E2DE121610EF2478FFE43EFEE4A4
:106570003DFDE43CFC22E4754E01F54DF54CF54B38
:10658000755201F551F550F54F2290E2DE121610CA
:10659000EF54107B10FFE4FEFDFCFAF9F8C302157E
:1065A00063EFF0E4FCFDFEFBFA7901F8121411E44C
:1065B0002FFFE43EFEED341EFDEC3471FC2290E230
:1065C000DF121610EF5401FFE4FEFDFC22E4754ECD
:1065D00011F54DF54CF54B2290E2DE121610EF222C
:1065E000E4FCFDFEEF5401FFE4021587C2AF90E228
:1065F000EA121610EF22C2AF90E2E2121610EF2458
:106600009822E4FCFDFEEF5401FFE42290E2DF0259
:106610001610EFF090E2E3021610C2AF90E2DE1225
:106620001610EF227552037551017550FF754FFF1B
:1066300022C2AF90E2F2121610EF24542212153B40
:106640008F4E8E4D8D4C8C4B2224EAF582E434E43F
:10665000F583227804121574EF5401FF225420FFB1
:10666000E4FEFDFC7B20225440FFE4FEFDFC7B4069
:10667000225480FFE4FEFDFC7B80225404FFE4FEF4
:05668000FDFC7B04227B
:0872F10090E2F1EDF090E2F0F3
:1072F9001265A190E2F212169690E2F0E0FF12AF49
:107309004390E2F6EFF090E2F1E0FE90E2F0E01255
:107319006649EEF0BF021812663112656B754E03AD
:10732900754D01754C01754B001266240273C31229
:10733900663112656BC004C005C006C00790E2F152
:10734900E06006E47FA0FE8004E47F20FEE4FDFC0B
:107359007810121587C004C005C006C00790E2F670
:10736900E0B409047F0180027F00EF60047F01809F
:10737900027F0078011265E0D003D002D001D0006D
:1073890012153BC004C005C006C00790E2F6E0B480
:1073990009047F0180027F00EF60047F0180027F82
:1073A90000126602D003D002D001D00012663D124D
:1073B9006624D007D006D005D00412A105D2AF7F2C
:0473C9003202AE2CB2
:054D2F0090E2DEEFF050
:104D340090E2E974FF1265A290E2EA12169690E2FC
:104D4400DEE0FF12AF4390E2EEEFF0C207C208C20A
:104D5400AF90E2EA126565124F2A780412157412B4
:104D640065C4EF700A1265BEEF70047F0180027F94
:104D74000090E2E7EFF01265EC247012656B125BB1
:104D84001090E2DF121696D2AF90E2E7E0601B12B9
:104D940065BEEF600912660C126653E48002E4FFFC
:104DA400FEFDFC90E2E7EFF08016C2AF90E2EA125B
:104DB40065651265CD75521112658312A105D2AFD6
:104DC40012660CEF54017B011265957003D38001C8
:104DD400C392071265EC246812656B124F2AEF54D4
:104DE40001FF90E2E8EFF020086F90E2EEE0640942
:104DF400706790E2E8E0606112660C781512157431
:104E04001265C4FB12659A70501265EC2448126551
:104E14006BE4F54E12657A12A105D2AF7F3212AE61
:104E24002C1265EC244812656B12657612A105D22A
:104E3400AF90E2DEE0FF126649E0FD1272F1C2AF0C
:104E440090E2EA1265651265CD75521112658312FE
:104E5400A105D2AFD208024D5312660C7810121578
:104E640074E4FDFC90E2E312169690E2EEE0640234
:054E74006003024EFD89
:104E7900126614E4FFEE5480FEEC7B007A8079FF21
:104E890078FFC312156370047F0180027F0090E2EE
:104E9900EF126612780A121574EF5403FF90E2E9D3
:104EA900126612E4FFEE5410FEE4FDFCEE60030FFF
:104EB90080027F00EF600790E2E9E04410F012669B
:104EC9000CEF5480FFEF60047F0180027F00EF60E8
:104ED9000790E2E9E04420F090E2E7E0600890E220
:104EE900EFE090E2E7F090E2E7E0702F90E2E974FA
:024EF900FFF0C8
:104EFB00802790E2E7E06021A3E0601DA37412120B
:104F0B006613EF5480FFEF60047F0180027F00EF98
:0E4F1B00600790E2E9E04420F090E2E9E0FF58
:104F290022125B1090E2DF121696D2AF90E2DF12E6
:034F39001610222D
:10608B001265A390E2E212169690E2E674FFF0120C
:10609B0065F612656B1261C112658A70047F01800F
:1060AB00027F00EF70501265D812665D12659A7010
:1060BB00047F0180027F00EF703C1265D812666787
:1060CB0012659A70047F0180027F00EF70281265C1
:1060DB00D812667112659A70047F0180027F00EFFF
:1060EB0070141265D812667B12659A70047F01805A
:1060FB00027F00EF60261265F612656BE4754EF0B9
:10610B001265D17552F012658312A105D2AF7F01D2
:10611B0012AE2C1265F612656B1261C11265D85462
:10612B0002FFE4FEFDFC7B0212659A70047F018086
:10613B00027F00EF607A90E2DE1265C17B0112658F
:10614B009A70047F0180027F00EF606412658A7091
:10615B00047F0180027F00EF70561265D812665DD6
:10616B0012659A70047F0180027F00EF7042126506
:10617B00D812666712659A70047F0180027F00EF68
:10618B00702E1265D812667112659A70047F0180A9
:10619B00027F00EF701A1265D812667B12659A7037
:1061AB00047F0180027F00EF700690E2E67411F02D
:0561BB0090E2E6E0FFA8
:0D61C00022125B1090E2DE121696D2AF2282
:108E730090E2E9EDF0C2AF1265A3C004C005C006DD
:108E8300C00790E2E9E070047F0180027F0078046C
:108E93001265E0C004C005C006C00790E2E9E070B7
:108EA300047F0180027F001266027805121587D0C5
:108EB30003D002D001D00012153BC004C005C00688
:108EC300C00790E2E9E070047F0180027F00126630
:108ED300027803121587D003D002D001D0001266A6
:108EE3003DE4755238126583D007D006D005D0040F
:0A8EF30012A105D2AF7F0102AE2CE0
:08580C0090E2DCEDF090E2DB1C
:105814001265A190E2DD12169690E2DCE024FE60AF
:105824006324FA70030258C824FD6007240260034D
:1058340002591BC2AFE4754E011265D175520312B1
:10584400658312593EEF242012656B1265CD7552A3
:1058540011126583125978244812656B1265761209
:105864005978244C12656BE4F54E1265D1755211CA
:10587400126583125987EF245412656BE4F54EF5D3
:105884004D0258BAC2AFE4754E011265D175520388
:1058940012658312593EEF244812656B1265761225
:1058A4005987EF244C12656B12591C245412656BF2
:1058B400E4F54E754D0112595C249412656BE4F5C0
:1058C4004E025913C2AFE4754E021265D1755203EC
:1058D40012658390E2DD12161012A105D2AF90E298
:1058E400DBE0FF7D01128E73C2AF90E2DD12161071
:1058F400EF242012656B12591C245412656BE4F5D5
:105904004EF54D12595C249412656BE4754E0112E8
:07591400657A12A105D2AF74
:10591B0022E4754E01F54DF54CF54B755211F551D1
:10592B00F550F54F12A105D2AFC2AF90E2DD1216C2
:10593B0010EF2290E2DD12161012A105D2AF90E209
:10594B00DBE0FF7D01128E73C2AF90E2DD12161009
:10595B0022F54CF54BF552755101F550F54F12A14F
:10596B0005D2AFC2AF90E2DD121610EF2212A105E5
:10597B00D2AFC2AF90E2DD121610EF2212A105D208
:0A598B00AFC2AF90E2DD1216102249
:107EC0001265A390E2DE12169690E2E674FFF012BD
:107ED0006560127F621265C1EF60331265601265E2
:107EE0007612A105D2AF12661A244812656BE4F52A
:107EF0004E12657A12A105D2AF7F0512AE2C126622
:107F00001A244812656B12657612A105D2AF12656C
:107F100060127F6212161078041215741265C4EF95
:107F20006015126560E4754E101265D1755210121D
:107F3000658312A105D2AF12661A247012656B1206
:107F40005B1090E2E2121696D2AF90E2E2121610A7
:107F5000126653EF600690E2E67413F090E2E6E0FA
:017F6000FF21
:107F610022125B1090E2E2121696D2AF90E2E22268
:10780700E4FCFDFEEF5401FFE41215878F4E8E4D09
:107817008D4C8C4B22E4FCFDFEEF5401FFE4221259
:107827001610EC4D4E4F22C2AFE4F54EF54DF54C18
:10783700F54B22121610EF5407FFE4FEFDFC22C29F
:10784700AF7F887E007D0D7C7122121610EF543FAA
:10785700FFE4FEFDFC22121610781F121574EF5478
:1078670001FFEF22121610EF540FFFE4FEFDFC7824
:107877000D22C2AF7F087E017D0D7C71221216108A
:10788700EF5403FFE4FEFDFC22F551F550F54F22BE
:107897007552007551E0755001754F0022E4F5529D
:1078A700F551F55022C2AFE4F54EF54DF54C2212D5
:1078B700153BA804A905AA06AB0722E4F552F55122
:1078C700755007F54F22FFEC8F4E8E4D8D4CF54BC3
:0178D700228E
:10A84E00C2AFEC5401FCEC4480FC125B2A12787B04
:10A85E00125B21D2AF127879125B1090E39512162B
:0BA86E0096D2AF90E39512785D70EA7F
:01A8790022BC
:10A68100C2AFEC5401FCEC4440FC125B2A12787B13
:10A69100125B21D2AF127879125B1090E3951216FA
:10A6A10096D2AF90E395121610781E12786270E57B
:01A6B1002286
:0600160090E2E0EFF0FBB8
:10001C0090E2E51216A20000000090E2E91216A28E
:10002C000000000090E2ED1216A20000000090E229
:10003C00F11216A20000000090E2F51216A20000C8
:10004C00001890E2F91216A20000000090E2FD12D6
:10005C0016A20000000290E3011216A2000000009C
:10006C0090E3051216A20000000390E3091216A2F9
:10007C000000000790E30D1216A20000000090E3B0
:10008C00111216A20000000090E3151216A2000037
:10009C00000090E3191216A20000000090E31D125C
:1000AC0016A20000007890E3211216A200000000B6
:1000BC0090E3251216A20000000090E3291216A26C
:1000CC000000000090E32D1216A20000000090E347
:1000DC00311216A20000000390E3351216A20000A4
:1000EC00000090E3391216A20000000090E33D12CC
:1000FC0016A20000000090E3411216A200000001BD
:10010C0090E3451216A20000000190E3491216A2DA
:10011C000000000190E34D1216A20000000190E3D4
:10012C00511216A20000000190E3551216A2000015
:10013C00000190E3591216A20000000490E35D1236
:10014C0016A20000000090E3611216A2000000004D
:10015C0090E3651216A20000000190E3691216A24A
:10016C000000000190E36D1216A20000000190E364
:10017C00711216A20000000190E3751216A2000085
:10018C00000090E3791216A20000000090E37D12AB
:10019C0016A20000000090E3811216A200000000DD
:1001AC0090E3851216A20000000090E3891216A2BB
:1001BC000000001F90E38D1216A20000000190E3D6
:1001CC00911216A20000001FEB121708064F000533
:1001DC00B00202A70503360603C507042508054A25
:1001EC0009062D1106391201FA1300000C6890E271
:1001FC00E51216A20000000090E2E91216A200001F
:10020C00000090E2F11216A20000000090E2F5123C
:10021C0016A20000003F90E30D1216A20000000091
:10022C0090E3111216A20000000090E3191216A21E
:10023C000000000090E31D1216A20000003C90E3A9
:10024C00251216A20000000090E3291216A200004D
:10025C00000190E32D1216A20000000090E3311271
:10026C0016A20000000190E3351216A20000000057
:10027C0090E3051216A20000000390E3391216A2B7
:10028C000000000190E33D1216A20000000190E274
:10029C00FD1216A20000000302068B90E2E5121676
:1002AC00A20000000090E2E91216A20000000090EB
:1002BC00E2F11216A20000000090E2F51216A20064
:1002CC0000003F90E30D1216A20000000090E31115
:1002DC001216A20000000090E3191216A2000000F2
:1002EC000190E31D1216A20000003090E3251216B7
:1002FC00A20000000190E3291216A2000000019058
:10030C00E32D1216A20000000090E3311216A20099
:10031C0000000190E3351216A20000000090E305E6
:10032C001216A20000000402068B90E2E51216A23F
:10033C000000000090E2E91216A20000000090E21A
:10034C00F11216A20000000090E2F51216A20000B5
:10035C00001890E30D1216A20000000090E3111299
:10036C0016A20000000090E3191216A20000000073
:10037C0090E31D1216A20000007890E3251216A23D
:10038C000000000090E3291216A20000000090E388
:10039C002D1216A20000000090E3311216A20000EC
:1003AC00000390E3351216A20000000090E3051242
:1003BC0016A20000000502068B90E2E51216A200C0
:1003CC0000000190E2E91216A20000000090E2F198
:1003DC001216A20000000290E2F51216A200000014
:1003EC003090E30D1216A20000000090E3111216DB
:1003FC00A20000000090E3191216A2000000009069
:10040C00E31D1216A20000003C90E3251216A20078
:10041C0000000090E32902059D90E2E51216A2006F
:10042C0000000190E2E91216A20000000190E2F136
:10043C001216A20000000090E2F51216A2000000B5
:10044C003090E30D1216A20000000090E31112167A
:10045C00A20000000090E3191216A2000000009008
:10046C00E31D1216A20000003C90E3251216A20018
:10047C0000000090E3291216A20000000090E32D6A
:10048C001216A20000000190E3311216A200000027
:10049C000190E3351216A20000000190E301121640
:1004AC00A20000000290E2FD1216A20000000A90C9
:1004BC00E34D1216A20000000090E3551216A200A4
:1004CC0000000090E3751216A20000000190E37981
:1004DC001216A20000000190E37D1216A20000008B
:1004EC000190E3811216A20000000190E365121640
:1004FC00A20000000090E3691216A2000000009018
:10050C00E36D1216A20000000090E3711216A20017
:10051C0000000090E3851216A20000000090E38911
:10052C001216A20000001F90E38D1216A20000000C
:10053C003F90E3911216A20000001F02068B90E27E
:10054C00E51216A20000000090E2E91216A20000CB
:10055C00000190E2F11216A20000000290E2F512E6
:10056C0016A20000003090E30D1216A2000000004D
:10057C0090E3111216A20000000090E3191216A2CB
:10058C000000000090E31D1216A20000003C90E356
:10059C00251216A20000000090E32D1216A20000F6
:1005AC000001806E90E2E51216A20000000090E2BD
:1005BC00E91216A20000000090E2F11216A200004F
:1005CC00000090E2F51216A20000003F90E30D121D
:1005DC0016A20000000190E3111216A20000000107
:1005EC0090E3191216A20000000190E31D1216A24E
:1005FC000000003090E3251216A20000000190E3E9
:10060C00291216A20000000190E32D1216A2000080
:10061C00000090E3311216A20000000190E3358037
:10062C005790E2F91216A200000001805290E35D8F
:10063C001216A20000000290E3611216A20005F24D
:10064C0089803C90E3411216A20000000090E34523
:10065C001216A20000000090E3491216A20000003E
:10066C000090E34D1216A20000000090E351121608
:10067C00A20000000090E3551216A20000000090AA
:10068C00E2E112161012A681C2AF90E2F91278269E
:10069C0060047F0180027F00781F1278071278A413
:1006AC00754F80120DB990E2E0E0B41104A3020C76
:1006BC0062C2AF90E361121610125B2A7F9C127813
:1006CC004A125B21D2AFC2AF90E35D12783A781038
:1006DC001278101278C27F90120E031278AE120CA0
:1006EC00EAE4F54E120CCEC2AF90E34D12782660C0
:1006FC00047F0180027F00E4FCFDFEEF5401FFE467
:10070C00C004C005C006C00790E3491278266004F7
:10071C007F0180027F0012781C7805121587D003A8
:10072C00D002D001D00012153BC004C005C006C0D9
:10073C000790E35112782660047F0180027F00123B
:10074C00781C7802121587D003D002D001D0001289
:10075C00153BC004C005C006C00790E355127826AF
:10076C0060047F0180027F0012781C7801121587CB
:10077C00D003D002D001D00012153BC004C005C07C
:10078C0006C00790E34112782660047F0180027F47
:10079C000012781C7804121587D003D002D001D037
:1007AC000012153B127813E475523F1278907FC0FB
:1007BC00120C8D120E10C2AF90E2E5127826600476
:1007CC007F0180027F0012781C781E12781012783C
:1007DC00A4754F40120DB9C2AF90E2E9127851786E
:1007EC0017127810E4F552F551755080754F1F12A1
:1007FC000DC690E2ED121610EF541FFFE4FEFDFC47
:10080C007812127810E4F552F55175507CF54F12B0
:10081C000DC690E2F112783A7806127810E475520F
:10082C00C0755101120D9390E2F5121610EF543F62
:10083C00FFE48F4E12783375523FF551120D9390A1
:10084C00E2FD12786B1278101278977FBC120DE4CF
:10085C0090E3011278847808127810E4F5527551FF
:10086C0003120D5290E30512783A7801127810E4D5
:10087C0075520EF551120D52127830F55275518099
:10088C00755003120DD5120C6990E379127826601D
:10089C00047F0180027F0012781C7802121587C039
:1008AC0004C005C006C00790E37512782660047F6B
:1008BC000180027F0012781C7803121587D003D0B8
:1008CC0002D001D00012153BC004C005C006C00701
:1008DC0090E37D12782660047F0180027F001278FD
:1008EC001C7801121587D003D002D001D0001278E9
:1008FC00B690E38112782660047F0180027F00129B
:10090C00781C12153B127813E475520F120D1790C8
:10091C00E36912782660047F0180027F0012781C44
:10092C007806121587C004C005C006C00790E365A1
:10093C0012782660047F0180027F0012781C7807F1
:10094C00121587D003D002D001D00012153BC00481
:10095C00C005C006C00790E36D12782660047F01C5
:10096C0080027F0012781C7805121587D003D00204
:10097C00D001D00012153BC004C005C006C00790C2
:10098C00E37112782660047F0180027F0012781CCC
:10099C007804121587D003D002D001D00012153B79
:1009AC00127813E47552F0120D1790E359121610C9
:1009BC00EF5407FFE48F4E1278337552071278907C
:1009CC007FC8120E0390E389127851780C121587A8
:1009DC00C004C005C006C00790E385127851781298
:1009EC00121587D003D002D001D00012153BC004E1
:1009FC00C005C006C00790E38D1278517806121519
:100A0C0087D003D002D001D0001278B690E39112B7
:100A1C00785112153B12781374FF1278A5754F009C
:100A2C007FCC120DE4E4F54EF54D754C01120D65BD
:100A3C00C2AF90E30D1278847804127810E47552EA
:100A4C0030120D7E90E31112782660047F01800233
:100A5C007F00EF5401FFE48F4E1278337552011270
:100A6C000D7E90E31512782660047F0180027F00D2
:100A7C00780F127807E4F552755180120D0490E34B
:100A8C001912782660047F0180027F0012781C788E
:100A9C000E127810E4F552755140120D0490E31DBE
:100AAC00121610E4FEFDFC7806127810E47552C0A4
:100ABC0075513F120DA690E32112782660047F0138
:100ACC0080027F0012781C7801127810E4755202B3
:100ADC00F551120DA690E32512782660047F018053
:100AEC00027F00EF5401FFE48F4E127833755201F0
:100AFC001278907FE8120C8D12782EF552755130C9
:100B0C00120D3FE4F54EF54D754C02120CEA90E3D4
:100B1C004512782660047F0180027F0012781C78D1
:100B2C000E127810E4F552755140120D3F90E329E6
:100B3C0012782660047F0180027F0012781C7803F3
:100B4C00127810E4755208120CB990E32D12782625
:100B5C0060047F0180027F0012781C7802127810EA
:100B6C00E4755204120CB990E331121610EF5403D1
:100B7C00FFE48F4E1278337552031278907FE4FEA7
:100B8C007D0D7C7112A105D2AFC2AF90E335127806
:100B9C002660047F0180027F0012781C780812788E
:100BAC0010E4F552755101120DF2C2AF90E33912F7
:100BBC00782660047F0180027F0012781C78051271
:100BCC007810E4755220120D2CC2AF90E33D1278D0
:100BDC002660047F0180027F0012781C7804127852
:100BEC0010E4755210120D2C120E10C2AFE4754E9B
:100BFC0020120CCE120E1A7F1412AE2CC2AFE4755A
:100C0C004E08127833755208F551F550120DD51265
:100C1C00782E755201F551120DF2120E1A7F3C12FC
:100C2C00AE2C120C6990E30912783A780F127810F6
:100C3C00755200755180755003754F007FC0127846
:100C4C004A12A105D2AFC2AFE4F54E754D30F54C4A
:0C0C5C00120D6590E2E112161012A84E75
:100C680022C2AFE4F54EF54DF54CF54B7552807543
:100C78005101F550F54F7FC0FE7D0D7C7112A10525
:100C8800D2AFC2AF22FE7D0D7C7112A105D2AFC2D8
:100C9800AFE4754E01F54DF54CF54B755201F55124
:100CA800F550F54F7FA8FE7D0D7C7112A105D2AFDE
:100CB80022F551F550F54F7FE4FE7D0D7C7112A1B0
:100CC80005D2AFC2AF22F54DF54CF54B755220F564
:100CD80051F550F54F7FE8FE7D0D7C7112A105D2CC
:100CE800AF22F54BF552F551755002F54F7FE4FEF2
:100CF8007D0D7C7112A105D2AFC2AF22F550F54F20
:100D08007FE8FE7D0D7C7112A105D2AFC2AF22F53E
:100D180051F550F54F7FC4FE7D0D7C7112A105D2AF
:100D2800AFC2AF22F551F550F54F7FA8FE7D0D7C7F
:100D38007112A105D2AF22F550F54F7FE4FE7D0D6B
:100D48007C7112A105D2AFC2AF22F550F54F7FBC1E
:100D5800FE7D0D7C7112A105D2AFC2AF22F54BF515
:100D6800527551F0755001F54F7FC4FE7D0D7C71B1
:100D780012A105D2AF22F551F550F54F7FE0FE7D67
:100D88000D7C7112A105D2AFC2AF22F550F54F7F8D
:100D9800DCFE7D0D7C7112A105D2AFC2AF22F550E9
:100DA800F54F7FE8FE7D0D7C7112A105D2AFC2AF71
:100DB800227FD8FE7D0D7C7112A105D2AF227FD88B
:100DC800FE7D0D7C7112A105D2AFC2AF22F54F7F17
:100DD800C0FE7D0D7C7112A105D2AF227E007D0D73
:100DE8007C7112A105D2AFC2AF22F550F54F7FA892
:100DF800FE7D0D7C7112A105D2AF22FE7D0D7C71A6
:100E080012A105D2AFC2AF2290E2E112161012A8C9
:0C0E18004E2290E2E112161012A84E22A9
:10A79B0090E2E11216A2000000017F061200169053
:10A7AB00E2DC1216A2000000107F0712367B90E24B
:0DA7BB00E11216A2000000067F0502001644
:10AE6700C00790E2DC12161090E2E1121696D007A6
:03AE7700020016C0
:10A7C800C2AFEE5401FEE4FD7480FC125B2A1278DD
:10A7D80048125B21D2AF127846125B1090E3041244
:0CA7E8001696D2AF90E30412785D70EA80
:01A7F4002242
:10A5BA00C2AFEE5401FEE4FD7440FC125B2A12782D
:10A5CA0048125B21D2AF127846125B1090E3041254
:10A5DA001696D2AF90E304121610781E12786270A3
:01A5EA00E58B
:01A5EB00224D
:06367B0090E2DBEFF0FB22
:1036810090E2E07401F0E4A3F0A3F0A3F0A312161A
:10369100A20000000090E2E81216A20000000090D3
:1036A100E2EC1216A20000000290E2F01216A20053
:1036B10000000690E2F41216A20000000090E2F869
:1036C1001216A20000000090E2FC1216A2000000F7
:1036D1000290E3001216A200000001EB607024F8D2
:1036E100601D14605D24F8607614607B240B600318
:1036F10002397590E2E41216A20000000C807C9061
:10370100E2E41216A20000000C90E2E17401F090D4
:10371100E2E81216A20000000290E2EC1216A200EA
:1037210000000390E2E27401F090E2F01216A200B0
:1037310000000090E2FC1216A20000000A90E300D3
:10374100801490E2E41216A20000000F802DE49094
:10375100E2E0F090E2E41216A200000000801C906A
:10376100E2E37401F0801490E2F41216A20000006A
:103771000290E2F81216A20005F28990E2DC12161C
:103781001012A5BAC2AF90E2E3E060047F018002AB
:103791007F0012781C7809127810E4F552755102F5
:1037A100F550F54F7F58FE7D0D7C7112A105D2AF0A
:1037B10090E2DBE0B41104A302396FC2AF90E2F8EA
:1037C100121610125B2A7F7412784A125B21D2AF53
:1037D100C2AF90E2F412783A78101278101278C2DF
:1037E1007F6812399490E2E412786B1278101278A3
:1037F100977F5412784A1239AB90E3001278266011
:10380100047F0180027F0012781C780D121587C099
:1038110004C005C006C00790E2E1E060047F0180BA
:10382100027F0012781C781B121587D003D002D0BA
:1038310001D00012153BC004C005C006C00790E2CC
:10384100E2E060047F0180027F0012781C780C1294
:103851001587D003D002D001D00012153BEF440DE3
:103861001278CD75520F755130755000754F087F24
:103871005012784A1239AB90E2E8127884780B1230
:103881001587C004C005C006C00790E2FC12786B22
:10389100121587D003D002D001D00012153BC0040D
:1038A100C005C006C00790E2EC12783A78081215FC
:1038B10087D003D002D001D00012153BC004C0054F
:1038C100C006C00790E2F012783A7805121587D049
:1038D10003D002D001D00012153B1278137552E0CB
:1038E1007551FF12789D7F4C12784A12A105D2AF13
:1038F100C2AF90E2E1E060047F0180027F001278B4
:103901001C7808121587EF44011278CDE475520135
:10391100755101123976C2AFE4754E801278337554
:1039210052801278907F6012399490E2E0E0600456
:103931007F0180027F0012781C7812127810E4F562
:1039410052F551755004F54F1239871239A1127889
:10395100AC754B801278A5754F801239871239A149
:1039610012782E755201F55112397690E2DC121659
:043971001012A7C8C1
:1039750022F550F54F7F7CFE7D0D7C7112A105D29D
:10398500AF227F5CFE7D0D7C7112A105D2AF22FEB8
:103995007D0D7C7112A105D2AFC2AF2290E2DC127F
:0E39A500161012A7C82212A105D2AFC2AF227F
:107F7100C2AFE4F54E754D76F54CF54B7552FF7574
:107F810051FFF550F54F7F1012801412782EF552E3
:107F9100755180F550128006C2AFE4F54EF54D756E
:107FA1004C38F54BF552F55175507C12800612781C
:107FB100AC754B02F552F551755080754F07FF12A4
:107FC1008014C2AFE4754E02127833127FF07F0243
:107FD10012AE2C12782E127FF07F3212AE2CC2AF6D
:0E7FE1007F1C12784A125B10D2AFEF5401FFE2
:107FEF0022755202F551F550F54F7F08FE7D0D7C3D
:107FFF007112A105D2AF22F54FFFFE7D0D7C7112DC
:10800F00A105D2AF22FE7D0D7C7112A105D2AF2248
:10900C002020202020202020202D000102030300FE
:10901C00010041040400000040070700030043085E
:10902C0008000200022121001000461E1E0007004D
:10903C004522230011FFFF0909000900470A0A0015
:10904C000A00480B0B000B00490C0C000C004A0DDD
:10905C000D000D004B0E0E000E004C0F1000070003
:10906C0044111200040045131F000F00811420004E
:10907C0005005E15230006FFFF12230080FFFF167C
:05908C00230013FFFFAB
:102B6C0041E4C1004CE4CE004700480049004A0053
:102B7C004B004C4CE4C20009000A000B000C000D89
:022B8C00000E39
:0AB033007E0190E2D37406F0A32220
:0A91970090E2E4ECF0A3EDF0AB076A
:1091A100A31216A200000000C390E2E4E0648094E0
:1091B100F04006E4FFFEFDFC22C2AFAF03E48F4E98
:1091C100F54DF54CF54B7552FF755103F550F54FC3
:1091D1007F787E057D017C7112A105D2AF90E2E41A
:1091E100E0FEA3E0FFEE3395E0FDFCE47B04FAF939
:1091F100F8121411E42FFFE43EFEED3401FDEC34CE
:1092010071FCC2AF125B1090E2E6121696D2AF90DB
:05921100E2E612161058
:019216002235
:0588E80090E2DBEFF05F
:1088ED00ED64414C70087B017AE479CE800CED6427
:1088FD00014C700E7B017AE479C290E2E11216FF11
:10890D00800890E2DBE0FF029197E490E2E0F090C6
:10891D00E2DC1216A20000000090E2DC121629C063
:10892D0000C001C002C00390E2E11216DF90E2E048
:10893D00E075F002A4F58285F083121372FDACF0A0
:10894D0090E2DBE0FF129197D003D002D001D0006E
:10895D001213F690E2DC12169690E2E0E004F0E0DD
:0B896D00C3940640B490E2DC12161028
:0189780022DC
:10ACD300C2AFE4FCFD741CFEE4125B2A7F787E05A0
:0AACE3007D017C71125B21D2AF22CB
:055C870090E2D0EFF0F7
:105C8C00E4A3F090E2D1E0FFC394144003025DC999
:105C9C00E4FEEF70140E90E2D3740AF0A37417F0C4
:105CAC00A37419F0A314F08026EFB4071012B033CC
:105CBC007419F0A37411F0A3741AF08012EFB40DE0
:105CCC000E12B033741BF0A37411F0A3741CF0EE1D
:105CDC006021125DCA12A6B2125DDB12A6B2125D71
:105CEC00CA12AED212AC66125DDB12AED212AC6628
:105CFC0012B047E490E2D2F090E2D1E075F006A445
:105D0C00241BF582E43490F583C083C08290E2D2E8
:105D1C00E0FBD082D08375F0021216D3E493FE74AC
:105D2C000193FFEE3395E0FDFC90E2D7121696EB53
:105D3C00540190901793FF12A6B290E2D2E0FF901C
:105D4C00E2D1E075F006A42419F582E43490F583D1
:105D5C00E5822FF582E43583F583E493FF7D1712FA
:105D6C00A6E174FFFFFEFDFC90E2D7121629C312C8
:105D7C001563601790E2D7121610AD07AC0690E2CF
:105D8C00D0E0FF1288E812AFA780097BFF7A9079E8
:105D9C000C12ABD77F0212ACED90E2D2E004F0E033
:105DAC00C394025003025D0412B04790E4C1E0605A
:0D5DBC0003E4F02290E2D1E004F0025C8FDD
:105DC9002212B04790E2D3E0FF12ACED90E2D4E0AA
:105DD900FF2290E2D5E0FF12ACED90E2D6E0FF227F
:108BB800C2AF90E2E7E0FF7E007C007D04121768F8
:108BC800EF2410FFEE3401FEED3407FDEC3471FCA8
:108BD800221216108F4E8E4D8D4C8C4B90E2CE1279
:108BE80016108F528E518D508C4F22E0F9F81215C5
:108BF80087ED543FFDE48F4E8E4D8D4C22FFE4FCF3
:108C0800FDEE540FFEE4780C02158790E2EAE0A42A
:108C1800FFEF540FFFE4FEFDFC22C2AFE4F54EF572
:108C28004DF54CF54B22AB07E47F01FEFDFC22F528
:0D8C38004B7552FF7551FF75503FF54F22EF
:056F630090E2CDEDF00D
:106F6800128C2EA803121587A3121696128C2212C1
:106F78008BE47F4C12703290E2CDE024FD50086023
:106F88003F146050026FFC128C22126FFD7F581262
:106F98007032C2AF90E2CDE07006A31216108005E1
:106FA800E4FFFEFDFC128BDC7F4412703E90E2CDC4
:106FB800E06402703FC2AFA3128BD97F4C026FF11D
:106FC800C2AF90E2CE121610128BFE8C4B126FFDE0
:106FD8007F588015128C22128BE47F5412703EC2A7
:106FE800AF90E2CE128BD97F587E007D077C71125C
:046FF800A105D2AF6E
:106FFC002290E2CE1216108F528E518D508C4F7FF4
:10700C00547E007D077C7112A105D2AFC2AFE4F5AE
:10701C004EF54DF54CF54B90E2CE1216108F528E6C
:10702C00518D508C4F227E007D077C7112A105D2B0
:0E703C00AF227E007D077C7112A105D2AF222B
:10A1C700128C2EA80312158790E2DD121696C2AFE5
:10A1D7007F407E007D077C71125B1090E2E11216D2
:10A1E70096D2AF90E2DD12161090E2E11216291214
:0EA1F700152EEC4D4E4F60047F0180027F005C
:01A205002236
:10A5EC0090E2DDEFF0ED600FC2AF128C30128BF306
:10A5FC00128C377F348010C2AF128C3090E2DD1297
:10A60C008BF3128C377F38FE7D077C7112A105D23B
:02A61C00AF226B
:0B5DE90090E2E7EFF0A3EAF0A3EBF07C
:105DF400E4A3F0ED14604D147003025E9614700376
:105E0400025EE024036003025F35128BB8C004C055
:105E140005C006C007A3E0FEA3E0128C05A804A9F0
:105E240005AA06AB07A3E0540FFFE4FCFDFE121520
:105E34003B128BFE8C4BE4755201755170F550F595
:105E44004F025F28128BB8C004C005C006C007907B
:105E5400E2EAE025E0128C18C004C005C006C007C1
:105E640090E2E8E0FEA3E07803C333CE33CED8F962
:105E7400128C05D003D002D001D00012153B128B36
:105E8400FE8C4B755202755180755003754F00029C
:105E94005F28128BB8C004C005C006C00775F004A3
:105EA400128C13C004C005C006C00790E2E8E0FEEF
:105EB400A3E07806C333CE33CED8F9128C05D003D1
:105EC400D002D001D00012153B128BFE8C4B7552C0
:105ED4000475510075501C754F008048128BB8C072
:105EE40004C005C006C00775F008128C13C004C0B6
:105EF40005C006C00790E2E9E07F0025E0FEEE540D
:105F04000FFEED780C121587D003D002D001D0001B
:105F140012153B128BFE8C4B75520875510075504F
:105F2400E0754F00D007D006D005D00412A105D2E9
:065F3400AF7F0102AE2C5C
:107CA500E490E2CBF090E2CBE0FFC39404500D7D6D
:107CB50003126F6390E2CBE004F080E9C2AF7F80EE
:107CC5007EF47D397C00125B2A7F08127D4EC2AF9F
:107CD500E4F54E754D32F54CF54BF5527551FF7582
:107CE500500FF54F7F0C7E017D077C7112A105D2E7
:107CF500AFC2AF7FFF7E0D7D007C00125B2A7F90B7
:107D0500127D4EE490E2CBF090E2CBE0F9C3940B08
:107D15005036E47FFF7E0DFDFCA801121574EF546B
:107D250001FFE4FEFDFCEF6017E0FF7B017A001226
:107D35005DE990E2CBE0FF7B017A007D01125DE910
:087D450090E2CBE004F080C0E5
:0D7D4D00227E017D077C71125B21D2AF22E6
:102B8E0048E4DA00AB00AB0057001F48E4E2037DD7
:062B9E00037D00A9004BBD
:109E6900C2AF90E2D1E0FFE4FCFDFEFBFA7901F814
:109E7900121411E42FFFE43EFEED341EFDEC3471A3
:109E8900FCEF22F583E0FEA3E0FFE48F4E8E4DF553
:109E99004CF54B74FFF552F551F550754F002224DE
:109EA90010FFE43EFEE43DFDE43CFC2290E2D202D8
:029EB90016DFB2
:109A840090E2CC7401F090E2CBF090E2CBE0FFD313
:109A9400940B5040EF94084017EF940B501290E24F
:109AA400CDE4F0A37457F0A3E4F0A374A9F08010FC
:109AB40090E2CDE4F0A3741FF0A3E4F0A3744BF0A0
:109AC40012AD977B017AE279CC12897990E2CBE0EE
:109AD40004F080B6E4FF129D6D7F01129D6D7F023C
:039AE400029D6D73
:1089790090E2D1EFF0A31216FFC2AF121299600470
:108989007F0180027F00E4FCFDFEEF5401FFE478E3
:10899900021215878F4E8E4D8D4C8C4BE475520407
:1089A900F551F550F54F7FA0FE7D0E7C7112A105A2
:1089B900D2AF129EB51212996046129E69129EA8F4
:1089C900C006C007129EB5900001121372FFAEF0E7
:1089D900129E93D007D00612A105D2AF129E692428
:1089E90014129EAAC006C007129EB5900003121366
:1089F90072FFAEF0129E93D007D00612A105D2AF36
:018A0900224A
:059AE70090E2DEEFF04B
:109AEC0012AD20EF540390E2DFF0C2AF90E2DE1231
