:0C2B2C00C10901550001560002530000D1
:10A21A007E007D107C7022F54DF54CF54B22F551F0
:0FA22A00F550F54F22FC8F4E8E4D8D4C8C4B22F4
:1065B500E4754EC012A2217552C012A2287F54FE66
:1065C5007D077C711298F8E4754E8312A2217552ED
:1065D500831266777F881266A27F0012A21A12576D
:1065E5002B7F001266A27F0412A21A12572BE4F524
:1065F5004E12A221755280126677E4754E0712A2DB
:106605002175520712A2287F08FE7D107C70129812
:10661500F8E4754E0112A22175520112A2287F04D9
:10662500FE7D10126696C0E0EDC0E0EEC0E0EFC062
:10663500E0126688D0E0FFD0E0FED0E0FDD0E012A9
:10664500A22F7F9C7E007D00126696C0E0EDC0E023
:10665500EEC0E0EFC0E0126688D0E0FFD0E0FED0EB
:10666500E0FDD0E012A22F7F907E007D007C7002BD
:1066750098F8F551F550F54F7F0CFE7D107C7012A2
:1066850098F8227F0612574E8F528E518D508C4F9F
:10669500227C701298F87F0612574EEC227E007D00
:0766A500007C0012573422B3
:10849D00C2AF7F0812851AE529540FFFE48F29F525
:1084AD0028F527F5267F04FEFDFCAB29AA28A92770
:1084BD00A826C3121563600EE47F0CFEFDFCA826F2
:1084CD00C312156370447F0012851AE5552401FD12
:1084DD00E433FCE5566D7001EC7004D209800E7426
:1084ED005B2555F8EFF6E55504541FF5557F14122D
:1084FD00A21A12571A8F298E288D278C267B007A67
:0C850D00007926E4FF12581940BCD2AFE0
:10851900227E007D107C7012571A8F298E288D2794
:038529008C26227B
:0BA67000E55565566003D38001C3224E
:0EA5CE00745B2556F8E6FFE55604541FF5565B
:01A5DC00225C
:029651008F2F59
:10965300E554455360130554E554AE537002055366
:1096630014F5828E83E52FF022C2AF7F1412A21A63
:1096730012571A8F338E328D318C30D2AF7B007AF2
:109683000079307F0612581950DFC2AFAF2FE4FCC8
:0F969300FDFE1257347F0012A21A12572BD2AFCE
:0196A20022A5
:102B3800021C0000C100C102C101011B00C103C188
:102B48000444E4E10000000001180A01190A011A0E
:012B58000A72
:10A53A007E007D007C7022FC8F4E8E4D8D4C8C4BA4
:01A54A0022EE
:1088FF007F0912897E7FFC12A53A12572B7F041233
:10890F00574EECC0E0EDC0E0EEC0E0EFC0E01289E2
:10891F0070D0E0FFD0E0FED0E0FDD0E012A5417FA7
:10892F009812A53A1298F87F0412574EECC0E0ED5A
:10893F00C0E0EEC0E0EFC0E0128970D0E0FFD0E001
:10894F00FED0E0FDD0E012A5417F9012A53A12981B
:10895F00F87F0312897E7F087E017D007C700257AD
:10896F002B7F0412574E8F528E518D508C4F227E7B
:09897F00007D007C001257342237
:109E2800051DE51D7002051CD2041518E518701DE6
:109E380075180AD200D5190D75190AD202D51A0556
:0D9E4800751A0AD201300305D51B02C203B2
:019E550022EA
:0AA69100C2038F1BD2032003FD2239
:10A4B600C204CEEFCE1FEED3940040073004FDC297
:04A4C6000480EF22FD
:07A73A00C2038F1BD20322B2
:04A79A00A203B32241
:10A54B008F4E8E4D8D4C8C4B7F807E007D007C70B2
:01A55B0022DD
:09A6F500D2BAD2AAC2B8D2A8223E
:0300130002911B3C
:0D911B00C0E0C0F0C083C082C0D075D0108D
:10912800C2AF7FAC12A55512571A8F258E248D23F6
:109138008C22D2AF7B007A0079227F061258195010
:109148002F12849DC2AF7F0612574EC014C015C09F
:1091580016C0177F0612574E8F528E518D508C4F66
:10916800D017D016D015D01412A54B1298F8D2AF3C
:0B917800D0D0D082D083D0F0D0E03205
:03000300029183E4
:0D918300C0E0C0F0C083C082C0D075D0082D
:10919000C2AF7FA812A55512571A8F2D8E2C8D2B7A
:1091A0008C2AD2AF7B007A00792A7F04125819509A
:1091B0002F129E28C2AF7F0412574EC00CC00DC0A4
:1091C0000EC00F7F0412574E8F528E518D508C4F10
:1091D000D00FD00ED00DD00C12A54B1298F8D2AFF4
:0B91E000D0D0D082D083D0F0D0E0329D
:10A0A100456E746572203F20746F2067657420745B
:10A0B100686520434C492068656C7020636F6D6D45
:04A0C100616E640068
:072B590044E4E50000000068
:0CA64000129F8EEF60057F0512A76422B8
:0CA64C0030000812A58E1297E0C2002218
:0CA6580030020812A48C123C46C2022200
:109FB80030012412A1D912A64012A0E9C20190E4EE
:109FC800E5121610EF2401FFE43EFEE43DFDE43CFB
:089FD800FC90E4E5121696224C
:107C19001281B990E2C9EFF07FD37E007D017C002B
:107C29001257347F547E007D077C7112572B1288BE
:107C3900FF1265B512A6F5D2AF7F1412A4B612A62B
:107C4900B912A6B9128C1912A0C512A50412A5164B
:107C590012811C12A7A412A47712A76AEF6003125B
:107C6900A056127974126C34128D11EF600312A0B0
:107C79005612A1FA1272FF12931C7F01128A9312F3
:107C8900604012A6B97BFF7AA079A112A77C7F3E3A
:107C990012965112A76AEF600312A722129252128A
:107CA900A776EF70EE12A64C12A658129FB87587E8
:037CB9000180E067
:1087EB0025252053797374656D2068616E67696EFA
:1087FB006720283078004275696C64204461746589
:10880B002020202020203A2000536F66747761725D
:10881B00652056657273696F6E3A2000436F64650D
:10882B00205265766973696F6E2020203A200048CC
:10883B0057205265766973696F6E20202020203A8D
:10884B002000436869702046616D696C7920202097
:10885B0020203A20003735317800205265762E00E3
:0A886B0020556E6B6E6F776E2E00C5
:082B600041E4E90041E4EA0050
:0AA69B00E0FEA3E0AA06F97BFF220F
:08A7220075F2AF12A3F280FEF4
:10A0560012A76A90E2CAEFF07FE812A4B67BFF7AF5
:10A066008779EB12A27690E2CAE0FF12A29312A0C1
:06A07600C512A50480E202
:06A7640090E4EAEFF02290
:06A76A0090E4EAE0FF228A
:06A7700090E4E9EFF02285
:06A7760090E4E9E0FF227F
:10A504007BFF7A88790112A27690E4DB12A69B0283
:02A51400A77C22
:10A0C5007BFF7A88791412A27690E4DD12A69B12A2
:10A0D500A77C7BFF7A88792712A27690E4DF12A607
:04A0E5009B02A77CB7
:10A516007BFF7A88793A12A2761281B912A7A10234
:02A52600A6B9D4
:108C1900C2AF7F007E007D077C7112571A90E2D1A6
:108C2900121696D2AF90E2D1121610781C12157452
:108C3900EF540FFFEF244190E2D5F07BFF7A88795A
:108C49004D12A27690E2D1121610780C121574EF1B
:108C59005410FFEE5475FEE4FDFC7B107A75F9F8AB
:108C6900C31215637BFF701A7A88796012A2767B2A
:108C7900FF7A88796512A27690E2D5E0FF12A7A162
:0C8C890080077A88796B12A27612A6B9D7
:018C950022BC
:10A57E0090E2DCEFF012A75690E2DCE0FF02937F50
:03A79E0002A756B9
:03000000026FACE0
:106FAC0075818A126FCC78FEE4F6D8FD90E0007FF4
:106FBC00007E20E4F0A3DFFCDEFA75818A027041CA
:106FCC0075FF0075FE0075FD0775FCEA75FB7075A5
:106FDC00FA0075F90075F73C75FFDF75FEFF75FD5E
:106FEC000075FC0075F76475FF0075FE0075FC01FB
:0A6FFC0075F760758E0075F2AF2284
:042B680041E4ED0354
:103EEB00493243202D204861726477617265204608
:103EFB0049464F732077696C6C20626520666C7540
:103F0B007368656400545820627566666572206537
:103F1B006D7074792054696D656F75740A00493240
:103F2B00432054782054696D656F75740049324392
:103F3B00202D20436F756C646E2774207472616E34
:103F4B00736D697420726561642072657175657338
:103F5B007400776169745F666F725F74785F627506
:103F6B00666665725F656D70747900526561642079
:103F7B0054696D654F757428416464722920005231
:103F8B0041575F494E54525F535441542830786423
:103F9B00293A2030780052585F544C2830786529E4
:103FAB003A2030780054585F544C28307866293AC0
:103FBB0020307800434C525F52585F554E44455267
:103FCB002830783131293A20307800434C525F52F7
:103FDB00585F4F5645522830783132293A20307885
:103FEB0000434C525F54585F4F564552283078313E
:103FFB0033293A20307800434C525F52445F52458C
:10400B00512830783134293A20307800434C525FB4
:10401B0054585F414252542830783135293A203078
:10402B007800434C525F52585F444F4E45283078CE
:10403B003136293A20307800434C525F4143544982
:10404B00564954592830783137293A203078004373
:10405B004C525F53544F505F44455428307831389D
:10406B00293A20307800434C525F53544152545FED
:10407B004445542830783139293A20307800434C64
:10408B00525F47454E5F43414C4C28307831612994
:10409B003A203078004354524C2830783162293A18
:1040AB0020307800535441542830783163293A201A
:1040BB003078005458464C522830783164293A20D5
:1040CB003078005258464C522830783165293A20C6
:1040DB0030780054585F414252545F534F5552430E
:1040EB00452830783230293A20307800434C525FE3
:1040FB00494E54522830783130293A2030780056C6
:10410B005453535F5457495F5457495F5258464C69
:10411B005228746865206461746120696E2074682C
:10412B0065207278206669666F293A2000206973D2
:10413B0020626967676572207468616E20657870AC
:10414B0065637465643A2000565453535F54574962
:10415B005F5457495F5241575F494E54525F535416
:10416B0041543A2000565453535F5457495F5457A8
:10417B00495F54585F414252545F534F5552434528
:03418B003A2000D7
:1076AF00C2AF7F747E047D107C702290E31212169D
:1076BF0010EF24FFFFEE34FFFEED34FFFDEC34FF3F
:1076CF002290E312E4FFFEFDFC021629D2AFC2AFF7
:1076DF007F017E007D007C0022E4FFFEFDFC121680
:1076EF0029C30215637B407A42790F780090E31E1D
:1076FF00021610783F120F1C7B007A247974784998
:10770F00121025E4FBFA22121610EF2401FFE43EBB
:10771F00FEE43DFDE43CFC221215878F528E518D05
:10772F00502290E301E0FDF42290E31EE0FEA3E07F
:10773F00FFE4FCFD22FC90E312021696E47B0AFAAA
:10774F00F9F8021411EFF0A3EDF0A30216FF90E386
:04775F0006021610F8
:087B750090E31EEEF0A3EFF017
:107B7D00C2AF7F041276B3127C0D90E32012161063
:107B8D00EFFBEE5403FAE4F9F8127738C3121563DC
:107B9D00606DC2AF7F781276B3127C0D1276AF1284
:107BAD00571A90E324121696D2AF90E3201276D393
:107BBD00C3121563700CFFFEFDFC90E3241276EDED
:107BCD0060097BFF7A3E79EB12A77CC2AF7F001272
:107BDD0076E11257347F6C1276B312572BD2AFC2A7
:107BED00AF1277381257347F041276B312572B1217
:0F7BFD0076DB1257347F6C1276B312572BD2AF50
:0D7C0C002212571A90E320121696D2AF22D2
:109D39007F3212A73A1276AF12571A90E31E121603
:109D490096D2AF12A79A500D7BFF7A3F791012A7CE
:109D59007CE4FEFF2290E31E1276E870D8FE7F01B4
:019D690022D7
:0695500090E31E121696C6
:109556007F0512A73A1276AF12571A90E322121617
:1095660096D2AF12A79A500D7BFF7A3F792912A7A0
:109576007CE4FEFF22E47F06FEFDFC90E322121649
:1095860029D312156350CEC2AF90E31E12161012E5
:1095960057347F101276B312572BD2AF7E007F015D
:0195A60022A2
:10715B0090E31EEDF0EF6045C2AFE47F01FEFDFC56
:10716B00E0F9F8121587ED4401FDEC8F4E8E4D8D35
:10717B004CF54BE47F01FEFDFCA801121587ED4495
:10718B0001FDEC12772AF54F7F541271EDA8011215
:10719B0077278C4F7F581271EDA8018032C2AFE474
:1071AB00F54EF54DF54CF54BF552F551755031F556
:1071BB004F7F54127218F552F551755030F54F7FC1
:1071CB00581272187F01FEFDFC90E31EE0F9F812D5
:1071DB0077278C4F7F3C7E007D077C711298F8D20D
:1071EB00AF227E007D077C711298F8D2AFC2AFE45C
:1071FB007F01FEFDFC90E31EE0F9F81215878F4E20
:10720B008E4D8D4C8C4BE47F01FEFDFC22FE7D07E9
:10721B007C711298F8D2AFC2AFE4F54EF54DF54C38
:03722B00F54B22FE
:1060400090E31E1216A20EE6B2801276F412149C91
:1060500012774BEF24F81276C3FCC2AF1257347F8D
:10606000141276B312614712774B1276C0FCC2AF9E
:106070001257347F181276B3126147EF24FFFFEEF8
:1060800034FFE4FCFDE4FE7801121587EF4401FFC4
:10609000ECC2AF1257347F987E017D007C7012579E
:1060A0002BD2AF1276FCE41210C27BCD7ACC798C65
:1060B000127702F978C112615E7F1C1276B3125713
:1060C0002BD2AF1276FCE41210C27B337A3379B351
:1060D000127702798078BF12615E7F201276B31248
:1060E000572BD2AFE4FEFDFC0414044402FFEF542E
:1060F000FBFFEF54F7FFEF54EFFFEF4420FFEF44B7
:1061000040FFEEC2AF1257347F001276B312572B06
:10611000D2AF1276F412149CE41210C2E4FBFA79A6
:1061200080783E120F1C121100C2AF1257347F94B8
:106130001276B312572B1276DB1257347F6C12761D
:06614000B312572BD2AF91
:106146002212572BD2AF7B407A42790F780090E328
:106156001E12161012149C22120E2B121100C2AF20
:046166001257342276
:06807F0090E301127754AA
:1080850090E30A1216A20000000090E301E0FDF45F
:1080950060057F0112715B90E302E0FF7E00127BB9
:1080A50075129D39EF4E605690E30612161090E357
:1080B5000EEEF0A3EFF0D390E30FE0940090E30E03
:1080C500E064809480403790E3031216DF12129922
:1080D500FFE4FCFDFE129550EF4E602290E304E4B0
:1080E50075F00112134690E30A12771690E30A120F
:1080F500169690E30E74FFF5F012134680B87F02D2
:1081050012A69190E301E0FDF46005E4FF12715BB6
:0681150090E30A121610AF
:01811B002241
:0626920090E301127754F1
:1026980090E30A1216A200000000E490E318F0A3E9
:1026A800F012773160057F0112715B90E302E0FF61
:1026B8007E00127B7512775D90E316EEF0A3EFF0C3
:1026C80090E316E0FEA3E0FFD39400EE64809480CC
:1026D80050030229A8D3EF9408EE64809480400C3C
:1026E80090E3121216A200000008800F90E316E093
:1026F800FEA3E0FFEE3395E0FD80411276D0D312C1
:102708001563403D129D39EF4E60257F007E017DA7
:10271800007C00129550EF4E701F7BFF7A3F79388E
:1027280012A77C1277316005E4FF12715B0228DC86
:102738007BFF7A3F795D12A77C1276BA12774480C4
:10274800BA7F0A12A73A90E316E0FAA3E0FBD39403
:1027580008EA64809480401790E3121216A20000E1
:10276800000890E31674FF75F0F81213468013AF53
:1027780003AE02EE3395E0FD127744E490E316F0E1
:10278800A3F01276D0D312156350030226C812297B
:10279800E612A79A40030228E27BFF7A3F79761275
:1027A800A27690E302E0FFE4FCFDFE128E0412A67E
:1027B800B9C2AF7F341229BE7A3F798A122AECC295
:1027C800AF7F381229BE7A3F79A1122AECC2AF7FB7
:1027D8003C1229FC7A3F79B01229D27F441229FC95
:1027E8007A3F79BF1229D27F48122A207A3F79D6B8
:1027F800122A0EC2AF7F4C122A207A3F79EC122A95
:102808000EC2AF7F50122A447A407902122A32C28D
:10281800AF7F54122A447A407917122A32C2AF7F06
:1028280058122A687A40792D122A56C2AF7F5C1254
:102838002A687A407943122A56C2AF7F60122A8CDE
:102848007A40795A122A7AC2AF7F64122A8C7A4067
:102858007971122A7AC2AF7F681276B3122AD47AB3
:10286800407989122A9EC2AF7F6C1276B3122AD49D
:102878007A4079A0122A9EC2AF7F701276B3122ACC
:10288800E07A4079AF122AB01276AF122AE07A4085
:1028980079BE122AB01229E67A4079CE122AC2C22B
:1028A800AF7F801276B3122B147A4079DE122AC2D7
:1028B800C2AF7F401276B3122B147A4079F7122BED
:1028C8002012A3A712A6B91260401277316005E45E
:1028D800FF12715BE4FFFEFDFC2290E30E1276E826
:1028E800700302279612775D90E30E121629D31211
:0428F8001563406BB9
:1028FC007A41790A122B20128E047BFF7A417938A7
:10290C0012A27612775D128E0412A6B97BFF7A4161
:10291C00795312A276C2AF7F341276B3122AFC7BA3
:10292C00FF7A41797012A276C2AF7F801276B31211
:10293C002AFCC2AF7F001276E11257347F6C1276FC
:10294C00B312572BD2AF7F0212A6911276DD12571B
:0B295C00347F6C1276B312572BD2AF01
:10296700C2AF7F101276B312571A90E30E12169663
:10297700D2AF90E30E12161090E3031216DFEF1298
:10298700131290E304E475F00112134690E30A1260
:10299700771690E30A1216961276BA127744022730
:1029A7008A7F0212A6911277316005E4FF12715BEC
:0629B70090E30A12161065
:1029BD00227E047D107C7012571A90E30E1216962B
:1029CD00D2AF7BFF227BFF12A27690E30E12161080
:1029DD0012A3A712A6B9C2AF22C2AF7F787E047D23
:1029ED00107C7012571A90E30E121696D2AF227EFB
:1029FD00047D107C7012571A90E30E121696D2AF0A
:102A0D00227BFF12A27690E30E12161012A3A712CC
:102A1D00A6B9227E047D107C7012571A90E30E1217
:102A2D001696D2AF227BFF12A27690E30E121610ED
:102A3D0012A3A712A6B9227E047D107C7012571A1C
:102A4D0090E30E121696D2AF227BFF12A27690E380
:102A5D000E12161012A3A712A6B9227E047D107CA9
:102A6D007012571A90E30E121696D2AF227BFF12F8
:102A7D00A27690E30E12161012A3A712A6B9227E0B
:102A8D00047D107C7012571A90E30E121696D2AF79
:102A9D00227BFF12A27690E30E12161012A3A7123C
:102AAD00A6B9227BFF12A27690E30E12161012A386
:102ABD00A712A6B9227BFF12A27690E30E12161072
:102ACD0012A3A712A6B92212571A90E30E12169648
:102ADD00D2AF2212571A90E30E121696D2AF2212CF
:102AED00A27690E30E12161012A3A712A6B9221207
:102AFD00571A90E31A121696D2AF90E31A121610C7
:102B0D0012A2B012A6B92212571A90E30E121696FF
:0F2B1D00D2AF227BFF12A27690E30E1216102287
:10997B00E4FEFDFC90E315121629C3021563E4FC0B
:10998B00FDFEEF5401FFE42290E2EAE0FF7E007C53
:10999B00007D04121768EF2212153BA804A905AA33
:0F99AB0006AB0722121610EE5401FEE4FDFC225B
:10A2CD00C3EE94014015EEC4F854F0C868FEEFC417
:0CA2DD00540F482400FFEE3401FE222242
:0E2F8B0090E2EBEDF0A3EBF090E2EAEFF0FA4B
:102F9900E490E2EDF0A3F0A3F090E2F51216A2009E
:102FA900000000AF02E4FCFDFEFBFA7901F81214FF
:102FB90011E42FFFE43EFEED341EFDEC3471FC906C
:102FC900E2FD12169690E3011216A2000007FF9087
:102FD900E3051216A200000FFF90E3091216A200E2
:102FE900009C4090E30D1216A200002EE090E31120
:102FF9001216A20000355E90E2EBE05403FFE4FCF8
:10300900FDFE90E315121696E4FF12997C70047F79
:103019000380187F0112997B70047F02800D7F0263
:1030290012997B70047F0180027F00EF3395E0FEE7
:10303900FDFC90E31912169690E2ECE090E2EEF0B6
:10304900FBA3F090E3011216A2000000E4EB600F6D
:1030590090E3051216A2000000B190E309800390E5
:10306900E30D12161090E2F112169690E2EDE0606F
:103079000A90E2F11216A200013880C2AF90E3056E
:103089001299AF7801121587C004C005C006C007A0
:1030990090E3011299AF780A121587D003D002D0B4
:1030A90001D0001299A390E2EEE060047F01800252
:1030B9007F001299891232B624081232CC90E2EAC2
:1030C900E0FF7B017AE3791D129827C2AF90E31ED6
:1030D900E07D00FC90E31DE07E007810C333CE3321
:1030E900CED8F990E31F1232DF24401232F990E36F
:1030F90021E07D00FC90E320E07E007810C333CE10
:1031090033CED8F990E3221232DF243C1232F990FF
:10311900E319121610EF5403FFE4FEFDFC781A12AE
:103129001587ED4474FDC004C005C006C00790E2D0
:10313900EEE060047F0180027F0012998978111204
:103149001587D003D002D001D00012153BC004C0AE
:1031590005C006C00790E2EFE060047F0180027FAE
:10316900001299897810121587D003D002D001D0A6
:10317900001299A390E2EDE06006E47FFFFE80046F
:103189007FFF7EFFE4FDFC1232B624701232CCC2FE
:10319900AF1299932434FFEE3412FEED3481FDEC25
:1031A9003471FCC004C005C006C00790E2EEE070AF
:1031B900047F0180027F0012998978091215878F8F
:1031C9004E8E4D8D4C8C4BE4F552755102F550F5F0
:1031D9004FD007D006D005D0041298F8D2AFE490AA
:0D31E900E2F0F090E2F0E0FFC394055043E7
:1031F600EF04FF12A43712A6FE90E323EFF030E5AA
:10320600047F0180027F0090E2EEEFF090E2F5602D
:103216000812161090E309800612161090E30D129C
:0B32260016291213F690E2F51216961E
:1032310090E2F0E004F080B390E2F5121629C37435
:10324100049BFF74809AFE740399FDE498FCE47B6F
:103251003CFAF9F812149C90E2F9121696C2AF905A
:10326100E2EDE06007E4FFFEFDFC8007E47FFF7E06
:1032710001FDFC1257347F6C7E067D017C71125773
:103281002BD2AFC2AFE47B3CFAF9F890E2F112160F
:103291001012149C12A2CDE4FCFD12573412999322
:1032A100243CFFEE3406FEED3401FDEC3471FC12DA
:0432B100572BD2AF16
:1032B5002212153B12573490E2EAE0FF7E007C00B3
:1032C5007D04121768EF22FFEE3406FEED3401FD92
:1032D500EC3471FC12572BD2AF22FFEE4CFEEF4DB2
:1032E500FFE0FDEF4DFFE4FCFD12573490E2FD12C7
:1032F5001610EF22FFE43EFEE43DFDE43CFC1257D0
:063305002BD2AFC2AF2283
:0A993C0090E2E8EDF090E2E7EFF0B2
:1099460090E2E97420F012A78290E2E9E0FE90E24C
:10995600E8E0FD5EB506047E0180027E00EF60074A
:10996600EE60047F0180027F00AE0790E2E7E0FF31
:05997600AB06022F8B7F
:0D000600C8ECC8C9EDC9CAEECACBEFCB22C9
:1098F8008F4A8E498D488C4712571A120006AF526C
:10990800AE51AD50AC4F12154812152E120006E597
:109918004E5552FFE54D5551FEE54C5550FDE54B72
:10992800554FFC12153B125734AF4AAE49AD48ACFF
:049938004702572B60
:1066AC00F890E2E7121610E4FFFEEC12153B90E2B4
:1066BC00E712169690E2F302161012153B90E2ECDC
:1066CC00E0FAA3E02408F582E43AF58312169690DA
:1066DC00E300021610F582E43AF583EFF090E30440
:1066EC000216107F03E490E2F4FEFDFC121629C39F
:1066FC00021563C2AF7F3C7E8B7D887C7122A3E048
:10670C00FFE4FCFDEF5403FFE4FE7809021587FF5C
:10671C00E4FEFDFC12169690E2F002161090E2E0F8
:10672C00E0FEA3E022EF2404F582E43EF583E022B0
:10673C00E4FCFDFEEF5401FFE402158790E2ECE06F
:10674C00FAA3E0227E007D007C00228F828E83A340
:10675C00A322121574EF5403FFE4FEFDFC2290E219
:10676C00EEE0FEA3E0F5828E832212153BA804A96D
:10677C0005AA06AB07227F0C7E907D887C7122FDDA
:10678C00E490E2E3F0A3F0FB7F012290E2E3021637
:01679C0010EC
:0A4EE30090E2E0EEF0A3EFF0AB0563
:104EED00E4A3F090E2EF1216A20000000090E2F3AE
:104EFD001216A20000000090E2F71216A2000000A8
:104F0D0000EB7019126729FF129BD3126729FF124C
:104F1D00A15312670DEF4402FFEC0250D612672920
:104F2D00FF12A15390E2FBEEF0A3EFF0126729FF01
:104F3D00129C3C90E2E7121696126729FF129F0B06
:104F4D0090E2EB12169690E2FBE0FEA3E0FF640206
:104F5D004E6009EF64034E6003025001126729246D
:104F6D0008F582E43EF58312161090E2F3121696C0
:104F7D0090E2FBE07004A3E0640290E2F37036125D
:104F8D0016107818121587E4FBFAF9ECF890E2EB9D
:104F9D00121610E4FC12153B90E2EB1266BD780878
:104FAD00121574EFFBEEFAE41266AC781812675E18
:104FBD0090E2E3803A121610EFFBEEFAE4F9126676
:104FCD00AC7810121574EF543FFFE4FEFDFC90E237
:104FDD00E31266BD781612675E90E2F71266BD7831
:104FED0019121574EF5401FFE4FEFDFC90E2EF126F
:104FFD001696804F90E2FBE4F0A304F090E2E312EA
:10500D0016A200000000E47F0B90E2E31266F5505B
:10501D003212679790E2E1E02408FD90E2E0E0347F
:10502D0000FAA9057B011258194018126797EF2451
:10503D0001FFE43EFEE43DFDE43CFC90E2E312168C
:10504D009680C3C2AF90E2E71216101257347F3428
:10505D0012670312572BD2AFC2AF90E2EB121610AC
:10506D001257347F3812670312572BD2AF90E2EFED
:10507D00121610EC4D4E4F60047F0180027F0078B8
:10508D000C12673CEE4408FEC004C005C006C00704
:10509D0090E2FB12670AD003D002D001D0001215A6
:1050AD003BC004C005C006C007126797EF543FFF11
:1050BD00E4FEFDFC7803121587D003D002D001D099
:0C50CD000012153BEF4401FFEC129C08A0
:0150D90022B4
:0E48C10090E2ECEEF0A3EFF0A3ECF0A3EDF02C
:1048CF001266FF12571A90E2F0121696D2AF1267C5
:1048DF0023E4FFEE5408FEE4FDFCEE700774FFFFC7
:1048EF00FEFDFC221267237809121574EF54039012
:1048FF00E2F412671B7803121574EF543F90E2F83D
:10490F0012671BE4FFEE5410FEE4FDFCEE6005E4BD
:10491F000FFE8005E4FFFEFDFC90E2FC121696C22E
:10492F00AF7F3412670312571A90E300121696D214
:10493F00AFC2AF7F3812670312571A90E3041216F3
:10494F0096D2AF7F021266F160081266EF60030223
:10495F004A3412676A7401F01266EF7065126723AA
:10496F007810121574EF5407FFE4FEFDFC78161251
:10497F001587C004C005C006C00790E2FC121610D0
:10498F007819121587D003D002D001D00012153B31
:10499F00C004C005C006C00790E2F81216107810C8
:1049AF00121587D003D002D001D00012677612669D
:1049BF00DBE4FDFC1266C67433FFFEEC90E30002ED
:1049CF004A2F1266DB7808121587E4FFE4FCC00457
:1049DF00C005C006C00790E2F8121610781812151D
:1049EF0087D003D002D001D00012153BC004C00500
:1049FF00C006C0071266E97818121574E4FEFDFCB4
:104A0F00D003D002D001D0001266C6E4FF7401FEBD
:104A1F00EC90E3001216961266E9745EFC90E304C4
:104A2F00121696803712676AE4F0C2AF7F04FEFD5C
:104A3F00FC90E2F8121629121411E42FFFEE348CB9
:104A4F00FEED3488FDEC3471FC12571A12674824BE
:104A5F0008F582E43AF583121696D2AF1266DB7828
:104A6F0010121574EE540FFE126748FBF5828A83FD
:104A7F00EEF0A3EFF01266DB78081215748B828AC2
:104A8F0083A3A3EFF01266DB126748FBF5828A83DC
:104A9F00A3A3A31266E77818121574EB2404126609
:104AAF00E17810121574126748FB24051266E1783D
:104ABF0008121574EB24061266E190E2ECE0FCA3F9
:0E4ACF00E02407F582E43CF583EFF012672344
:014ADD0022B6
:1094F60090E2E7ECF0A3EDF0A3EBF090E2E5EEF0FE
:03950600A3EFF0E0
:10950900129BD390E2E9E0601A90E2E5E0FEA3E065
:10951900FF12A15390E2EAEEF0A3EFF07F04126785
:1095290050800F90E2EA12670AEF4406FFEE440802
:10953900FEEC129C0890E2E5E0FEA3E0FFA3E0FC4C
:06954900A3E0FD1248C181
:01954F0022F9
:10A10D00C2AFE4754E2C754D01F54CF54B7552FEF5
:10A11D007551FF75501FF54F7F301267841298F8F7
:03A12D00D2AF228C
:1077630090E2E0EFF0A3EDF0C2AFEB60047F0180A5
:10777300027F00780D12673CC004C005C006C00735
:1077830090E2E0E060047F0180027F00E4FCFDFE04
:10779300EF5401FFE47813121587D003D002D00110
:1077A300D00012153BC004C005C006C00790E2E13B
:1077B300E0541FFFE4FCFDFE780E121587D003D0C2
:1077C30002D001D00012677690E2E3E0FEA3E0FF6F
:1077D300E4FCFDEE541FFEE412153B8F4E8E4D8DDF
:1077E3004C8C4B7552FF7551FF75500F754F00123E
:1077F30067821298F8D2AF7F03126750129C08C2B7
:10780300AF7F0012675012573412678212572BD280
:02781300AF22A2
:08A72A007F05126750029C0834
:10A44D0090E2DFEFF012678B12776390E2DFE0129C
:05A45D00678B0277632C
:109C0800C2AF12573412670112572BD2AF1266FF38
:109C180012571A90E2FD121696D2AF90E2FD121674
:109C280010EF5407FFE4FEFDFCFBFAF9F8C3121528
:039C38006370DA7C
:019C3B002206
:109BD30090E2FDEEF0A3EFF0C2AF129C3C125734BB
:109BE3007F3412670312572BD2AFC2AF90E2FDE06E
:109BF300FEA3E0FF129F0B1257347F381267031244
:059C0300572BD2AF2237
:049C3C00AD07AC06BE
:109C40008D828C83E0FAA3E0FBEA90E2FFF0A3EBC5
:109C5000F08D828C83A3A3E090E301F08D828C834E
:0E9C6000A3A3A3E090E302F090E2FF1216101F
:019C6E0022D3
:109F0B0012673190E2FFF0EF240512673490E30003
:109F1B00F0EF240612673490E301F0EF2407126789
:0B9F2B003490E302F090E2FF121610E9
:019F36002208
:10A33D00126757E0B40111126757A3E0700A126754
:0BA34D0031B45E047F0180027F00221B
:10A42100126757E0B4330C126757A3E0B433047FCB
:06A431000180027F002201
:10A15300AD07AC0612A33DEF60057E007F0222AE81
:10A1630004AF0512A421EF60057E007F0322E4FE05
:02A17300FF22C9
:0BA67B007F037E007D007C000299F947
:1099F900C2AF1257347F447E8B7D887C7112572BFE
:109A0900D2AF7F6412A73AC2AF7F447E8B7D887C38
:109A19007112571AD2AFEF5403FFE4FEFDFCFBFAB3
:0D9A2900F9F8C3121563600512A79A50DA10
:019A3600220D
:109AB30025252054696D656F7574207768656E2060
:109AC30063616C6C696E672068325F73657264658D
:109AD300735F6D6163726F5F70686173655F6C6FF5
:0C9AE3006F705F6C6F636B656428290076
:10467300D2AFC2AF90E2DDE0FFE4FCFDFEFBFA79CE
:1046830001F8121411E42FFFE43EFEED341EFDEC9D
:104693003471FC22FFE43EFEE43DFDE43CFCE475A2
:1046A3004E01F54DF54CF54B755201F551F550F5AD
:1046B3004F22C2AF90E2E7E075F020A4FFAEF07C9A
:1046C300007D04121768EF2408FFE43EFEED340377
:1046D300FDEC3471FC22D2AFC2AF90E2E0E0FF7E8A
:1046E300007C007D04121768E42FFFEE3412FEED08
:1046F3003481FDEC3471FC2290E2CC121610EF24CD
:1047030001FFE43EFEE43DFDE43CFC22C2AF90E247
:10471300CAE0FEA3E022C2AF90E2E0E0FF7E007CAD
:10472300007D04121768EF2448FFEE3405FEED34D4
:1047330001FDEC3471FC227808E4FCFDFEEF54012A
:10474300FFE402158712169690E39812161090E371
:104753008812162912140390E39812169690E39C7C
:10476300021610E4F54EF54DF54CF54B22FFEE33F2
:1047730095E0FDFC90E39412162912152EEC4D4E94
:104783004F22FFEE3395E0FDFC1213F6E47B08FAAB
:10479300F9F8121411E42FFFEE227F0590E2CCE426
:1047A300FEFDFC0216291216108F4E8E4D8D4C8C79
:1047B3004BE422E475F00190E2CA02134612162973
:1047C3001213F690E390121696E490E2CAF0A3F067
:1047D30022D2AFC2AF7F007E007D007C0022E47F47
:1047E300587E02FDFC90E39012162912141190E3F7
:1047F300A012162912149CC32290E3881216299042
:10480300E398021610FFC39408EE6480948022E0BC
:10481300FF7E007C007D04121768EF22E4FCFDFE9E
:10482300EF5401FFE402158774017E00A8070822F4
:1048330090E38C12162912140390E39C0216967FC0
:10484300087E057D017C7122F552755101F550F505
:104853004F2224E8F58274E2222408F58274E322CD
:1048630012169690E38C22EF5401FFE48F4E22122E
:104873001610EF540FFFE4FEFDFC22D2AFEF5401FC
:10488300FFE4FEFDFCEF221213F690E3900216966E
:104893002428F58274E3222448F58274E32290E30A
:1048A3007802169690E38402169612161012A2E965
:0E48B300E4FCFD22F552755140F550F54F2200
:01A7A700228F
:10A2E900C3EE94014015EEC4F854F0C868FEEFC4FB
:0CA2F900540F482400FFEE3401FE222226
:1018060090E3A57408F0A31216A20000000090E36E
:10181600AA7401F090E2D81216A200000BB890E369
:10182600681216A20000000090E2DC1216A2000068
:10183600000090E36C1216A200000BB890E3781239
:1018460016A20003800490E37C1216A20003800413
:1018560090E3881216A200000FA090E3A47401F092
:1018660090E2E41216A20000000890E2E01216A22E
:101876000000000890E3741216A20000001490E322
:10188600701216A20000001490E3801216A2000047
:10189600077790E3841216A20000077790E38C1274
:1018A60016A20000003290E3A01216A2000000C8A3
:1018B6007F0190E3A61247A2C3121563704A90E314
:1018C600A4F090E3881216A20000753090E3681227
:1018D60016A20000000090E36C1216A200000000A1
:1018E60090E38C1216A2000000C890E3701216A2B4
:1018F6000000000090E3741216A20000000090E3BE
:10190600A01216A2000000C890E3AAE0600C90E3C3
:10191600941216A200000081802890E3A5E0FFC380
:1019260074089FFF74FF7E00A807088006CEA2E712
:1019360013CE13D8F8FFEE3395E0FDFC90E3941236
:10194600169690E36C12161090E3681247C0124781
:1019560011124808503E12482B8005C333CE33CEB1
:10196600D8F9124770602890E390121629C000C07B
:1019760001C002C00390E2DC12161090E2D81216E3
:10198600291213F6D003D002D001D00012488A12D1
:1019960047B680BA1247E174049FFF74809EFE74B6
:1019A600039DFDE49CFC90E39812169690E3741256
:1019B600161090E3701247C0124711124808503EA5
:1019C60012482B8005C333CE33CED8F91247706048
:1019D6002890E390121629C000C001C002C00390EF
:1019E600E2E412161090E2E01216291213F6D00362
:1019F600D002D001D00012488A1247B680BA1247E8
:101A0600E174779FFF74079EFEE49DFDE49CFC1243
:101A1600483C90E3A4E07003021B89A3E024FFFE88
:101A2600E434FF90E2CAF0A3CEF0124711FFC3EEF2
:101A3600648094805003021B5612482B8005C333E2
:101A4600CE33CED8F91247707003021AF21248024A
:101A5600C004C005C006C0071247117802C333CEC2
:101A660033CED8F91248553EF583D007D006D005B7
:101A7600D00412475DC004C005C006C00712471156
:101A86007802C333CE33CED8F91248933EF583D0CD
:101A960007D006D005D004121696124802C004C01C
:101AA60005C006C0071247117802C333CE33CED81D
:101AB600F912485C3EF583D007D006D005D0041253
:101AC600475DC004C005C006C0071247117802C3AF
:101AD60033CE33CED8F912489A3EF583D007D006D6
:101AE600D005D004124748124833805A124711785D
:101AF60002C333CE33CED8F9FBAA061248553AF5BF
:101B0600831216A20000000074282BF58274E33AB3
:101B1600F5831216A2000000001247117802C333A3
:101B2600CE33CED8F9FBAA0612485C3AF5831216D4
:101B3600A20000000074482BF58274E33AF5831284
:101B460016A20000000074FFF5F01247BA021A3020
:101B56001247FC1214031248A11247FC12140390F8
:101B6600E37C12486312162912476012140390E3AD
:101B7600801248631216291247601214031248A7EE
:101B8600021C841247CC90E3A5E0FFC390E2CBE0B1
:101B96009F7480F890E2CAE06480984003021C5566
:101BA60090E388121610C004C005C006C00712478D
:101BB600117802C333CE33CED8F91248553EF58399
:101BC600D007D006D005D004124863121610C00400
:101BD600C005C006C0071247117802C333CE33CE04
:101BE600D8F91248933EF583D007D006D005D00425
:101BF60012169690E388121610C004C005C006C0DF
:101C0600071247117802C333CE33CED8F912485C97
:101C16003EF583D007D006D005D0041248631216CD
:101C260010C004C005C006C0071247117802C333AE
:101C3600CE33CED8F912489A3EF583D007D006D0D7
:101C460005D0041247481248331247B6021B8C12BD
:101C560048021248A112480290E37C12475D90E3C5
:101C66008012475D1248A7C2AF7FFF1247DA1257AC
:101C7600347F787E137D817C7112572BD2AF90E230
:101C8600CC1216A20000000012479DD31215634025
:101C960003021D6612479DC3121563700C90E2D0B5
:101CA6001216A20000000B80031220DB1247CC1292
:101CB60047111248084003021D5A12482B8005C3DB
:101CC60033CE33CED8F9124770603BC2AF90E2D81C
:101CD600121F4234201246F11220B890E2E0124858
:101CE600AD12201B12478534281246F11220B890F7
:101CF600E2DC121F4234301246F11220F290E2E486
:101D06001248AD021D2A1247D612201B12478534EF
:101D160020121EF13428121EF134301246F11257E9
:101D26002B1247D4125734E47F08FEFDFC90E2D014
:101D3600121629121411A804A905AA06AB07124700
:101D46001112478534381246F112572BD2AF12477B
:101D5600B6021CB51246FB90E2CC121696021C8EF9
:101D66001247CC1247111248085062C2AFEF7802F0
:101D7600C333CE33CED8F912485512207B34001225
:101D86001F8D12470F7802C333CE33CED8F91248CF
:101D9600931220C03401121F8D12470F7802C333ED
:101DA600CE33CED8F912485C12207B3402121FB80B
:101DB60012470F7802C333CE33CED8F912489A129F
:101DC60020C03403121FB81247B6021D6990E2CC38
:101DD6001216A20000000012479DD3121563506927
:101DE60012479DC3121563700C90E2D01216A20022
:101DF60000000B80031220DBC2AF90E368121FE3E2
:101E0600E42F122008C2AF90E370122062124795A9
:101E1600342F1246F11220F290E36C121FE3E42FE6
:101E2600FFEE34371246F11220FA90E37412206264
:101E3600124795343F1246F112572BD2AF1246FB8A
:101E460090E2CC121696021DDD90E2D41216A20084
:101E5600000000E47F02FEFDFC90E2D4121629C3C6
:101E66001215634003021EF0C2AF90E37812203DC4
:101E7600EF24F0122008C2AF90E38012209F1214C4
:101E860011EF24F0FFEE342F1246F11220FA90E300
:101E96007C12203DEF24F0FFEE34371246F1125744
:101EA6002BD2AFC2AF90E38412209F121411EF24FD
:101EB600F0FFEE343F1246F112572BD2AF90E304F7
:101EC60012161090E37C1216961248A190E3441263
:101ED60016101248A790E38012169690E2D4124686
:0A1EE600FE90E2D4121696021E5977
:101EF00022FEED3481FDEC3471FC12572BD2AFC2BF
:101F0000AF7F007E007D007C00125734E47F08FE26
:101F1000FDFC90E2D0121629121411A804A905AAFA
:101F200006AB0790E2CAE0FEA3E0FFEE3395E0FDCA
:101F3000FC1213F6E47B08FAF9F8121411E42FFFEF
:101F4000EE22E47B3CFAF9F812161012149C12A24D
:101F5000E9E4FCFD125734E47F08FEFDFC90E2D07A
:101F6000121629121411A804A905AA06AB0790E2BB
:101F7000CAE0FEA3E0FFEE3395E0FDFC1213F6E4A9
:101F80007B08FAF9F8121411E42FFFEE22FEEF2578
:101F9000E0FFEE33FE3395E0FDFCE47B04FAF9F854
:101FA000121411E42FFFEE3420FEED3481FDEC34E9
:101FB00071FC12572BD2AF22FEEF25E0FFEE33FE6D
:101FC0003395E0FDFCE47B04FAF9F8121411E42FD8
:101FD000FFEE3420FEED3481FDEC3471FC12572B02
:101FE000D2AF22E47B3CFAF9F812161012149C12BC
:101FF000A2E9E4FCFD125734E47F08FEFDFC90E208
:10200000D012162912141122FFEE3427FEED34816E
:10201000FDEC3471FC12572BD2AF22125734E47FFF
:1020200008FEFDFC90E2D0121629121411A804A992
:1020300005AA06AB0790E2CAE0FEA3E022E47B3CDF
:10204000FAF9F812161012149C12A2E9E4FCFD121F
:102050005734E47F08FEFDFC90E2D41216291214D6
:10206000112212161012A2E9E4FCFD125734E47F8B
:1020700008FEFDFC90E2D0121629223EF5831216CE
:1020800010E47B3CFAF9F812149C12A2E9E4FCFD7E
:1020900012573490E2CBE024D8FF90E2CAE022123B
:1020A000161012A2E9E4FCFD125734E47F08FEFD8D
:1020B000FC90E2D41216292212572BD2AFC2AF22C3
:1020C0003EF58312161012A2E9E4FCFD125734907B
:1020D000E2CBE024D8FF90E2CAE02290E2CC1216D4
:1020E00010EF04FF12A437E4FCFDFE90E2D01216BC
:1020F000962212572BD2AFC2AF2212572BD2AFC2A9
:02210000AF220C
:09527F0090E2E0EFF0A3EDF0FB7A
:10528800A31216A200000064EB5403FF640260043A
:10529800EFB403047F018011EFB401047F02800999
:1052A800EF70047F0380027F0090E2E6EFF0C2AF68
:1052B80090E2E012467AEF241C1247041247667502
:1052C80052101246AE12540012481224341246EDFF
:1052D8001247661248B71298F81246D9E4754E027A
:1052E8001247697552021246AE1298F8D2AF7F0A79
:1052F80012A4B6124719E4F54E1246A5125400122C
:1053080046BAE4754E021247697552021246AE1249
:1053180098F81246D91247667552021246AE12988C
:10532800F8D2AF7F0112A4B6C2AF90E2E0124812E1
:10533800247C12472C12571AD2AFE4FEFDFCEF6012
:105348000E90E2E274FF121657EC4D4E4F70D4C225
:10535800AF90E2E012467AE4754EC812476975527A
:10536800C81246AE12540B1246BA1247667552025C
:105378001246AE1298F8D2AF90E2E0E0FFA3E0FD4B
:1053880012441790E2E0E0FFA3E0FD12993C1247B7
:1053980019C004C005C006C007A3E030E4047F00BC
:1053A80080027F01EF60047F0180027F0012486A5B
:1053B8001246A5D007D006D005D00412540B1246C9
:1053C8007AC00790E2E6E05403FFE48F4E12476983
:1053D8007552031246AED0071298F8D2AFC2AF90FA
:1053E800E2E012467A1247667552C81246AE129823
:0853F800F8D2AF7F0102A4B658
:105400001298F8D2AFC2AF90E2E0221298F8D2AF71
:06541000C2AF90E2E022B1
:08679D0090E2DDEFF0A3EDF046
:1067A5005403FF64026004EFB403047F018011EF1A
:1067B500B401047F028009EF70047F0380027F002B
:1067C50090E2DFEFF090E2DEE0FDF4700302687521
:1067D50090E2DDE0FF12993C90E2DDE0FFE4FD127E
:1067E5009AEFC2AF90E2DD12481224341246EDE46E
:1067F500F54E754D40F54CF54B1248B712688312AE
:10680500471EC004C005C006C007A3E030E4047FEE
:106815000080027F01EF60047F0180027F00124843
:106825006A1246A5D007D006D005D0041268831297
:10683500467AC00790E2DFE05403FFE48F4E12472B
:10684500697552031246AED0071298F8D2AFC2AF9F
:1068550090E2DD12467AEF241C124704E4754E11CE
:106865001247697552111246AE1298F8D2AF800BD5
:0E68750090E2DDE0FFA3E0FD12527F02A7A833
:0B6883001298F8D2AFC2AF90E2DD2205
:054CEB0090E2DDEFF096
:104CF00012A5EC90E2E3EFF090E2DDE0FF129F639B
:104D0000EF600890E2DE7401F0800E90E2E3E0B420
:104D1000010B90E2DE7401F0E4A3F0A3F090E2E373
:104D2000E0FFB4080B90E2E17401F0E4A3F0801915
:104D3000EF64026003EF700AE490E2E1F0A304F094
:104D40008007E490E2E1F0A3F090E2E1E07003027A
:104D50004DE190E2DEE070047F0180027F00781A6E
:104D600012473CEF4401FFC004C005C006C00790D5
:104D7000E2DFE060047F0180027F00781912481FA3
:104D8000D003D002D001D00012153BC004C005C032
:104D900006C00790E2E0E060047F0180027F0078B7
:104DA0001812481FD003D002D001D00012153B903A
:104DB000E2E4121696124675EF2494124704C004DA
:104DC000C005C006C00790E2E41247A9755201F57C
:104DD00051F550754F07D007D006D005D004024ECC
:104DE000DD124675EF244C124704C004C005C0060E
:104DF000C00790E2E2E060047F0180027F00124879
:104E00006A1246A5D007D006D005D0041298F81231
:104E10004673EF2454124704C004C005C006C007FF
:104E200090E2E2E060047F0180027F0012473A12C4
:104E300047AC12484BD007D006D005D0041298F8E2
:104E4000124673EF2450124704C004C005C006C0C8
:104E50000790E2E0E060047F0180027F00E4FCFD57
:104E6000FEEF5401FFC004C005C006C00790E2DF9A
:104E7000E060047F0180027F00E4FCFDFEEF54014E
:104E8000FFE47804121587D003D002D001D00012BD
:104E9000153BC004C005C006C00790E2DEE0700408
:104EA0007F0180027F0012473AD003D002D001D0A8
:104EB0000012153B1247AC75521112484DD007D065
:104EC00006D005D0041298F8D2AF90E2DDE0FF7D65
:104ED00001128875124675EF24481246971298F809
:024EE000D2AF4F
:014EE20022AD
:0944170090E2E7EFF0A3EDF0FBE9
:1044200090E2F51216A200000000EBF470030246C1
:104430005090E2E8E0541390E2F9F01246B5C0045F
:10444000C005C006C007A3E030E404E4FF8003E435
:104450007F01FEFDFC1247AC1246ABD007D006D060
:1044600005D0041298F8D2AF90E2E8E05403FF6060
:10447000156401601190E2F5121610EF4411FFEC83
:1044800090E2F512169690E2F9E030E41190E2F530
:10449000121610EF4401FFEC90E2F5121696C2AF2F
:1044A00090E2E712467AEF2420124704C004C005C8
:1044B000C006C00790E2F51247A97552111246AE28
:1044C000D007D006D005D004124669FF64106004FE
:1044D000EFB4111712465170091216A20000001015
:1044E00080341216A20000000F802B90E2F9E0FF4A
:1044F0006003B4011712465170091216A2000000A1
:104500001080131216A20000000E800A90E2E91239
:1045100016A20000000590E2ED1216A200000000B5
:1045200090E2F11216A20000000090E2F9E020E40F
:104530001490E2ED1216A20000000590E2F11216AE
:10454000A200000005C2AF90E2E712467AEF2430E5
:10455000124704C004C005C006C00790E2ED12482F
:1045600072C004C005C006C00790E2E9121610EF41
:10457000541FFFE4FEFDFC7808121587D003D0021B
:10458000D001D00012153BC004C005C006C0079082
:10459000E2F11248727804121587D003D002D001DC
:1045A000D00012153B1247AC7552FF75511FF550E4
:1045B000F54FD007D006D005D00412465E12467AD9
:1045C000EF2434124704C004C005C006C00790E2BF
:1045D000E7E0FFE4FCFDFE7810121587EF4443FF8F
:1045E000EE4410FEEC8F4E8E4D8D4CF54B75527F88
:1045F0007551107550FF754F00D007D006D005D00B
:10460000041298F8D2AF7F0212A4B6C2AF90E2E7CC
:1046100012467AEF2434124704124766F552755158
:1046200010F550F54F12465E12467AEF24041246FA
:10463000971246696003B401091246B5E4754E014C
:1046400080061246B5E4F54E1246A51298F8D2AF90
:104650002290E2E7E0FF12A5ECEF90E2E922129847
:10466000F8D2AFC2AF90E2E7221298F8D2AF90E250
:03467000F9E0224C
:10A4DE00C2AF1246A17F08FE7D077C711298F8D29A
:03A4EE00AF80FE3E
:10811C0012A7A71278C6EF700D7BFF7A9A79B3126B
:10812C00A77C7F04803312A5DDC2AF7F031247DA30
:10813C0012573412484212572BD2AF7F0A12A73A69
:10814C00C2AF12484212571A12487E600512A79A03
:10815C0050EE12A79A50057F0302A764C2AFE475D4
:10816C004E041247697552041246AE1248421298D8
:10817C00F8D2AF12A72A12A67B7F0412A69112A1E5
:10818C000D121806C2AF7FEC7EB17D147C00125725
:10819C00347F7412484412572B1247D41257347F31
:0C81AC00307E8B7D887C7112572BD2AF87
:0181B80022A4
:106C340090E2CC1216A200000000E490E2CAF090A8
:106C4400E2CAE0FFC394055071EF04FF12A4379029
:106C5400E2CBEFF0A3121629C000C001C002C003AA
:106C640090E2CBE0FF12482B8005C333CE33CED85D
:106C7400F9FFEE3395E0FDFCD003D002D001D00043
:106C840012153B90E2CC121696C2AF7F807E257D12
:106C9400007C0012573490E2CB12467AEF2424127F
:106CA400470412572BD2AF90E2CBE0FF7DFF12A135
:106CB4009790E2CAE004F0026C43C2AF7F0C7E01FD
:106CC4007D0D7C7112571A12487E604390E2CB749A
:106CD40004F090E2CBE0FFC3940850337B017AE2E6
:106CE40079CC125819402090E2CBE0FF7DFF12A32B
:106CF40058C2AF90E2CB12467A12476675523812E8
:106D040046AE1298F8D2AF90E2CBE004F080C30212
:026D1400A7A82E
:10A1970090E2DBEFF0A3EDF012A35890E2DBE0FFD3
:10A1A700A3E0FD12679D90E2DBE0FFA3E0FD024C18
:01A1B700EBBC
:10A3580090E2DDEFF0A3EDF012527F90E2DEE0B480
:0BA36800FF0890E2DDE0FF12A44D2290
:109AEF0090E2E0EDF0C2AF12467CEF24341247044F
:109AFF00C004C005C006C00790E2E0E070047F011B
:109B0F0080027F0012473A1247AC12484BD007D061
:0B9B1F0006D005D0041298F8D2AF2247
:01A7A800228E
:10A3F200C2AF7F011247DA1257347F087E007D0711
:08A402007C7112572BD2AF222E
:10571A008CFB8DFA8EF98FF6ACFFADFEAEFDAFFCB9
:10572A00228CFB8DFA8EF98FF7228CFF8DFE8EFD6F
:03573A008FFC22BF
:10616A00C2AF90E2DD121610EF2478FFE43EFEE49F
:10617A003DFDE43CFC22E4754E01F54DF54CF54B32
:10618A00755201F551F550F54F2290E2DD121610C5
:10619A00EF54107B10FFE4FEFDFCFAF9F8C3021578
:1061AA0063EFF0E4FCFDFEFBFA7901F8121411E446
:1061BA002FFFE43EFEED341EFDEC3471FC2290E22A
:1061CA00DE121610EF5401FFE4FEFDFC22E4754EC8
:1061DA0011F54DF54CF54B2290E2DD121610EF2227
:1061EA00E4FCFDFEEF5401FFE4021587C2AF90E222
:1061FA00E9121610EF22C2AF90E2E1121610EF2454
:10620A009822E4FCFDFEEF5401FFE42290E2DE0254
:10621A001610EFF090E2E2021610C2AF90E2DD1221
:10622A001610EF227552037551017550FF754FFF15
:10623A0022C2AF90E2F1121610EF24542212153B3B
:10624A008F4E8E4D8D4C8C4B2224C5F582E434E45E
:10625A00F583227804121574EF5401FF225420FFAB
:10626A00E4FEFDFC7B20225440FFE4FEFDFC7B4063
:10627A00225480FFE4FEFDFC7B80225404FFE4FEEE
:05628A00FDFC7B042275
:086DF40090E2F0EDF090E2EFF7
:106DFC001261AB90E2F112169690E2EFE0FF12A551
:106E0C00EC90E2F5EFF090E2F0E0FE90E2EFE012B1
:106E1C006253EEF0BF021812623B126175754E039D
:106E2C00754D01754C01754B0012622E026EC61227
:106E3C00623B126175C004C005C006C00790E2F049
:106E4C00E06006E47FA0FE8004E47F20FEE4FDFC0D
:106E5C007810121587C004C005C006C00790E2F573
:106E6C00E0B409047F0180027F00EF60047F0180A1
:106E7C00027F0078011261EAD003D002D001D00069
:106E8C0012153BC004C005C006C00790E2F5E0B483
:106E9C0009047F0180027F00EF60047F0180027F84
:106EAC000012620CD003D002D001D0001262471243
:106EBC00622ED007D006D005D0041298F8D2AF7F3E
:046ECC003202A4B634
:054ADE0090E2DDEFF0A5
:104AE30090E2E874FF1261AC90E2E912169690E24C
:104AF300DDE0FF12A5EC90E2EDEFF0C207C208C2C1
:104B0300AF90E2E912616F124CD978041215741256
:104B130061CEEF700A1261C8EF70047F0180027FDB
:104B23000090E2E6EFF01261F624701261751257FD
:104B33001A90E2DE121696D2AF90E2E6E0601B1204
:104B430061C8EF600912621612625DE48002E4FF3D
:104B5300FEFDFC90E2E6EFF08016C2AF90E2E912B0
:104B6300616F1261D775521112618D1298F8D2AF2D
:104B7300126216EF54017B0112619F7003D380010F
:104B8300C392071261F62468126175124CD9EF546F
:104B930001FF90E2E7EFF020086F90E2EDE0640997
:104BA300706790E2E7E0606112621678151215747F
:104BB3001261CEFB1261A470501261F62448126197
:104BC30075E4F54E1261841298F8D2AF7F3212A4C5
:104BD300B61261F624481261751261801298F8D2F8
:104BE300AF90E2DDE0FF126253E0FD126DF4C2AF5D
:104BF30090E2E912616F1261D775521112618D1241
:104C030098F8D2AFD208024B02126216781012152E
:104C130074E4FDFC90E2E212169690E2EDE0640289
:054C23006003024CAC2F
:104C280012621EE4FFEE5480FEEC7B007A8079FF6E
:104C380078FFC312156370047F0180027F0090E241
:104C4800EE12621C780A121574EF5403FF90E2E822
:104C580012621CE4FFEE5410FEE4FDFCEE60030F4C
:104C680080027F00EF600790E2E8E04410F01262F3
:104C780016EF5480FFEF60047F0180027F00EF6031
:104C88000790E2E8E04420F090E2E6E0600890E275
:104C9800EEE090E2E6F090E2E6E0702F90E2E87451
:024CA800FFF01B
:104CAA00802790E2E6E06021A3E0601DA37412125F
:104CBA00621DEF5480FFEF60047F0180027F00EFE6
:0E4CCA00600790E2E8E04420F090E2E8E0FFAE
:104CD8002212571A90E2DE121696D2AF90E2DE1236
:034CE80016102281
:105C95001261AD90E2E112169690E2E574FFF01202
:105CA5006200126175125DCB12619470047F0180F0
:105CB500027F00EF70501261E21262671261A470F8
:105CC500047F0180027F00EF703C1261E212627175
:105CD5001261A470047F0180027F00EF70281261B9
:105CE500E212627B1261A470047F0180027F00EFE3
:105CF50070141261E21262851261A470047F018042
:105D0500027F00EF6026126200126175E4754EF0A5
:105D15001261DB7552F012618D1298F8D2AF7F01D6
:105D250012A4B6126200126175125DCB1261E254C3
:105D350002FFE4FEFDFC7B021261A470047F01807A
:105D4500027F00EF607A90E2DD1261CB7B01126188
:105D5500A470047F0180027F00EF6064126194707B
:105D6500047F0180027F00EF70561261E2126267C4
:105D75001261A470047F0180027F00EF70421261FE
:105D8500E21262711261A470047F0180027F00EF4C
:105D9500702E1261E212627B1261A470047F018091
:105DA500027F00EF701A1261E21262851261A4701F
:105DB500047F0180027F00EF700690E2E57411F028
:055DC50090E2E5E0FFA3
:0D5DCA002212571A90E2DD121696D2AF2277
:1088750090E2E8EDF0C2AF1261ADC004C005C006DC
:10888500C00790E2E8E070047F0180027F00780471
:108895001261EAC004C005C006C00790E2E8E070B6
:1088A500047F0180027F0012620C7805121587D0C3
:1088B50003D002D001D00012153BC004C005C0068C
:1088C500C00790E2E8E070047F0180027F00126239
:1088D5000C7803121587D003D002D001D0001262A4
:1088E50047E475523812618DD007D006D005D00403
:0A88F5001298F8D2AF7F0102A4B67A
:0854160090E2DBEDF090E2DA18
:10541E001261AB90E2DC12169690E2DBE024FE60A5
:10542E006324FA70030254D224FD60072402600341
:10543E00025525C2AFE4754E011261DB755203129F
:10544E00618D125548EF24201261751261D7755285
:10545E001112618D125582244812617512618012EB
:10546E005582244C126175E4F54E1261DB755211B2
:10547E0012618D125591EF2454126175E4F54EF5BB
:10548E004D0254C4C2AFE4754E011261DB75520376
:10549E0012618D125548EF24481261751261801207
:1054AE005591EF244C1261751255262454126175D4
:1054BE00E4F54E754D011255662494126175E4F5AE
:1054CE004E02551DC2AFE4754E021261DB755203DA
:1054DE0012618D90E2DC1216101298F8D2AF90E2A3
:1054EE00DAE0FF7D01128875C2AF90E2DC12161071
:1054FE00EF24201261751255262454126175E4F5BD
:10550E004EF54D1255662494126175E4754E0112D6
:07551E0061841298F8D2AF7E
:1055250022E4754E01F54DF54CF54B755211F551CB
:10553500F550F54F1298F8D2AFC2AF90E2DC1216D3
:1055450010EF2290E2DC1216101298F8D2AF90E21A
:10555500DAE0FF7D01128875C2AF90E2DC12161009
:1055650022F54CF54BF552755101F550F54F129852
:10557500F8D2AFC2AF90E2DC121610EF221298F803
:10558500D2AFC2AF90E2DC121610EF221298F8D219
:0A559500AFC2AF90E2DC1216102244
:107815001261AD90E2DD12169690E2E574FFF0126A
:10782500616A1278B71261CBEF603312616A126137
:10783500801298F8D2AF1262242448126175E4F5DB
:107845004E1261841298F8D2AF7F0512A4B6126267
:107855002424481261751261801298F8D2AF126122
:107865006A1278B712161078041215741261CEEFE9
:10787500601512616AE4754E101261DB75521012C3
:10788500618D1298F8D2AF126224247012617512BC
:10789500571A90E2E1121696D2AF90E2E112161055
:1078A50012625DEF600690E2E57413F090E2E5E0A8
:0178B500FFD3
:1078B6002212571A90E2E1121696D2AF90E2E12216
:10722E00E4FCFDFEEF5401FFE41215878F4E8E4DE8
:10723E008D4C8C4B22E4FCFDFEEF5401FFE4221238
:10724E001610EC4D4E4F22C2AFE4F54EF54DF54CF7
:10725E00F54B22121610EF5407FFE4FEFDFC22C27E
:10726E00AF7F887E007D0D7C7122121610EF543F89
:10727E00FFE4FEFDFC22121610781F121574EF5457
:10728E0001FFEF22121610EF540FFFE4FEFDFC7803
:10729E000D22C2AF7F087E017D0D7C712212161069
:1072AE00EF5403FFE4FEFDFC22F551F550F54F229D
:1072BE007552007551E0755001754F0022E4F5527C
:1072CE00F551F55022C2AFE4F54EF54DF54C2212B4
:1072DE00153BA804A905AA06AB0722E4F552F55101
:1072EE00755007F54F22FFEC8F4E8E4D8D4CF54BA2
:0172FE00226D
:109F3700C2AFEC5401FCEC4480FC1257341272A2FD
:109F470012572BD2AF1272A012571A90E39412161F
:0B9F570096D2AF90E39412728470EA7F
:019F620022DC
:109D6A00C2AFEC5401FCEC4440FC1257341272A20C
:109D7A0012572BD2AF1272A012571A90E3941216EE
:109D8A0096D2AF90E394121610781E12728970E57B
:019D9A0022A6
:0600160090E2DFEFF0FBB9
:10001C0090E2E41216A20000000090E2E81216A290
:10002C000000000090E2EC1216A20000000090E22A
:10003C00F01216A20000000090E2F41216A20000CA
:10004C00001890E2F81216A20000000090E2FC12D8
:10005C0016A20000000290E3001216A2000000009D
:10006C0090E3041216A20000000390E3081216A2FB
:10007C000000000790E30C1216A20000000090E3B1
:10008C00101216A20000000090E3141216A2000039
:10009C00000090E3181216A20000000090E31C125E
:1000AC0016A20000007890E3201216A200000000B7
:1000BC0090E3241216A20000000090E3281216A26E
:1000CC000000000090E32C1216A20000000090E348
:1000DC00301216A20000000390E3341216A20000A6
:1000EC00000090E3381216A20000000090E33C12CE
:1000FC0016A20000000090E3401216A200000001BE
:10010C0090E3441216A20000000190E3481216A2DC
:10011C000000000190E34C1216A20000000190E3D5
:10012C00501216A20000000190E3541216A2000017
:10013C00000190E3581216A20000000490E35C1238
:10014C0016A20000000090E3601216A2000000004E
:10015C0090E3641216A20000000190E3681216A24C
:10016C000000000190E36C1216A20000000190E365
:10017C00701216A20000000190E3741216A2000087
:10018C00000090E3781216A20000000090E37C12AD
:10019C0016A20000000090E3801216A200000000DE
:1001AC0090E3841216A20000000090E3881216A2BD
:1001BC000000001F90E38C1216A20000000190E3D7
:1001CC00901216A20000001FEB121708064F000534
:1001DC00B00202A70503360603C507042508054A25
:1001EC0009062D1106391201FA1300000C6890E271
:1001FC00E41216A20000000090E2E81216A2000021
:10020C00000090E2F01216A20000000090E2F4123E
:10021C0016A20000003F90E30C1216A20000000092
:10022C0090E3101216A20000000090E3181216A220
:10023C000000000090E31C1216A20000003C90E3AA
:10024C00241216A20000000090E3281216A200004F
:10025C00000190E32C1216A20000000090E3301273
:10026C0016A20000000190E3341216A20000000058
:10027C0090E3041216A20000000390E3381216A2B9
:10028C000000000190E33C1216A20000000190E275
:10029C00FC1216A20000000302068B90E2E4121678
:1002AC00A20000000090E2E81216A20000000090EC
:1002BC00E2F01216A20000000090E2F41216A20066
:1002CC0000003F90E30C1216A20000000090E31017
:1002DC001216A20000000090E3181216A2000000F3
:1002EC000190E31C1216A20000003090E3241216B9
:1002FC00A20000000190E3281216A2000000019059
:10030C00E32C1216A20000000090E3301216A2009B
:10031C0000000190E3341216A20000000090E304E8
:10032C001216A20000000402068B90E2E41216A240
:10033C000000000090E2E81216A20000000090E21B
:10034C00F01216A20000000090E2F41216A20000B7
:10035C00001890E30C1216A20000000090E310129B
:10036C0016A20000000090E3181216A20000000074
:10037C0090E31C1216A20000007890E3241216A23F
:10038C000000000090E3281216A20000000090E389
:10039C002C1216A20000000090E3301216A20000EE
:1003AC00000390E3341216A20000000090E3041244
:1003BC0016A20000000502068B90E2E41216A200C1
:1003CC0000000190E2E81216A20000000090E2F09A
:1003DC001216A20000000290E2F41216A200000015
:1003EC003090E30C1216A20000000090E3101216DD
:1003FC00A20000000090E3181216A200000000906A
:10040C00E31C1216A20000003C90E3241216A2007A
:10041C0000000090E32802059D90E2E41216A20071
:10042C0000000190E2E81216A20000000190E2F038
:10043C001216A20000000090E2F41216A2000000B6
:10044C003090E30C1216A20000000090E31012167C
:10045C00A20000000090E3181216A2000000009009
:10046C00E31C1216A20000003C90E3241216A2001A
:10047C0000000090E3281216A20000000090E32C6C
:10048C001216A20000000190E3301216A200000028
:10049C000190E3341216A20000000190E300121642
:1004AC00A20000000290E2FC1216A20000000A90CA
:1004BC00E34C1216A20000000090E3541216A200A6
:1004CC0000000090E3741216A20000000190E37883
:1004DC001216A20000000190E37C1216A20000008C
:1004EC000190E3801216A20000000190E364121642
:1004FC00A20000000090E3681216A2000000009019
:10050C00E36C1216A20000000090E3701216A20019
:10051C0000000090E3841216A20000000090E38813
:10052C001216A20000001F90E38C1216A20000000D
:10053C003F90E3901216A20000001F02068B90E27F
:10054C00E41216A20000000090E2E81216A20000CD
:10055C00000190E2F01216A20000000290E2F412E8
:10056C0016A20000003090E30C1216A2000000004E
:10057C0090E3101216A20000000090E3181216A2CD
:10058C000000000090E31C1216A20000003C90E357
:10059C00241216A20000000090E32C1216A20000F8
:1005AC000001806E90E2E41216A20000000090E2BE
:1005BC00E81216A20000000090E2F01216A2000051
:1005CC00000090E2F41216A20000003F90E30C121F
:1005DC0016A20000000190E3101216A20000000108
:1005EC0090E3181216A20000000190E31C1216A250
:1005FC000000003090E3241216A20000000190E3EA
:10060C00281216A20000000190E32C1216A2000082
:10061C00000090E3301216A20000000190E3348039
:10062C005790E2F81216A200000001805290E35C91
:10063C001216A20000000290E3601216A20005F24E
:10064C0089803C90E3401216A20000000090E34425
:10065C001216A20000000090E3481216A20000003F
:10066C000090E34C1216A20000000090E35012160A
:10067C00A20000000090E3541216A20000000090AB
:10068C00E2E0121610129D6AC2AF90E2F812724D9F
:10069C0060047F0180027F00781F12722E1272CBD1
:1006AC00754F80120DB990E2DFE0B41104A3020C77
:1006BC0062C2AF90E3601216101257347F9C127214
:1006CC007112572BD2AFC2AF90E35C1272617810EB
:1006DC001272371272E97F90120E031272D5120C3D
:1006EC00EAE4F54E120CCEC2AF90E34C12724D60A0
:1006FC00047F0180027F00E4FCFDFEEF5401FFE467
:10070C00C004C005C006C00790E34812724D6004D7
:10071C007F0180027F001272437805121587D00387
:10072C00D002D001D00012153BC004C005C006C0D9
:10073C000790E35012724D60047F0180027F00121B
:10074C0072437802121587D003D002D001D0001268
:10075C00153BC004C005C006C00790E35412724D8F
:10076C0060047F0180027F001272437801121587AA
:10077C00D003D002D001D00012153BC004C005C07C
:10078C0006C00790E34012724D60047F0180027F27
:10079C00001272437804121587D003D002D001D016
:1007AC000012153B12723AE475523F1272B77FC0B9
:1007BC00120C8D120E10C2AF90E2E412724D600456
:1007CC007F0180027F00127243781E127237127200
:1007DC00CB754F40120DB9C2AF90E2E81272787827
:1007EC0017127237E4F552F551755080754F1F1280
:1007FC000DC690E2EC121610EF541FFFE4FEFDFC48
:10080C007812127237E4F552F55175507CF54F128F
:10081C000DC690E2F01272617806127237E47552CE
:10082C00C0755101120D9390E2F4121610EF543F63
:10083C00FFE48F4E12725A75523FF551120D939080
:10084C00E2FC1272921272371272BE7FBC120DE46D
:10085C0090E3001272AB7808127237E4F5527551BE
:10086C0003120D5290E3041272617801127237E494
:10087C0075520EF551120D52127257F55275518078
:10088C00755003120DD5120C6990E37812724D60FD
:10089C00047F0180027F001272437802121587C018
:1008AC0004C005C006C00790E37412724D60047F4B
:1008BC000180027F001272437803121587D003D097
:1008CC0002D001D00012153BC004C005C006C00701
:1008DC0090E37C12724D60047F0180027F001272E3
:1008EC00437801121587D003D002D001D0001272C8
:1008FC00DD90E38012724D60047F0180027F001254
:10090C00724312153B12723AE475520F120D179086
:10091C00E36812724D60047F0180027F0012724303
:10092C007806121587C004C005C006C00790E364A2
:10093C0012724D60047F0180027F001272437807AF
:10094C00121587D003D002D001D00012153BC00481
:10095C00C005C006C00790E36C12724D60047F01A5
:10096C0080027F001272437805121587D003D002E3
:10097C00D001D00012153BC004C005C006C00790C2
:10098C00E37012724D60047F0180027F001272438B
:10099C007804121587D003D002D001D00012153B79
:1009AC0012723AE47552F0120D1790E358121610A9
:1009BC00EF5407FFE48F4E12725A7552071272B73A
:1009CC007FC8120E0390E388127278780C12158788
:1009DC00C004C005C006C00790E384127278781278
:1009EC00121587D003D002D001D00012153BC004E1
:1009FC00C005C006C00790E38C12727878061215F9
:100A0C0087D003D002D001D0001272DD90E3901297
:100A1C00727812153B12723A74FF1272CC754F0039
:100A2C007FCC120DE4E4F54EF54D754C01120D65BD
:100A3C00C2AF90E30C1272AB7804127237E47552A9
:100A4C0030120D7E90E31012724D60047F01800213
:100A5C007F00EF5401FFE48F4E12725A755201124F
:100A6C000D7E90E31412724D60047F0180027F00B2
:100A7C00780F12722EE4F552755180120D0490E32A
:100A8C001812724D60047F0180027F00127243784D
:100A9C000E127237E4F552755140120D0490E31C9E
:100AAC00121610E4FEFDFC7806127237E47552C083
:100ABC0075513F120DA690E32012724D60047F0118
:100ACC0080027F001272437801127237E475520271
:100ADC00F551120DA690E32412724D60047F018033
:100AEC00027F00EF5401FFE48F4E12725A755201CF
:100AFC001272B77FE8120C8D127255F55275513087
:100B0C00120D3FE4F54EF54D754C02120CEA90E3D4
:100B1C004412724D60047F0180027F001272437890
:100B2C000E127237E4F552755140120D3F90E328C6
:100B3C0012724D60047F0180027F001272437803B1
:100B4C00127237E4755208120CB990E32C12724DE4
:100B5C0060047F0180027F001272437802127237A8
:100B6C00E4755204120CB990E330121610EF5403D2
:100B7C00FFE48F4E12725A7552031272B77FE4FE65
:100B8C007D0D7C711298F8D2AFC2AF90E334127223
:100B9C004D60047F0180027F00127243780812724C
:100BAC0037E4F552755101120DF2C2AF90E33812D1
:100BBC00724D60047F0180027F001272437805122F
:100BCC007237E4755220120D2CC2AF90E33C1272B6
:100BDC004D60047F0180027F001272437804127210
:100BEC0037E4755210120D2C120E10C2AFE4754E74
:100BFC0020120CCE120E1A7F1412A4B6C2AFE475DA
:100C0C004E0812725A755208F551F550120DD51244
:100C1C007255755201F551120DF2120E1A7F3C12DB
:100C2C00A4B6120C6990E308127261780F12723735
:100C3C00755200755180755003754F007FC012724C
:100C4C00711298F8D2AFC2AFE4F54E754D30F54C39
:0C0C5C00120D6590E2E0121610129F3796
:100C680022C2AFE4F54EF54DF54CF54B7552807543
:100C78005101F550F54F7FC0FE7D0D7C711298F83B
:100C8800D2AFC2AF22FE7D0D7C711298F8D2AFC2EE
:100C9800AFE4754E01F54DF54CF54B755201F55124
:100CA800F550F54F7FA8FE7D0D7C711298F8D2AFF4
:100CB80022F551F550F54F7FE4FE7D0D7C711298B9
:100CC800F8D2AFC2AF22F54DF54CF54B755220F571
:100CD80051F550F54F7FE8FE7D0D7C711298F8D2E2
:100CE800AF22F54BF552F551755002F54F7FE4FEF2
:100CF8007D0D7C711298F8D2AFC2AF22F550F54F36
:100D08007FE8FE7D0D7C711298F8D2AFC2AF22F554
:100D180051F550F54F7FC4FE7D0D7C711298F8D2C5
:100D2800AFC2AF22F551F550F54F7FA8FE7D0D7C7F
:100D3800711298F8D2AF22F550F54F7FE4FE7D0D81
:100D48007C711298F8D2AFC2AF22F550F54F7FBC34
:100D5800FE7D0D7C711298F8D2AFC2AF22F54BF52B
:100D6800527551F0755001F54F7FC4FE7D0D7C71B1
:100D78001298F8D2AF22F551F550F54F7FE0FE7D7D
:100D88000D7C711298F8D2AFC2AF22F550F54F7FA3
:100D9800DCFE7D0D7C711298F8D2AFC2AF22F550FF
:100DA800F54F7FE8FE7D0D7C711298F8D2AFC2AF87
:100DB800227FD8FE7D0D7C711298F8D2AF227FD8A1
:100DC800FE7D0D7C711298F8D2AFC2AF22F54F7F2D
:100DD800C0FE7D0D7C711298F8D2AF227E007D0D89
:100DE8007C711298F8D2AFC2AF22F550F54F7FA8A8
:100DF800FE7D0D7C711298F8D2AF22FE7D0D7C71BC
:100E08001298F8D2AFC2AF2290E2E0121610129FE9
:0C0E1800372290E2E0121610129F3722E1
:0FA5DD0090E2E01216A2000000047F05020016B3
:10A4F100C00790E2DB12161090E2E0121696D00728
:03A501000200163F
:109E8400C2AFEE5401FEE4FD7480FC12573412722A
:109E94006F12572BD2AF12726D12571A90E303123E
:0C9EA4001696D2AF90E30312728470EAAD
:019EB000228F
:109CD500C2AFEE5401FEE4FD7440FC12573412721B
:109CE5006F12572BD2AF12726D12571A90E30312EF
:109CF5001696D2AF90E303121610781E1272897071
:019D0500E578
:019D0600223A
:0636690090E2DAEFF0FB35
:10366F0090E2DF7401F0E4A3F0A3F0A3F0A312162D
:10367F00A20000000090E2E71216A20000000090E6
:10368F00E2EB1216A20000000290E2EF1216A20067
:10369F0000000690E2F31216A20000000090E2F77D
:1036AF001216A20000000090E2FB1216A20000000A
:1036BF000290E2FF1216A200000001EB607024F8E6
:1036CF00601D14605D24F8607614607B240B60032A
:1036DF0002396390E2E31216A20000000C807C9086
:1036EF00E2E31216A20000000C90E2E07401F090E9
:1036FF00E2E71216A20000000290E2EB1216A200FF
:10370F0000000390E2E17401F090E2EF1216A200C4
:10371F0000000090E2FB1216A20000000A90E2FFE8
:10372F00801490E2E31216A20000000F802DE490A7
:10373F00E2DFF090E2E31216A200000000801C907E
:10374F00E2E27401F0801490E2F31216A20000007E
:10375F000290E2F71216A20005F28990E2DB121630
:10376F0010129CD5C2AF90E2E2E060047F018002AC
:10377F007F001272437809127237E4F552755102C5
:10378F00F550F54F7F58FE7D0D7C711298F8D2AF32
:10379F0090E2DAE0B41104A302395DC2AF90E2F710
:1037AF001216101257347F7412727112572BD2AF38
:1037BF00C2AF90E2F312726178101272371272E98F
:1037CF007F6812398290E2E312729212723712728C
:1037DF00BE7F5412727112399990E2FF12724D60CE
:1037EF00047F0180027F00127243780D121587C08B
:1037FF0004C005C006C00790E2E0E060047F0180CE
:10380F00027F00127243781B121587D003D002D0AB
:10381F0001D00012153BC004C005C006C00790E2DE
:10382F00E1E060047F0180027F00127243780C1286
:10383F001587D003D002D001D00012153BEF440DF5
:10384F001272F475520F755130755000754F087F15
:10385F005012727112399990E2E71272AB780B1213
:10386F001587C004C005C006C00790E2FB12729214
:10387F00121587D003D002D001D00012153BC0041F
:10388F00C005C006C00790E2EB12726178081215EE
:10389F0087D003D002D001D00012153BC004C00561
:1038AF00C006C00790E2EF1272617805121587D03B
:1038BF0003D002D001D00012153B12723A7552E0BC
:1038CF007551FF1272C47F4C1272711298F8D2AFF9
:1038DF00C2AF90E2E0E060047F0180027F001272CD
:1038EF00437808121587EF44011272F4E475520100
:1038FF00755101123964C2AFE4754E8012725A7558
:10390F0052801272B77F6012398290E2DFE060045A
:10391F007F0180027F001272437812127237E4F532
:10392F0052F551755004F54F12397512398F1272C5
:10393F00D3754B801272CC754F8012397512398F37
:10394F00127255755201F55112396490E2DB12165D
:04395F0010129E8420
:1039630022F550F54F7F7CFE7D0D7C711298F8D2C5
:10397300AF227F5CFE7D0D7C711298F8D2AF22FEE0
:103983007D0D7C711298F8D2AFC2AF2290E2DB12A8
:0E3993001610129E84221298F8D2AFC2AF22F4
:1078C600C2AFE4F54E754D76F54CF54B7552FF7526
:1078D60051FFF550F54F7F10127969127255F55226
:1078E600755180F55012795BC2AFE4F54EF54D75D2
:1078F6004C38F54BF552F55175507C12795B127286
:10790600D3754B02F552F551755080754F07FF122E
:107916007969C2AFE4754E0212725A1279457F0236
:1079260012A4B61272551279457F3212A4B6C2AFAE
:0E7936007F1C12727112571AD2AFEF5401FF6C
:1079440022755202F551F550F54F7F08FE7D0D7CEE
:10795400711298F8D2AF22F54FFFFE7D0D7C7112A3
:1079640098F8D2AF22FE7D0D7C711298F8D2AF2226
:108A0E002020202020202020202D00010203030002
:108A1E000100410404000000400707000300430862
:108A2E0008000200022121001000461E1E00070051
:108A3E004522230011FFFF0909000900470A0A0019
:108A4E000A00480B0B000B00490C0C000C004A0DE1
:108A5E000D000D004B0E0E000E004C0F1000070007
:108A6E0044111200040045131F000F008114200052
:108A7E0005005E15230006FFFF12230080FFFF1680
:058A8E00230013FFFFAF
:102B6C0041E485004CE492004700480049004A00CB
:102B7C004B004C4CE4860009000A000B000C000DC5
:022B8C00000E39
:0AA6A5007E0190E2D27406F0A322B9
:0A8B990090E2E3ECF0A3EDF0AB076F
:108BA300A31216A200000000C390E2E3E0648094E5
:108BB300F04006E4FFFEFDFC22C2AFAF03E48F4E9C
:108BC300F54DF54CF54B7552FF755103F550F54FC7
:108BD3007F787E057D017C711298F8D2AF90E2E335
:108BE300E0FEA3E0FFEE3395E0FDFCE47B04FAF93D
:108BF300F8121411E42FFFE43EFEED3401FDEC34D2
:108C030071FCC2AF12571A90E2E5121696D2AF90DA
:058C1300E2E51216105D
:018C18002239
:0582EA0090E2DAEFF064
:1082EF00ED64414C70087B017AE47992800CED6467
:1082FF00014C700E7B017AE4798690E2E01216FF52
:10830F00800890E2DAE0FF028B99E490E2DFF090D0
:10831F00E2DB1216A20000000090E2DB121629C069
:10832F0000C001C002C00390E2E01216DF90E2DF4E
:10833F00E075F002A4F58285F083121372FDACF0A4
:10834F0090E2DAE0FF128B99D003D002D001D00077
:10835F001213F690E2DB12169690E2DFE004F0E0E3
:0B836F00C3940640B490E2DB1216102D
:01837A0022E0
:10A37300C2AFE4FCFD741CFEE41257347F787E0503
:0AA383007D017C7112572BD2AF222E
:0558910090E2CFEFF0F2
:10589600E4A3F090E2D0E0FFC3941440030259D38E
:1058A600E4FEEF70140E90E2D2740AF0A37417F0BF
:1058B600A37419F0A314F08026EFB4071012A6A55E
:1058C6007419F0A37411F0A3741AF08012EFB40DDA
:1058D6000E12A6A5741BF0A37411F0A3741CF0EEAF
:1058E60060211259D4129D9B1259E5129D9B1259A3
:1058F600D412A55C12A3051259E512A55C12A305E4
:1059060012A6B9E490E2D1F090E2D0E075F006A4D8
:10591600241DF582E4348AF583C083C08290E2D1E7
:10592600E0FBD082D08375F0021216D3E493FE74A6
:105936000193FFEE3395E0FDFC90E2D6121696EB4E
:105946005401908A1993FF129D9B90E2D1E0FF903B
:10595600E2D0E075F006A4241BF582E4348AF583D0
:10596600E5822FF582E43583F583E493FF7D1712F4
:105976009DCA74FFFFFEFDFC90E2D6121629C312E3
:105986001563601790E2D6121610AD07AC0690E2CA
:10599600CFE0FF1282EA12A62680097BFF7A8A7977
:1059A6000E12A2767F0212A38D90E2D1E004F0E0FF
:1059B600C39402500302590E12A6B990E485E06022
:0D59C60003E4F02290E2D0E004F0025899D2
:1059D3002212A6B990E2D2E0FF12A38D90E2D3E0A7
:1059E300FF2290E2D4E0FF12A38D90E2D5E0FF22E4
:1085BA00C2AF90E2E6E0FF7E007C007D04121768FD
:1085CA00EF2410FFEE3401FEED3407FDEC3471FCAC
:1085DA00221216108F4E8E4D8D4C8C4B90E2CD127E
:1085EA0016108F528E518D508C4F22E0F9F81215C9
:1085FA0087ED543FFDE48F4E8E4D8D4C22FFE4FCF7
:10860A00FDEE540FFEE4780C02158790E2E9E0A42F
:10861A00FFEF540FFFE4FEFDFC22C2AFE4F54EF576
:10862A004DF54CF54B22AB07E47F01FEFDFC22F52C
:0D863A004B7552FF7551FF75503FF54F22F3
:056A660090E2CCEDF010
:106A6B00128630A803121587A312169612862412CB
:106A7B0085E67F4C126B3590E2CCE024FD5008602C
:106A8B003F146050026AFF128624126B007F58126B
:106A9B006B35C2AF90E2CCE07006A31216108005E6
:106AAB00E4FFFEFDFC1285DE7F44126B4190E2CCCD
:106ABB00E06402703FC2AFA31285DB7F4C026AF425
:106ACB00C2AF90E2CD1216101286008C4B126B00E7
:106ADB007F5880151286241285E67F54126B41C2B3
:106AEB00AF90E2CD1285DB7F587E007D077C711263
:046AFB0098F8D2AF86
:106AFF002290E2CD1216108F528E518D508C4F7FF7
:106B0F00547E007D077C711298F8D2AFC2AFE4F5C6
:106B1F004EF54DF54CF54B90E2CD1216108F528E6F
:106B2F00518D508C4F227E007D077C711298F8D2C8
:0E6B3F00AF227E007D077C711298F8D2AF2243
:1099BA00128630A80312158790E2DC121696C2AFFF
:1099CA007F407E007D077C7112571A90E2E01216E2
:1099DA0096D2AF90E2DC12161090E2E0121629122B
:0E99EA00152EEC4D4E4F60047F0180027F0071
:0199F800224C
:109D070090E2DAEFF0ED600FC2AF1286321285F5FE
:109D17001286397F348010C2AF12863290E2DA128F
:109D270085F51286397F38FE7D077C711298F8D247
:029D3700AF2259
:0B59F30090E2E6EFF0A3EAF0A3EBF077
:1059FE00E4A3F0ED14604D147003025AA01470036A
:105A0E00025AEA24036003025B3F1285BAC004C047
:105A1E0005C006C007A3E0FEA3E0128607A804A9EE
:105A2E0005AA06AB07A3E0540FFFE4FCFDFE12151A
:105A3E003B1286008C4BE4755201755170F550F592
:105A4E004F025B321285BAC004C005C006C0079073
:105A5E00E2E9E025E012861AC004C005C006C007C0
:105A6E0090E2E7E0FEA3E07803C333CE33CED8F95D
:105A7E00128607D003D002D001D00012153B128639
:105A8E00008C4B755202755180755003754F000294
:105A9E005B321285BAC004C005C006C00775F0049B
:105AAE00128615C004C005C006C00790E2E7E0FEEE
:105ABE00A3E07806C333CE33CED8F9128607D003CF
:105ACE00D002D001D00012153B1286008C4B7552BD
:105ADE000475510075501C754F0080481285BAC070
:105AEE0004C005C006C00775F008128615C004C0B4
:105AFE0005C006C00790E2E8E07F0025E0FEEE5408
:105B0E000FFEED780C121587D003D002D001D00015
:105B1E0012153B1286008C4B75520875510075504C
:105B2E00E0754F00D007D006D005D0041298F8D2F9
:065B3E00AF7F0102A4B6D6
:1075FA00E490E2CAF090E2CAE0FFC39404500D7D21
:10760A0003126A6690E2CAE004F080E9C2AF7F80A2
:10761A007EF47D397C001257347F081276A3C2AFFC
:10762A00E4F54E754D32F54CF54BF5527551FF7533
:10763A00500FF54F7F0C7E017D077C711298F8D2AE
:10764A00AFC2AF7FFF7E0D7D007C001257347F9062
:10765A001276A3E490E2CAF090E2CAE0F9C3940B6E
:10766A005036E47FFF7E0DFDFCA801121574EF541D
:10767A0001FFE4FEFDFCEF6017E0FF7B017A0012D8
:10768A0059F390E2CAE0FF7B017A007D011259F3B7
:08769A0090E2CAE004F080C098
:0D76A200227E017D077C7112572BD2AF2292
:102B8E0048E4B500AB00AB0057001F48E4BD037D21
:062B9E00037D00A9004BBD
:1096A300C2AF90E2D0E0FFE4FCFDFEFBFA7901F8E3
:1096B300121411E42FFFE43EFEED341EFDEC347171
:1096C300FCEF22F583E0FEA3E0FFE48F4E8E4DF521
:1096D3004CF54B74FFF552F551F550754F002224AC
:1096E30010FFE43EFEE43DFDE43CFC2290E2D102A7
:0296F30016DF80
:10931C0090E2CB7401F090E2CAF090E2CAE0FFD385
:10932C0094055040EF94084017EF940B501290E2C4
:10933C00CCE4F0A37457F0A3E4F0A374A9F080106C
:10934C0090E2CCE4F0A3741FF0A3E4F0A3744BF010
:10935C0012A4377B017AE279CB12837B90E2CAE0CC
:10936C0004F080B6E4FF1295A77F011295A77F0247
:03937C000295A7B0
:10837B0090E2D0EFF0A31216FFC2AF121299600475
:10838B007F0180027F00E4FCFDFEEF5401FFE478E7
:10839B00021215878F4E8E4D8D4C8C4BE47552040B
:1083AB00F551F550F54F7FA0FE7D0E7C711298F8BC
:1083BB00D2AF1296EF12129960461296A31296E262
:1083CB00C006C0071296EF900001121372FFAEF0B9
:1083DB001296CDD007D0061298F8D2AF1296A324DE
:1083EB00141296E4C006C0071296EF900003121306
:1083FB0072FFAEF01296CDD007D0061298F8D2AF1E
:01840B00224E
:05937F0090E2DDEFF0BB
:1093840012A3C0EF540390E2DEF0C2AF90E2DD120C
:1093940096A81296E2C006C00790E2DEE025E0241B
:1093A400B5F582E434E41296C6D007D0061298F8D4
:1093B400D2AFC2AF90E2DD1296A824141296E4C094
:1093C40006C00790E2DEE025E024BDF582E434E443
:0C93D4001296C6D007D0061298F8D2AF4F
:0193E000226A
:109B2A00204D415820414345206C696D697420726B
:109B3A0065616368656400000000000000000000C1
:109B4A00000000000000000000000000000000000B
:0B9B5A00000000000000000000000000
:1039A100E47F01FEFDFC90E364E0FAA3E0FBF9F89B
:1039B100121587EF24FFFFEE34FFFEED34FFFDEC1F
