:0C2A3100C10701550001560002530000CF
:10938D007E007D107C7022F54DF54CF54B22F5518C
:05939D00F550F54F2220
:105EC100E4754EC01293947552C012939B7F54FE99
:105ED1007D077C7112889FE4754E831293947552ED
:105EE10083125F8D7F88125FB87F0012938D1253EA
:105EF1007C7F00125FB87F0412938D12537CE4F50E
:105F01004E129394755280125F8DE4754E07129371
:105F11009475520712939B7F08FE7D107C70128846
:105F21009FE4754E0112939475520112939B7F0465
:105F3100FE7D10125FACC0E0EDC0E0EEC0E0EFC04E
:105F4100E0125F9ED0E0FFD0E0FED0E0FDD0E08F18
:105F51004E8E4D8D4CF54B7F9C7E007D00125FACCB
:105F6100C0E0EDC0E0EEC0E0EFC0E0125F9ED0E027
:105F7100FFD0E0FED0E0FDD0E08F4E8E4D8D4CF590
:105F81004B7F907E007D007C7002889FF551F5501B
:105F9100F54F7F0CFE7D107C7012889F227F0612C8
:105FA100539F8F528E518D508C4F227C7012889F3F
:105FB1007F0612539FEC227E007D007C00125385E8
:015FC10022BD
:107A3E00C2AF7F08127ABBE529540FFFE48F29F5F8
:107A4E0028F527F5267F04FEFDFCAB29AA28A927D9
:107A5E00A826C3121E33600EE47F0CFEFDFCA82682
:107A6E00C3121E3370447F00127ABBE5552401FD0C
:107A7E00E433FCE5566D7001EC7004D207800E7491
:107A8E005B2555F8EFF6E55504541FF5557F141296
:107A9E00938D12536B8F298E288D278C267B007A1F
:0C7AAE00007926E4FF12546A40BCD2AFFD
:107ABA00227E007D107C7012536B8F298E288D27B1
:037ACA008C2622E5
:0A95C000E55565566002D322C32270
:0E952600745B2556F8E6FFE55604541FF55613
:019534002214
:0286EA008F2FD0
:1086EC00E554455360130554E554AE5370020553DD
:1086FC0014F5828E83E52FF022C2AF7F1412938D76
:10870C0012536B8F338E328D318C30D2AF7B007A1B
:10871C000079307F0612546A50DFC2AFAF2FE4FCF1
:0F872C00FDFE1253857F0012938D12537CD2AF46
:01873B00221B
:102A3D00021C0000C100C102C101011B00C103C184
:102A4D000444E4BA0000000001180A01190A011A31
:012A5D000A6E
:079679007E007D007C7022E1
:1079AB007F09127A347FFC12967912537C7F041272
:1079BB00539FECC0E0EDC0E0EEC0E0EFC0E0127A08
:1079CB0026D0E0FFD0E0FED0E0FDD0E08F4E8E4D14
:1079DB008D4CF54B7F9812967912889F7F0412532A
:1079EB009FECC0E0EDC0E0EEC0E0EFC0E0127A2605
:1079FB00D0E0FFD0E0FED0E0FDD0E08F4E8E4D8D7D
:107A0B004CF54B7F9012967912889F7F03127A3434
:107A1B007F087E017D007C7002537C7F0412539F94
:107A2B008F528E518D508C4F227E007D007C001228
:037A3B005385224E
:108B8700051DE51D7002051CD2041518E518702691
:108B970075180AD2001519E519701075190AD2024D
:108BA700151AE51A7005751A0AD201300308151B44
:068BB700E51B7002C20381
:018BBD002295
:0A95CA00C2038F1BD2032003FD2211
:10934600C204CEEFCE1FEED3940074809480400703
:089356003004FDC20480EB228B
:07967200C2038F1BD203228B
:0496CC00A203B32220
:1094F4008F4E8E4D8D4C8C4B7F807E007D007C701A
:019504002244
:09962400D2BAD2AAC2B8D2A8221F
:030013000282D096
:0D82D000C0E0C0F0C083C082C0D075D010E7
:1082DD00C2AF7FAC1294FE12536B8F258E248D236B
:1082ED008C22D2AF7B007A0079227F0612546A501D
:1082FD002F127A3EC2AF7F0612539FC014C015C015
:10830D0016C0177F0612539F8F528E518D508C4F72
:10831D00D017D016D015D0141294F412889FD2AF66
:0B832D00D0D0D082D083D0F0D0E0325E
:030003000283383D
:0D833800C0E0C0F0C083C082C0D075D00886
:10834500C2AF7FA81294FE12536B8F2D8E2C8D2BEE
:108355008C2AD2AF7B007A00792A7F0412546A50A6
:108365002F128B87C2AF7F0412539FC00CC00DC064
:108375000EC00F7F0412539F8F528E518D508C4F1C
:10838500D00FD00ED00DD00C1294F412889FD2AF1E
:0B839500D0D0D082D083D0F0D0E032F6
:10903200456E746572203F20746F206765742074DA
:10904200686520434C492068656C7020636F6D6DC4
:04905200616E6400E7
:072A5E0044E4BE000000008B
:0C958700128E71EF60057F0512969C2289
:0C95930030000812943512885AC20022E1
:09962D0030020512940BC2022266
:108FE800300121129237129587C20190E4BE121EF9
:108FF80076EF2401FFE43EFEE43DFDE43CFC90E412
:05900800BE121EDC2277
:10787C0012774690E2C9EFF07FD37E007D017C0049
:10788C001253857F547E007D077C7112537C1279D4
:10789C00AB125EC1129624D2AF7F1412934612958E
:1078AC00F21295F2127F8D1290561294BE1294D051
:1078BC0012760D1296D91293F61296A2EF6003125D
:1078CC008FC212717212639F128100EF6003128FCC
:1078DC00C2129146125A3F1295F27BFF7A9079327E
:1078EC001296B47F3E1286EA1296A2EF60031296AD
:1078FC005A1284071296AEEF70EE12959312962DD3
:08790C00128FE875870180E08D
:107C740025252053797374656D2068616E67696E7C
:107C84006720283078004275696C6420446174650B
:107C94002020202020203A2000536F6674776172E0
:107CA400652056657273696F6E3A2000436F646590
:107CB400205265766973696F6E2020203A2000484F
:107CC40057205265766973696F6E20202020203A10
:107CD4002000436869702046616D696C792020201A
:107CE40020203A20003735317800205265762E0066
:0A7CF40020556E6B6E6F776E2E0048
:082A650041E4C20041E4C3009A
:0A95D400E0FEA3E0AA06F97BFF22E7
:08965A0075F2AF12935E80FE71
:108FC2001296A290E2CAEFF07FE81293467BFF7AF4
:108FD2007C79741292DF90E2CAE0FF1291E0129063
:068FE200561294BE80E26D
:06969C0090E4C3EFF02290
:0696A20090E4C3E0FF228A
:0696A80090E4C2EFF02285
:0696AE0090E4C2E0FF227F
:1094BE007BFF7A7C798A1292DF90E4B41295D40203
:0294CE0096B452
:109056007BFF7A7C799D1292DF90E4B61295D4124A
:1090660096B47BFF7A7C79B01292DF90E4B81295C1
:04907600D40296B4D6
:1094D0007BFF7A7C79C31292DF1277461296D6020E
:0294E00095F203
:107F8D00C2AF7F007E007D077C7112536B90E2D1F2
:107F9D00121EDCD2AF90E2D1121E76781C121E4456
:107FAD00EF540FFFEF244190E2D5F07BFF7A7C79FF
:107FBD00D61292DF90E2D1121E76780C121E44EF8B
:107FCD005410FFEE5475FEE4FDFC7B107A75F9F844
:107FDD00C3121E337BFF701A7A7C79E91292DF7B14
:107FED00FF7A7C79EE1292DF90E2D5E0FF1296D601
:0C7FFD0080077A7C79F41292DF1295F272
:018009002254
:0396D00002968E71
:0396D30002968E6E
:0300000002665045
:1066500075818A12667078FEE4F6D8FD90E0007FBE
:10666000007E20E4F0A3DFFCDEFA75818A0266E595
:1066700075FF0075FE0075FD0775FCEA75FB70750A
:10668000FA0075F90075F73C75FFDF75FEFF75FDC3
:106690000075FC0075F76475FF0075FE0075FC0160
:0A66A00075F760758E0075F2AF22E9
:042A6D0041E4C40379
:10390E00493243202D2048617264776172652046EA
:10391E0049464F732077696C6C20626520666C7522
:10392E00736865640054582062756666657220651A
:10393E006D7074792054696D656F75740A00493223
:10394E00432054782054696D656F75740049324375
:10395E00202D20436F756C646E2774207472616E17
:10396E00736D69742072656164207265717565731B
:10397E007400776169745F666F725F74785F6275E9
:10398E00666665725F656D7074790052656164205C
:10399E0054696D654F757428416464722920005214
:1039AE0041575F494E54525F535441542830786406
:1039BE00293A2030780052585F544C2830786529C7
:1039CE003A2030780054585F544C28307866293AA3
:1039DE0020307800434C525F52585F554E4445524A
:1039EE002830783131293A20307800434C525F52DA
:1039FE00585F4F5645522830783132293A20307868
:103A0E0000434C525F54585F4F5645522830783120
:103A1E0033293A20307800434C525F52445F52456E
:103A2E00512830783134293A20307800434C525F97
:103A3E0054585F414252542830783135293A20305B
:103A4E007800434C525F52585F444F4E45283078B1
:103A5E003136293A20307800434C525F4143544965
:103A6E00564954592830783137293A203078004356
:103A7E004C525F53544F505F444554283078313880
:103A8E00293A20307800434C525F53544152545FD0
:103A9E004445542830783139293A20307800434C47
:103AAE00525F47454E5F43414C4C28307831612977
:103ABE003A203078004354524C2830783162293AFB
:103ACE0020307800535441542830783163293A20FD
:103ADE003078005458464C522830783164293A20B8
:103AEE003078005258464C522830783165293A20A9
:103AFE0030780054585F414252545F534F555243F1
:103B0E00452830783230293A20307800434C525FC5
:103B1E00494E54522830783130293A2030780056A8
:103B2E005453535F5457495F5457495F5258464C4C
:103B3E005228746865206461746120696E2074680F
:103B4E0065207278206669666F293A2000206973B5
:103B5E0020626967676572207468616E206578708F
:103B6E0065637465643A2000565453535F54574945
:103B7E005F5457495F5241575F494E54525F5354F9
:103B8E0041543A2000565453535F5457495F54578B
:103B9E00495F54585F414252545F534F555243450B
:033BAE003A2000BA
:106D4C00C2AF7F747E047D107C702290E312121E01
:106D5C0076EF24FFFFEE34FFFEED34FFFDEC34FF45
:106D6C002290E312E4FFFEFDFC021E8FD2AFC2AFF5
:106D7C007F017E007D007C0022E4FFFEFDFC121EE4
:106D8C008FC3021E337B407A42790F780090E31E4A
:106D9C00021E76783F1218197B007A247974784990
:106DAC00121922E4FBFA22121E76EF2401FFE43EB4
:106DBC00FEE43DFDE43CFC22121E578F528E518D99
:106DCC00502290E301E0FDF42290E31EE0FEA3E0EC
:106DDC00FFE4FCFD22FC90E312021EDCE47B0AFAC9
:106DEC00F9F8021CE1EFF0A3EDF0A3021F4590E3CC
:046DFC0006021E76F7
:0874C70090E31EEEF0A3EFF0CC
:1074CF00C2AF7F04126D5012755F90E320121E76CB
:1074DF00EFFBEE5403FAE4F9F8126DD5C3121E3325
:1074EF00606DC2AF7F78126D5012755F126D4C12C6
:1074FF00536B90E324121EDCD2AF90E320126D7019
:10750F00C3121E33700CFFFEFDFC90E324126D8A34
:10751F0060097BFF7A39790E1296B4C2AF7F0012E1
:10752F006D7E1253857F6C126D5012537CD2AFC299
:10753F00AF126DD51253857F04126D5012537C120A
:0F754F006D781253857F6C126D5012537CD2AF42
:0D755E002212536B90E320121EDCD2AF22EC
:108D58007F32129672126D4C12536B90E31E121EE4
:108D6800DCD2AF1296CC500D7BFF7A39793312964C
:108D7800B4E4FEFF2290E31E126D8570D8FE7F01D9
:018D880022C8
:06863F0090E31E121EDC98
:108645007F05129672126D4C12536B90E322121E27
:10865500DCD2AF1296CC500D7BFF7A39794C12964D
:10866500B4E4FEFF22E47F06FEFDFC90E322121E29
:108675008FD3121E3350CEC2AF90E31E121E761258
:1086850053857F10126D5012537CD2AF7E007F014F
:0186950022C2
:10672A0090E31EEDF0EF6045C2AFE47F01FEFDFC91
:10673A00E0F9F8121E57ED4401FDEC8F4E8E4D8D97
:10674A004CF54BE47F01FEFDFCA801121E57ED44F7
:10675A0001FDEC126DC7F54F7F541267BCA80112F8
:10676A006DC48C4F7F581267BCA8018032C2AFE457
:10677A00F54EF54DF54CF54BF552F551755031F591
:10678A004F7F541267E7F552F551755030F54F7F38
:10679A00581267E77F01FEFDFC90E31EE0F9F8124C
:1067AA006DC48C4F7F3C7E007D077C7112889FD21E
:1067BA00AF227E007D077C7112889FD2AFC2AFE400
:1067CA007F01FEFDFC90E31EE0F9F8121E578F4E82
:1067DA008E4D8D4C8C4BE47F01FEFDFC22FE7D0725
:1067EA007C7112889FD2AFC2AFE4F54EF54DF54CDD
:0367FA00F54B223A
:105A3F0090E31E121EE80EE6B280126D91121D6CDD
:105A4F00126DE8EF24F8126D60FCC2AF1253857F20
:105A5F0014126D50125B46126DE8126D5DFCC2AFF1
:105A6F001253857F18126D50125B46EF24FFFFEE25
:105A7F0034FFE4FCFDE4FE7801121E57EF4401FFF2
:105A8F00ECC2AF1253857F987E017D007C7012535C
:105A9F007CD2AF126D99E41219BF7BCD7ACC798C81
:105AAF00126D9FF978C1125B5D7F1C126D501253FE
:105ABF007CD2AF126D99E41219BF7B337A3379B36D
:105ACF00126D9F798078BF125B5D7F20126D50122F
:105ADF00537CD2AFE4FEFDFC0414044402FFEF54E8
:105AEF00FBFFEF54F7FFEF54EFFFEF4420FFEF44BE
:105AFF0040FFEEC2AF1253857F00126D5012537CE0
:105B0F00D2AF126D91121D6CE41219BFE4FBFA793A
:105B1F0080783E1218191219FDC2AF1253857F9467
:105B2F00126D5012537C126D781253857F6C126D6B
:065B3F005012537CD2AFAE
:105B45002212537CD2AF7B407A42790F780090E3E2
:105B55001E121E76121D6C221217281219FDC2AFD5
:045B65001253852230
:0676AA0090E301126DF1F6
:1076B00090E30A121EE80000000090E301E0FDF4F0
:1076C00060057F0112672A90E302E0FF7E001274DA
:1076D000C7128D58EF4E605690E306121E7690E367
:1076E0000EEEF0A3EFF0D390E30FE0940090E30EE2
:1076F000E064809480403790E303121F25121B96AC
:10770000FFE4FCFDFE12863FEF4E602290E304E4AE
:1077100075F001121C4390E30A126DB390E30A1254
:107720001EDC90E30E74FFF5F0121C4380B87F025C
:107730001295CA90E301E0FDF46005E4FF12672AA8
:0677400090E30A021E7630
:0625970090E301126DF15A
:10259D0090E30A121EE800000000E490E318F0A397
:1025AD00F0126DCE60057F0112672A90E302E0FF05
:1025BD007E001274C7126DFA90E316EEF0A3EFF0E1
:1025CD0090E316E0FEA3E0FFD39400EE64809480C8
:1025DD0050030228ADD3EF9408EE64809480400C34
:1025ED0090E312121EE800000008800F90E316E041
:1025FD00FEA3E0FFEE3395E0FD8041126D6DD31229
:10260D001E33403D128D58EF4E60257F007E017DBB
:10261D00007C0012863FEF4E701F7BFF7A39795B8D
:10262D001296B4126DCE6005E4FF12672A0227E1FF
:10263D007BFF7A3979801296B4126D57126DE18055
:10264D00BA7F0A12967290E316E0FAA3E0FBD394D8
:10265D0008EA64809480401790E312121EE800008F
:10266D00000890E31674FF75F0F8121C438013AF49
:10267D0003AE02EE3395E0FD126DE1E490E316F04A
:10268D00A3F0126D6DD3121E3350030225CD122807
:10269D00EB1296CC40030227E77BFF7A397999122A
:1026AD0092DF90E302E0FFE4FCFDFE12817A1295C9
:1026BD00F2C2AF7F341228C37A3979AD1229F1C233
:1026CD00AF7F381228C37A3979C41229F1C2AF7F8E
:1026DD003C1229017A3979D31228D77F4412290166
:1026ED007A3979E21228D77F481229257A3979F972
:1026FD00122913C2AF7F4C1229257A3A790F12296C
:10270D0013C2AF7F501229497A3A7925122937C25F
:10271D00AF7F541229497A3A793A122937C2AF7FDD
:10272D005812296D7A3A795012295BC2AF7F5C122B
:10273D00296D7A3A796612295BC2AF7F60122991B1
:10274D007A3A797D12297FC2AF7F641229917A3A44
:10275D00799412297FC2AF7F68126D501229D97AF0
:10276D003A79AC1229A3C2AF7F6C126D501229D9E0
:10277D007A3A79C31229A3C2AF7F70126D50122914
:10278D00E57A3A79D21229B5126D4C1229E57A3AC9
:10279D0079E11229B51228EB7A3A79F11229C7C2DB
:1027AD00AF7F80126D50122A197A3B79011229C719
:1027BD00C2AF7F40126D50122A197A3B791A122A34
:1027CD00251293141295F2125A3F126DCE6005E444
:1027DD00FF12672AE4FFFEFDFC2290E30E126D85C9
:1027ED00700302269B126DFA90E30E121E8FD31208
:0427FD001E33406BDC
:102801007A3B792D122A2512817A7BFF7A3B795BFB
:102811001292DF126DFA12817A1295F27BFF7A3BE6
:1028210079761292DFC2AF7F34126D50122A017B8A
:10283100FF7A3B79931292DFC2AF7F80126D501203
:102841002A01C2AF7F00126D7E1253857F6C126D1B
:102851005012537CD2AF7F021295CA126D7A125375
:0B286100857F6C126D5012537CD2AFCB
:10286C00C2AF7F10126D5012536B90E30E121EDC30
:10287C00D2AF90E30E121E7690E303121F25EF12D7
:10288C001C0F90E304E475F001121C4390E30A1250
:10289C006DB390E30A121EDC126D57126DE1022625
:1028AC008F7F021295CA126DCE6005E4FF12672A63
:0628BC0090E30A121E76F3
:1028C200227E047D107C7012536B90E30E121EDC8C
:1028D200D2AF7BFF227BFF1292DF90E30E121E76B5
:1028E2001293141295F2C2AF22C2AF7F787E047D9A
:1028F200107C7012536B90E30E121EDCD2AF227E5C
:10290200047D107C7012536B90E30E121EDCD2AF6A
:10291200227BFF1292DF90E30E121E7612931412A4
:1029220095F2227E047D107C7012536B90E30E129E
:102932001EDCD2AF227BFF1292DF90E30E121E76D4
:102942001293141295F2227E047D107C7012536B46
:1029520090E30E121EDCD2AF227BFF1292DF90E3D5
:102962000E121E761293141295F2227E047D107CB2
:102972007012536B90E30E121EDCD2AF227BFF1259
:1029820092DF90E30E121E761293141295F2227EBB
:10299200047D107C7012536B90E30E121EDCD2AFDA
:1029A200227BFF1292DF90E30E121E761293141214
:1029B20095F2227BFF1292DF90E30E121E761293A3
:1029C200141295F2227BFF1292DF90E30E121E7612
:1029D2001293141295F22212536B90E30E121EDC24
:1029E200D2AF2212536B90E30E121EDCD2AF221230
:1029F20092DF90E30E121E761293141295F22212B7
:102A0200536B90E31A121EDCD2AF90E31A121E76B9
:102A12001291FD1295F22212536B90E30E121EDCFC
:0F2A2200D2AF227BFF1292DF90E30E121E7622BC
:10896600E4FEFDFC90E315121E8FC3021E33E4FCE9
:10897600FDFEEF5401FFE42290E2EAE0FF7E007C78
:10898600007D04121FAEEF22121E0BA804A905AA31
:0F89960006AB0722121E76EE5401FEE4FDFC2212
:10925400C3EE94014015EEC4F854F0C868FEEFC4A0
:0C926400540F482400FFEE3401FE2222CB
:0E324E0090E2EBEDF0A3EBF090E2EAEFF0FA85
:10325C00E490E2EDF0A3F0A3F090E2F5121EE8008A
:10326C00000000AF02E4FCFDFEFBFA7901F8121C31
:10327C00E1E42FFFE43EFEED341EFDEC3471FC90D6
:10328C00E2FD121EDC90E301121EE8000007FF9025
:10329C00E305121EE800000FFF90E309121EE80080
:1032AC00009C4090E30D121EE800002EE090E3110C
:1032BC00121EE80000355E90E2EBE05403FFE4FCE4
:1032CC00FDFE90E315121EDCE4FF12896770047F8B
:1032DC000380187F0112896670047F02800D7F02C3
:1032EC0012896670047F0180027F00EF3395E0FE47
:1032FC00FDFC90E319121EDC90E2ECE090E2EEF0A3
:10330C00FBA3F090E301121EE8000000E4EB600F59
:10331C0090E305121EE8000000B190E309800390D1
:10332C00E30D121E7690E2F1121EDC90E2EDE060ED
:10333C000A90E2F1121EE800013880C2AF90E3055A
:10334C0012899A7801121E57C004C005C006C00726
:10335C0090E30112899A780A121E57D003D002D03A
:10336C0001D00012898E90E2EEE060047F018002B1
:10337C007F0012897412357D240812359390E2EA8D
:10338C00E0FF7B017AE3791D1288E3C2AF90E31E64
:10339C00E07D00FC90E31DE07E007810C333CE335B
:1033AC00CED8F990E31F1235A624401235C390E312
:1033BC0021E07D00FC90E320E07E007810C333CE4A
:1033CC0033CED8F990E3221235A6243C1235C390A3
:1033DC00E319121E76EF5403FFE4FEFDFC781A127B
:1033EC001E57ED4474FDC004C005C006C00790E232
:1033FC00EEE060047F0180027F0012897478111264
:10340C001E57D003D002D001D000121E0BC004C036
:10341C0005C006C00790E2EFE060047F0180027FE8
:10342C00001289747810121E57D003D002D001D02C
:10343C000012898E90E2EDE06006E47FFFFE8004CE
:10344C007FFF7EFFE4FDFC12357D2470123593C2A4
:10345C00AF12897E2434FFEE3412FEED3481FDEC84
:10346C003471FCC004C005C006C00790E2EEE070E9
:10347C00047F0180027F001289747809121E578F15
:10348C004E8E4D8D4C8C4BE4F552755102F550F52A
:10349C004FD007D006D005D00412889FD2AFE4904D
:1034AC00E2F0F090E2F0E0FFC39405748094805059
:0134BC0043CC
:1034BD00EF04FF12918512963690E323EFF030E57D
:1034CD00047F0180027F0090E2EEEFF090E2F56064
:1034DD0008121E7690E3098006121E7690E30D12F7
:0B34ED001E8F121CC690E2F5121EDCC0
:1034F80090E2F0E004F080AF90E2F5121E8FC37402
:10350800049BFF74809AFE740399FDE498FCE47BA5
:103518003CFAF9F8121D6C90E2F9121EDCC2AF9069
:10352800E2EDE06007E4FFFEFDFC8007E47FFF7E3C
:1035380001FDFC1253857F6C7E067D017C71125360
:103548007CD2AFC2AFE47B3CFAF9F890E2F1121EEC
:1035580076121D6C129254E4FCFD12538512897E7A
:10356800243CFFEE3406FEED3401FDEC3471FC1210
:04357800537CD2AFFF
:10357C0022121E0B12538590E2EAE0FF7E007C00C3
:10358C007D04121FAEEF22FFEE3406FEED3401FD7A
:10359C00EC3471FC12537CD2AF22FFEE4CFEEF4D9B
:1035AC00FFE0FDEF4DFFEE3395E0FDFC12538590EF
:1035BC00E2FD121E76EF22FFE43EFEE43DFDE43C0C
:0935CC00FC12537CD2AFC2AF2205
:0A89270090E2E8EDF090E2E7EFF0D7
:1089310090E2E97420F01296BA90E2E9E0FE90E24A
:10894100E8E0FD5EB506047E0180027E00EF60076F
:10895100EE60047F0180027F00AE0790E2E7E0FF56
:05896100AB0602324EDE
:0D000600C8ECC8C9EDC9CAEECACBEFCB22C9
:10889F008F4A8E498D488C4712536B120006AF5288
:1088AF00AE51AD50AC4F121E18121DFE120006E550
:1088BF004E5552FFE54D5551FEE54C5550FDE54BDC
:1088CF00554FFC121E0B125385AF4AAE49AD48AC43
:0488DF004702537C7D
:1062AE00F890E2E7121E76E4FFFEEC121E0B90E26F
:1062BE00E7121EDC90E2F3021E76121E0B90E2EC49
:1062CE00E0FAA3E02408F582E43AF583121EDC908E
:1062DE00E300021E76F582E43AF583EFF090E304D4
:1062EE00021E767F03E490E2F4FEFDFC121E8FC3C5
:1062FE00021E33C2AF7F3C7E8B7D887C7122A3E071
:10630E00FFE4FCFDEF5403FFE4FE7809021E57FF85
:10631E00E4FEFDFC121EDC90E2F0021E7690E2E03E
:10632E00E0FEA3E022EF2404F582E43EF583E022B2
:10633E00E4FCFDFEEF5401FFE4021E5790E2ECE098
:10634E00FAA3E0227E007D007C00228F828E83A342
:10635E00A322121E44EF5403FFE4FEFDFC2290E242
:10636E00EEE0FEA3E0F5828E8322121E0BA804A996
:10637E0005AA06AB07227F0C7E907D887C7122FDDC
:10638E00E490E2E3F0A3F0FB7F012290E2E3021E31
:01639E007688
:0A49180090E2E0EEF0A3EFF0AB0533
:10492200E4A3F090E2EF121EE80000000090E2F330
:10493200121EE80000000090E2F7121EE8000000DC
:1049420000EB701912632BFF128BBE12632BFF1246
:1049520090C012630FEF4402FFEC024B0B12632B69
:10496200FF1290C090E2FBEEF0A3EFF012632BFF78
:10497200128CC290E2E7121EDC12632BFF128EF63B
:1049820090E2EB121EDC90E2FBE0FEA3E0FF640289
:104992004E6009EF64034E6003024A3612632B2411
:1049A20008F582E43EF583121E7690E2F3121EDCD5
:1049B20090E2FBE07004A3E0640290E2F37036122E
:1049C2001E767818121E57E4FBFAF9ECF890E2EB27
:1049D200121E76E4FC121E0B90E2EB1262BF780804
:1049E200121E44EFFBEEFAE41262AE781812636014
:1049F20090E2E3803A121E76EFFBEEFAE4F91262DD
:104A0200AE7810121E44EF543FFFE4FEFDFC90E22C
:104A1200E31262BF781612636090E2F71262BF7807
:104A220019121E44EF5401FFE4FEFDFC90E2EF1266
:104A32001EDC804F90E2FBE4F0A304F090E2E3126C
:104A42001EE800000000E47F0B90E2E31262F750E0
:104A52003212639990E2E1E02408FD90E2E0E03452
:104A620000FAA9057B0112546A4018126399EF24D7
:104A720001FFE43EFEE43DFDE43CFC90E2E3121E55
:104A8200DC80C3C2AF90E2E7121E761253857F34F8
:104A920012630512537CD2AFC2AF90E2EB121E76C4
:104AA2001253857F3812630512537CD2AF90E2EF26
:104AB200121E76EC4D4E4F60047F0180027F00781B
:104AC2000C12633EEE4408FEC004C005C006C007D7
:104AD20090E2FB12630CD003D002D001D000121E70
:104AE2000BC004C005C006C007126399EF543FFF14
:104AF200E4FEFDFC7803121E57D003D002D001D091
:0C4B020000121E0BEF4401FFEC128C2887
:014B0E002284
:0E42F20090E2ECEEF0A3EFF0A3ECF0A3EDF001
:1043000012630112536B90E2F0121EDCD2AF126303
:1043100025E4FFEE5408FEE4FDFCEE700774FFFF99
:10432000FEFDFC221263257809121E44EF5403900F
:10433000E2F412631D7803121E44EF543F90E2F83A
:1043400012631DE4FFEE5410FEE4FDFCEE6005E494
:104350000FFE8005E4FFFEFDFC90E2FC121EDCC2B5
:10436000AF7F3412630512536B90E300121EDCD250
:10437000AFC2AF7F3812630512536B90E304121E75
:10438000DCD2AF7F021262F360081262F1600302B6
:10439000446512636C7401F01262F170651263255A
:1043A0007810121E44EF5407FFE4FEFDFC7816124D
:1043B0001E57C004C005C006C00790E2FC121E765E
:1043C0007819121E57D003D002D001D000121E0B54
:1043D000C004C005C006C00790E2F8121E7678102F
:1043E000121E57D003D002D001D00012637812629F
:1043F000DDE4FDFC1262C87433FFFEEC90E30002C2
:1044000044601262DD7808121E57E4FFE4FCC00429
:10441000C005C006C00790E2F8121E767818121E7A
:1044200057D003D002D001D000121E0BC004C0052B
:10443000C006C0071262EB7818121E44E4FEFDFCB1
:10444000D003D002D001D0001262C8E4FF7401FE94
:10445000EC90E300121EDC1262EB745EFC90E3044D
:10446000121EDC803712636CE4F0C2AF7F04FEFDE5
:10447000FC90E2F8121E8F121CE1E42FFFEE348C48
:10448000FEED3488FDEC3471FC12536B12634A2448
:1044900008F582E43AF583121EDCD2AF1262DD78B1
:1044A00010121E44EE540FFE12634AFBF5828A83FB
:1044B000EEF0A3EFF01262DD7808121E448B828AC0
:1044C00083A3A3EFF01262DD12634AFBF5828A83B5
:1044D000A3A3A31262E97818121E44EB240412620B
:1044E000E37810121E4412634AFB24051262E3783B
:1044F00008121E44EB24061262E390E2ECE0FCA3F7
:0E450000E02407F582E43CF583EFF01263251A
:01450E00228A
:1085E60090E2E7ECF0A3EDF0A3EBF090E2E5EEF01D
:0385F600A3EFF000
:1085F900128BBE90E2E9E0601A90E2E5E0FEA3E0AA
:10860900FF1290C090E2EAEEF0A3EFF07F0412634C
:1086190052800F90E2EA12630CEF4406FFEE440821
:10862900FEEC128C2890E2E5E0FEA3E0FFA3E0FC5B
:06863900A3E0FD0242F285
:10907A00C2AFE4754E2C754D01F54CF54B7552FE99
:10908A007551FF75501FF54F7F3012638612889F06
:03909A00D2AF2230
:106EB40090E2E0EFF0A3EDF0C2AFEB60047F01805D
:106EC400027F00780D12633EC004C005C006C007EF
:106ED40090E2E0E060047F0180027F00E4FCFDFEBC
:106EE400EF5401FFE47813121E57D003D002D001EF
:106EF400D000121E0BC004C005C006C00790E2E11A
:106F0400E0541FFFE4FCFDFE780E121E57D003D0A0
:106F140002D001D00012637890E2E3E0FEA3E0FF28
:106F2400E4FCFDEE541FFEE4121E0B8F4E8E4D8DBD
:106F34004C8C4B7552FF7551FF75500F754F0012F5
:106F4400638412889FD2AF7F03126352128C28C2CB
:106F5400AF7F0012635212538512638412537CD2A2
:026F6400AF225A
:089662007F05126352028C28FF
:1093A20090E2DFEFF012638D126EB490E2DFE01212
:0593B200638D026EB4A2
:108C2800C2AF12538512630312537CD2AF12630191
:108C380012536B90E2FD121EDCD2AF90E2FD121EC1
:108C480076EF5407FFE4FEFDFCFBFAF9F8C3121EA9
:038C58003370DA9C
:018C5B0022F6
:108BBE0090E2FDEEF0A3EFF0C2AF128CC21253851D
:108BCE007F3412630512537CD2AFC2AF90E2FDE048
:108BDE00FEA3E0FF128EF61253857F381263051244
:058BEE00537CD2AF2210
:048CC200AD07AC0648
:108CC6008D828C83E0FAA3E0FBEA90E2FFF0A3EB4F
:108CD600F08D828C83A3A3E090E301F08D828C83D8
:0E8CE600A3A3A3E090E302F090E2FF021E764B
:108EF60012633390E2FFF0EF240512633690E3002D
:108F0600F0EF240612633690E301F0EF24071263B4
:0B8F16003690E302F090E2FF021E76AE
:10927000126359E064017011126359A3E0700A127D
:0C9280006333645E70037F01227F0022D4
:10937600126359E06433700C126359A3E0643370CE
:07938600037F01227F00229A
:1090C000AD07AC06129270EF60057E007F0222AE03
:1090D00004AF05129376EF60057E007F0322E4FE65
:0290E000FF226D
:0B959F007F037E007D007C000289A598
:1089A500C2AF1253857F447E8B7D887C7112537CC8
:1089B500D2AF7F64129672C2AF7F447E8B7D887C76
:1089C5007112536BD2AFEF5403FFE4FEFDFCFBFACB
:0D89D500F9F8C3121E3360051296CC50DA7B
:0189E2002272
:108A5F0025252054696D656F7574207768656E20C4
:108A6F0063616C6C696E672068325F7365726465F1
:108A7F00735F6D6163726F5F70686173655F6C6F59
:0C8A8F006F705F6C6F636B6564282900DA
:1040A400D2AFC2AF90E2DDE0FFE4FCFDFEFBFA79A3
:1040B40001F8121CE1E42FFFE43EFEED341EFDEC9A
:1040C4003471FC22FFE43EFEE43DFDE43CFCE47577
:1040D4004E01F54DF54CF54B755201F551F550F582
:1040E4004F22C2AF90E2E7E075F020A4FFAEF07C6F
:1040F400007D04121FAEEF2408FFE43EFEED3403FE
:10410400FDEC3471FC22D2AFC2AF90E2E0E0FF7E5E
:10411400007C007D04121FAEE42FFFEE3412FEED8E
:104124003481FDEC3471FC2290E2CC121E76EF2433
:1041340001FFE43EFEE43DFDE43CFC22C2AF90E21C
:10414400CAE0FEA3E022C2AF90E2E0E0FF7E007C82
:10415400007D04121FAEEF2448FFEE3405FEED345B
:1041640001FDEC3471FC227808E4FCFDFEEF5401FF
:10417400FFE4021E57121EDC90E398121E7690E3B1
:1041840088121E8F121CD390E398121EDC90E39CBD
:10419400021E76E4F54EF54DF54CF54B22FFEE3359
:1041A40095E0FDFC90E394121E8F121DFEEC4D4E23
:1041B4004F22FFEE3395E0FDFC121CC6E47B08FAA7
:1041C400F9F8121CE1E42FFFEE227F0590E2CCE423
:1041D400FEFDFC021E8F121E768F4E8E4D8D4C8C72
:1041E4004BE422E475F00190E2CA021C43121E8FD4
:1041F400121CC690E390121EDCE490E2CAF0A3F015
:1042040022D2AFC2AF7F007E007D007C0022E47F1B
:10421400587E02FDFC90E390121E8F121CE190E385
:10422400A0121E8F121D6CC32290E388121E8F9061
:10423400E398021E76FFC39408EE6480948022E023
:10424400FF7E007C007D04121FAEEF22E4FCFDFE25
:10425400EF5401FFE4021E577E007401A8070822F0
:1042640090E38C121E8F121CD390E39C021EDC7F01
:10427400087E057D017C7122F552755101F550F5DA
:104284004F2224E8F58274E2222408F58274E322A2
:10429400121EDC90E38C22EF5401FFE48F4E2212B5
:1042A4001E76EF540FFFE4FEFDFC22D2AFEF540163
:1042B400FFE4FEFDFCEF22121CC690E390021EDC1C
:1042C4002428F58274E3222448F58274E32290E3DF
:1042D40078021EDC90E384021EDC121E7612928C9D
:0E42E400E4FCFD22F552755140F550F54F22D5
:0196DC00226B
:10928C00C3EE94014015EEC4F854F0C868FEEFC468
:0C929C00540F482400FFEE3401FE222293
:100E250090E3A57408F0A3121EE80000000090E30B
:100E3500AA7401F090E2D8121EE800000BB890E306
:100E450068121EE80000000090E2DC121EE80000B7
:100E5500000090E36C121EE800000BB890E37812D6
:100E65001EE80003800490E37C121EE80003800462
:100E750090E388121EE800000FA090E3A47401F02F
:100E850090E2E4121EE80000000890E2E0121EE87D
:100E95000000000890E374121EE80000001490E3BF
:100EA50070121EE80000001490E380121EE8000096
:100EB500077790E384121EE80000077790E38C1211
:100EC5001EE80000003290E3A0121EE8000000C8F2
:100ED5007F0190E3A61241D3C3121E33704A90E3FB
:100EE500A4F090E388121EE80000753090E36812C4
:100EF5001EE80000000090E36C121EE800000000F0
:100F050090E38C121EE8000000C890E370121EE802
:100F15000000000090E374121EE80000000090E35A
:100F2500A0121EE8000000C890E3AAE0600C90E360
:100F350094121EE800000081802890E3A5E0FFC31D
:100F450074089FFF7E0074FFA807088006CEA2E7FD
:100F550013CE13D8F8FFEE3395E0FDFC90E3941221
:100F65001EDC90E36C121E7690E3681241F112418B
:100F750042124239503E12425C8005C333CE33CE15
:100F8500D8F91241A1602890E390121E8FC000C0CD
:100F950001C002C00390E2DC121E7690E2D8121E58
:100FA5008F121CC6D003D002D001D0001242BB1252
:100FB50041E780BA12421274049FFF74809EFE744A
:100FC500039DFDE49CFC90E398121EDC90E37412F3
:100FD5001E7690E3701241F1124142124239503EA1
:100FE50012425C8005C333CE33CED8F91241A160DD
:100FF5002890E390121E8FC000C001C002C003906C
:10100500E2E4121E7690E2E0121E8F121CC6D00397
:10101500D002D001D0001242BB1241E780BA124281
:101025001274779FFF74079EFEE49DFDE49CFC12FD
:10103500426D90E3A4E070030211A8A3E024FFFE33
:10104500E434FF90E2CAF0A3CEF0124142FFC3EEB2
:1010550064809480500302117512425C8005C3338D
:10106500CE33CED8F91241A17003021111124233C9
:10107500C004C005C006C0071241427802C333CE82
:1010850033CED8F91242863EF583D007D006D00577
:10109500D00412418EC004C005C006C007124142EB
:1010A5007802C333CE33CED8F91242C43EF583D08D
:1010B50007D006D005D004121EDC124233C004C08E
:1010C50005C006C0071241427802C333CE33CED8DD
:1010D500F912428D3EF583D007D006D005D0041213
:1010E500418EC004C005C006C0071241427802C344
:1010F50033CE33CED8F91242CB3EF583D007D00696
:10110500D005D004124179124264805A12414278C6
:1011150002C333CE33CED8F9FBAA061242863AF57E
:1011250083121EE80000000074282BF58274E33A50
:10113500F583121EE8000000001241427802C33315
:10114500CE33CED8F9FBAA0612428D3AF583121E8C
:10115500E80000000074482BF58274E33AF5831229
:101165001EE80000000074FFF5F01241EB02104F7D
:1011750012422D121CD31242D212422D121CD390B0
:10118500E37C124294121E8F124191121CD390E3FC
:1011950080124294121E8F124191121CD31242D812
:1011A5000212A31241FD90E3A5E0FFC390E2CBE05C
:1011B5009F7480F890E2CAE064809840030212743C
:1011C50090E388121E76C004C005C006C007124110
:1011D500427802C333CE33CED8F91242863EF58328
:1011E500D007D006D005D004124294121E76C00452
:1011F500C005C006C0071241427802C333CE33CEC4
:10120500D8F91242C43EF583D007D006D005D004E4
:10121500121EDC90E388121E76C004C005C006C00D
:10122500071241427802C333CE33CED8F912428D2C
:101235003EF583D007D006D005D004124294121E85
:1012450076C004C005C006C0071241427802C33308
:10125500CE33CED8F91242CB3EF583D007D006D097
:1012650005D0041241791242641241E70211AB1212
:1012750042331242D212423390E37C12418E90E304
:101285008012418E1242D8C2AF7FFF12420B125319
:10129500857F787E137D817C7112537CD2AF90E27D
:1012A500CC121EE8000000001241CED3121E3340BE
:1012B500030213851241CEC3121E33700C90E2D087
:1012C500121EE80000000B80031216FA1241FD12EF
:1012D5004142124239400302137912425C8005C330
:1012E50033CE33CED8F91241A1603BC2AF90E2D8DC
:1012F50012156134201241221216D790E2E01242F3
:10130500DE12163A1241B634281241221216D7902F
:10131500E2DC121561343012412212171190E2E419
:101325001242DE02134912420712163A1241B6342E
:101335002012151034281215103430124122125380
:101345007C124205125385E47F08FEFDFC90E2D035
:10135500121E8F121CE1A804A905AA06AB071241AB
:10136500421241B6343812412212537CD2AF124197
:10137500E70212D412412C90E2CC121EDC0212AD0F
:101385001241FD1241421242395062C2AFEF78025A
:10139500C333CE33CED8F912428612169A340012D0
:1013A50015AC1241407802C333CE33CED8F9124280
:1013B500C41216DF34011215AC1241407802C33352
:1013C500CE33CED8F912428D12169A34021215D7A1
:1013D5001241407802C333CE33CED8F91242CB1234
:1013E50016DF34031215D71241E702138890E2CCB9
:1013F500121EE8000000001241CED3121E335069C0
:101405001241CEC3121E33700C90E2D0121EE800BA
:1014150000000B80031216FAC2AF90E368121602A1
:10142500E42F121627C2AF90E3701216811241C63F
:10143500342F12412212171190E36C121602E42F79
:10144500FFEE343712412212171990E374121681F8
:101455001241C6343F12412212537CD2AF12412CA5
:1014650090E2CC121EDC0213FC90E2D4121EE800BE
:10147500000000E47F02FEFDFC90E2D4121E8FC343
:10148500121E33400302150FC2AF90E37812165CAB
:10149500EF24F0121627C2AF90E3801216BE121C7D
:1014A500E1EF24F0FFEE342F12412212171990E3D9
:1014B5007C12165CEF24F0FFEE34371241221253F2
:1014C5007CD2AFC2AF90E3841216BE121CE1EF24AA
:1014D500F0FFEE343F12412212537CD2AF90E30469
:1014E500121E7690E37C121EDC1242D290E3441267
:1014F5001E761242D890E380121EDC90E2D412418F
:0A1505002F90E2D4121EDC021478CD
:10150F0022FEED3481FDEC3471FC12537CD2AFC25C
:10151F00AF7F007E007D007C00125385E47F08FEC4
:10152F00FDFC90E2D0121E8F121CE1A804A905AA9F
:10153F0006AB0790E2CAE0FEA3E0FFEE3395E0FDB5
:10154F00FC121CC6E47B08FAF9F8121CE1E42FFF29
:10155F00EE22E47B3CFAF9F8121E76121D6C129201
:10156F008CE4FCFD125385E47F08FEFDFC90E2D075
:10157F00121E8F121CE1A804A905AA06AB0790E260
:10158F00CAE0FEA3E0FFEE3395E0FDFC121CC6E4BB
:10159F007B08FAF9F8121CE1E42FFFEE22FEEF258B
:1015AF00E0FFEE33FE3395E0FDFCE47B04FAF9F83F
:1015BF00121CE1E42FFFEE3420FEED3481FDEC34FC
:1015CF0071FC12537CD2AF22FEEF25E0FFEE33FE0B
:1015DF003395E0FDFCE47B04FAF9F8121CE1E42FEB
:1015EF00FFEE3420FEED3481FDEC3471FC12537CA0
:1015FF00D2AF22E47B3CFAF9F8121E76121D6C1260
:10160F00928CE4FCFD125385E47F08FEFDFC90E212
:10161F00D0121E8F121CE122FFEE3427FEED348113
:10162F00FDEC3471FC12537CD2AF22125385E47F50
:10163F0008FEFDFC90E2D0121E8F121CE1A804A937
:10164F0005AA06AB0790E2CAE0FEA3E022E47B3CCA
:10165F00FAF9F8121E76121D6C12928CE4FCFD1230
:10166F005385E47F08FEFDFC90E2D4121E8F121CFE
:10167F00E122121E7612928CE4FCFD125385E47F58
:10168F0008FEFDFC90E2D0121E8F223EF583121E43
:10169F0076E47B3CFAF9F8121D6C12928CE4FCFD97
:1016AF0012538590E2CBE024D8FF90E2CAE02212D9
:1016BF001E7612928CE4FCFD125385E47F08FEFD2A
:1016CF00FC90E2D4121E8F2212537CD2AFC2AF22F3
:1016DF003EF583121E7612928CE4FCFD1253859018
:1016EF00E2CBE024D8FF90E2CAE02290E2CC121EB7
:1016FF0076EF04FF129185E4FCFDFE90E2D0121EFE
:10170F00DC2212537CD2AFC2AF2212537CD2AFC2B3
:02171F00AF22F7
:094EA60090E2E0EFF0A3EDF0FB57
:104EAF00A3121EE800000064EB5403FFFD640260D0
:104EBF0005ED640370047F018016EFFD7C00640133
:104ECF0070047F02800AED4C70047F0380027F0024
:104EDF0090E2E6EFF0C2AF90E2E01240ABEF241C9D
:104EEF001241351241977552101240DF12502E1297
:104EFF004243243412411E1241971242E812889FF6
:104F0F0012410AE4754E0212419A7552021240DFA5
:104F1F0012889FD2AF7F0A12934612414AE4F54E90
:104F2F001240D612502E1240EBE4754E0212419AE7
:104F3F007552021240DF12889F12410A1241977573
:104F4F0052021240DF12889FD2AF7F01129346C2E6
:104F5F00AF90E2E0124243247C12415D12536BD2B8
:104F6F00AFE4FEFDFCEF600E90E2E274FF121E9DB7
:104F7F00EC4D4E4F70D4C2AF90E2E01240ABE475EF
:104F8F004EC812419A7552C81240DF125039124062
:104F9F00EB1241977552021240DF12889FD2AF90E9
:104FAF00E2E0E0FFA3E0FD123E4790E2E0E0FFA366
:104FBF00E0FD12892712414AC004C005C006C00790
:104FCF00A3E030E4047F0080027F01EF60047F01E3
:104FDF0080027F0012429B1240D6D007D006D00528
:104FEF00D0041250391240ABC00790E2E6E05403F0
:104FFF00FFE48F4E12419A7552031240DFD0071211
:10500F00889FD2AFC2AF90E2E01240AB12419775CA
:0F501F0052C81240DF12889FD2AF7F0102934622
:10502E0012889FD2AFC2AF90E2E02212889FD2AF19
:06503E00C2AF90E2E02287
:0861B60090E2DDEFF0A3EDF033
:1061BE005403FFFD64026005ED640370047F0180EB
:1061CE0016EFFD7C00640170047F02800AED4C70B6
:1061DE00047F0380027F0090E2DFEFF090E2DEE0CA
:1061EE00FDF4700302629590E2DDE0FF12892790C4
:1061FE00E2DDE0FFE4FD128B13C2AF90E2DD12424E
:10620E0043243412411EE4F54E754D40F54CF54BCA
:10621E001242E81262A312414FC004C005C006C06C
:10622E0007A3E030E4047F0080027F01EF60047F6B
:10623E000180027F0012429B1240D6D007D006D0BA
:10624E0005D0041262A31240ABC00790E2DFE05407
:10625E0003FFE48F4E12419A7552031240DFD007AE
:10626E0012889FD2AFC2AF90E2DD1240ABEF241C7A
:10627E00124135E4754E1112419A7552111240DFDA
:10628E0012889FD2AF800B90E2DDE0FFA3E0FD12FB
:05629E004EA60296DD92
:0B62A30012889FD2AFC2AF90E2DD2254
:05471C0090E2DDEFF06A
:1047210012955290E2E3EFF090E2DDE0FF128F216B
:10473100EF600890E2DE7401F0800E90E2E3E06445
:1047410001700A90E2DE04F0E4A3F0A3F090E2E34A
:10475100E0FF7E006408700A90E2E104F0E4A3F057
:10476100801BEF64024E6004EF4E700AE490E2E1B8
:10477100F0A304F08007E490E2E1F0A3F090E2E11D
:10478100E0700302481690E2DEE070047F018002CF
:104791007F00781A12416DEF4401FFC004C005C0CB
:1047A10006C00790E2DFE060047F0180027F0078AD
:1047B10019124250D003D002D001D000121E0BC0FA
:1047C10004C005C006C00790E2E0E060047F0180FC
:1047D100027F007818124250D003D002D001D000DD
:1047E100121E0B90E2E4121EDC1240A6EF2494127A
:1047F1004135C004C005C006C00790E2E41241DAA9
:10480100755201F551F550754F07D007D006D00507
:10481100D0040249121240A6EF244C124135C004C3
:10482100C005C006C00790E2E2E060047F0180029B
:104831007F0012429B1240D6D007D006D005D0048B
:1048410012889F1240A4EF2454124135C004C005C0
:10485100C006C00790E2E2E060047F0180027F00B1
:1048610012416B1241DD12427CD007D006D005D037
:104871000412889F1240A4EF2450124135C004C095
:1048810005C006C00790E2E0E060047F0180027F7E
:1048910000E4FCFDFEEF5401FFC004C005C006C0EA
:1048A1000790E2DFE060047F0180027F00E4FCFD0D
:1048B100FEEF5401FFE47804121E57D003D002D05A
:1048C10001D000121E0BC004C005C006C00790E253
:1048D100DEE070047F0180027F0012416BD003D0C3
:1048E10002D001D000121E0B1241DD75521112428D
:1048F1007ED007D006D005D00412889FD2AF90E2B7
:10490100DDE0FF7D01127CFE1240A6EF244812403B
:06491100C812889FD2AF1E
:01491700227D
:093E470090E2E7EFF0A3EDF0FBBF
:103E500090E2F5121EE800000000EBF4700302404F
:103E60008190E2E8E0541390E2F9F01240E6C004D9
:103E7000C005C006C007A3E030E404E4FF8003E40B
:103E80007F01FEFDFC1241DD1240DCD007D006D0E0
:103E900005D00412889FD2AF90E2E8E05403601589
:103EA0006401601190E2F5121E76EF4411FFEC9070
:103EB000E2F5121EDC90E2F9E030E41190E2F51236
:103EC0001E76EF4401FFEC90E2F5121EDCC2AF90CB
:103ED000E2E71240ABEF2420124135C004C005C018
:103EE00006C00790E2F51241DA7552111240DFD098
:103EF00007D006D005D00412409AFF64106005EF89
:103F0000641170171240827009121EE80000001040
:103F10008034121EE80000000F802B90E2F9E06070
:103F200004640170171240827009121EE80000003C
:103F3000108013121EE80000000E800A90E2E912C1
:103F40001EE80000000590E2ED121EE800000000EF
:103F500090E2F1121EE80000000090E2F9E020E497
:103F60001490E2ED121EE80000000590E2F1121E2E
:103F7000E800000005C2AF90E2E71240ABEF24304A
:103F8000124135C004C005C006C00790E2ED1242E0
:103F9000A3C004C005C006C00790E2E9121E76EF78
:103FA000541FFFE4FEFDFC7808121E57D003D00218
:103FB000D001D000121E0BC004C005C006C007907F
:103FC000E2F11242A37804121E57D003D002D001AE
:103FD000D000121E0B1241DD7552FF75511FF550B6
:103FE000F54FD007D006D005D00412408F1240AB59
:103FF000EF2434124135C004C005C006C00790E26A
:10400000E7E0FFE4FCFDFE7810121E57EF4443FF8B
:10401000EE4410FEEC8F4E8E4D8D4CF54B75527F5D
:104020007551107550FF754F00D007D006D005D0E0
:104030000412889FD2AF7F02129346C2AF90E2E78C
:104040001240ABEF2434124135124197F5527551AD
:1040500010F550F54F12408F1240ABEF2404124080
:10406000C812409A6004640170091240E6E4754E7B
:104070000180061240E6E4F54E1240D612889FD227
:01408000AF90
:104081002290E2E7E0FF129552EF90E2E9221288D6
:104091009FD2AFC2AF90E2E72212889FD2AF90E2E7
:0340A100F9E02221
:10948500C2AF1240D27F08FE7D077C7112889FD241
:03949500AF80FEA7
:10760D001296DC127017EF700D7BFF7A8A795F127C
:10761D0096B47F0480331291A4C2AF7F0312420B44
:10762D0012538512427312537CD2AF7F0A12967297
:10763D00C2AF12427312536B1242AF60051296CC59
:10764D0050EE1296CC50057F0302969CC2AFE475A6
:10765D004E0412419A7552041240DF124273128881
:10766D009FD2AF12966212959F7F041295CA129007
:10767D007A120E25C2AF7FEC7EB17D147C001253C1
:10768D00857F7412427512537C1242051253857F09
:0C769D00307E8B7D887C7112537CD2AF54
:0176A90022BE
:10639F0090E2CC121EE800000000E490E2CAF090F8
:1063AF00E2CAE0FFC39405748094805071EF04FF3C
:1063BF0012918590E2CBEFF0A3121E8FC000C001A7
:1063CF00C002C00390E2CBE0FF12425C8005C333F2
:1063DF00CE33CED8F9FFEE3395E0FDFCD003D002DB
:1063EF00D001D000121E0B90E2CC121EDCC2AF7F88
:1063FF00807E257D007C0012538590E2CB1240AB4E
:10640F00EF242412413512537CD2AF90E2CBE0FF40
:10641F007DFF12910490E2CAE004F00263AEC2AFB6
:10642F007F0C7E017D0D7C7112536B1242AF604762
:10643F0090E2CB7404F090E2CBE0FFC39408748039
:10644F00948050337B017AE279CC12546A402090C9
:10645F00E2CBE0FF7DFF1292C4C2AF90E2CB1240BD
:10646F00AB1241977552381240DF12889FD2AF900E
:0A647F00E2CBE004F080BF0296DDDE
:1091040090E2DBEFF0A3EDF01292C490E2DBE0FF1B
:10911400A3E0FD1261B690E2DBE0FFA3E0FD0247AD
:019124001C2E
:1092C40090E2DDEFF0A3EDF0124EA690E2DEE0F4C2
:0B92D400700890E2DDE0FF1293A22280
:108B130090E2E0EDF0C2AF1240ADEF2434124135E4
:108B2300C004C005C006C00790E2E0E070047F0106
:108B330080027F0012416B1241DD12427CD007D0CC
:0B8B430006D005D00412889FD2AF229C
:0196DD00226A
:10935E00C2AF7F0112420B1253857F087E007D073C
:08936E007C7112537CD2AF2286
:10536B008CFB8DFA8EF98FF6ACFFADFEAEFDAFFC6C
:10537B00228CFB8DFA8EF98FF7228CFF8DFE8EFD22
:03538B008FFC2272
:105C9300C2AF90E2DD121E76EF2478FFE43EFEE40D
:105CA3003DFDE43CFC22E4754E01F54DF54CF54B0E
:105CB300755201F551F550F54F2290E2DD121E7633
:105CC300EF54107B10FFE4FEFDFCFAF9F8C3021E4B
:105CD30033EFF0E4FCFDFEFBFA7901F8121CE1E47A
:105CE3002FFFE43EFEED341EFDEC3471FC2290E206
:105CF300DE121E76EF5401FFE4FEFDFC22E4754E36
:105D030011F54DF54CF54B2290E2DD121E76EF2294
:105D1300E4FCFDFEEF5401FFE4021E57C2AF90E224
:105D2300E9121E76EF22C2AF90E2E1121E76EF2453
:105D33009822E4FCFDFEEF5401FFE42290E2DE0230
:105D43001E76EFF090E2E2021E76C2AF90E2DD1221
:105D53001E76EF227552037551017550FF754FFF83
:105D630022C2AF90E2F1121E76EF245422121E0BD0
:105D73008F4E8E4D8D4C8C4B22249EF582E434E461
:105D8300F583227804121E44EF5401FF225420FFAE
:105D9300E4FEFDFC7B20225440FFE4FEFDFC7B403F
:105DA300225480FFE4FEFDFC7B80225404FFE4FECA
:055DB300FDFC7B042251
:0865700090E2F0EDF090E2EF83
:10657800125CD490E2F1121EDC90E2EFE0FF12957B
:106588005290E2F5EFF090E2F0E0FE90E2EFE012D8
:106598005D7CEEF0EF64027018125D64125C9E750B
:1065A8004E03754D01754C01754B00125D5702661F
:1065B80046125D64125C9EC004C005C006C0079008
:1065C800E2F5E0640970047F0180027F00EF600457
:1065D8007F0180027F007801125D13C004C005C0EE
:1065E80006C00790E2F0E06006E47FA0FE8004E4C5
:1065F8007F20FEE4FDFC7810121E57D003D002D095
:1066080001D000121E0BC004C005C006C00790E2EE
:10661800F5E0640970047F0180027F00EF60047F69
:106628000180027F00125D35D003D002D001D00076
:10663800125D70125D57D007D006D005D0041288BD
:086648009FD2AF7F320293469E
:05450F0090E2DDEFF079
:1045140090E2E874FF125CD590E2E9121EDC90E2AE
:10452400DDE0FF12955290E2EDEFF0C205C206C243
:10453400AF90E2E9125C9812470A7804121E441202
:104544005CF7EF700A125CF1EF70047F0180027F68
:104554000090E2E6EFF0125D1F2470125C9E12538D
:104564006B90E2DE121EDCD2AF90E2E6E0601B123A
:104574005CF1EF6009125D3F125D86E48002E4FFA6
:10458400FEFDFC90E2E6EFF08016C2AF90E2E91285
:104594005C98125D00755211125CB612889FD2AFFE
:1045A400125D3FEF54017B01125CC87003D380019C
:1045B400C39205125D1F2468125C9E12470AEF54D1
:1045C40001FF90E2E7EFF020066F90E2EDE064096E
:1045D400706790E2E7E06061125D3F7815121E4457
:1045E400125CF7FB125CCD7050125D1F2448125C04
:1045F4009EE4F54E125CAD12889FD2AF7F321293C7
:1046040046125D1F2448125C9E125CA912889FD238
:10461400AF90E2DDE0FF125D7CE0FD126570C2AF99
:1046240090E2E9125C98125D00755211125CB612A8
:10463400889FD2AFD206024533125D3F7810121E16
:1046440044E4FDFC90E2E2121EDC90E2EDE0640240
:0546540060030246DDD9
:10465900125D47E4FFEE5480FEEC7B007A8079FF1F
:1046690078FFC3121E3370047F0180027F0090E23D
:10467900EE125D45780A121E44EF5403FF90E2E8FA
:10468900125D45E4FFEE5410FEE4FDFCEE60030FFD
:1046990080027F00EF600790E2E8E04410F0125DCD
:1046A9003FEF5480FFEF60047F0180027F00EF60DD
:1046B9000790E2E8E04420F090E2E6E0600890E24A
:1046C900EEE090E2E6F090E2E6E0702F90E2E87426
:0246D900FFF0F0
:1046DB00802790E2E6E06021A3E0601DA374121234
:1046EB005D46EF5480FFEF60047F0180027F00EF97
:0E46FB00600790E2E8E04420F090E2E8E0FF83
:104709002212536B90E2DE121EDCD2AF90E2DE126F
:034719001E7622E7
:1058FD00125CD690E2E1121EDC90E2E574FFF0122C
:10590D005D29125C9E125A33125CBD70047F0180BA
:10591D00027F00EF7050125D0B125D90125CCD7026
:10592D00047F0180027F00EF703C125D0B125D9AC7
:10593D00125CCD70047F0180027F00EF7028125D34
:10594D000B125DA4125CCD70047F0180027F00EF0D
:10595D007014125D0B125DAE125CCD70047F018070
:10596D00027F00EF6026125D29125C9EE4754EF0F9
:10597D00125D047552F0125CB612889FD2AF7F0192
:10598D00129346125D29125C9E125A33125D0B540E
:10599D0002FFE4FEFDFC7B02125CCD70047F0180F2
:1059AD00027F00EF607A90E2DD125CF47B01125C05
:1059BD00CD70047F0180027F00EF6064125CBD70CA
:1059CD00047F0180027F00EF7056125D0B125D9017
:1059DD00125CCD70047F0180027F00EF7042125D7A
:1059ED000B125D9A125CCD70047F0180027F00EF77
:1059FD00702E125D0B125DA4125CCD70047F0180C0
:105A0D00027F00EF701A125D0B125DAE125CCD704D
:105A1D00047F0180027F00EF700690E2E57411F0C3
:055A2D0090E2E5E0FF3E
:0D5A32002212536B90E2DD121EDCD2AF2277
:107CFE0090E2E8EDF0C2AF125CD6C004C005C0063B
:107D0E00C00790E2E8E070047F0180027F007804F3
:107D1E00125D13C004C005C006C00790E2E8E07013
:107D2E00047F0180027F00125D357805121E57D048
:107D3E0003D002D001D000121E0BC004C005C00635
:107D4E00C00790E2E8E070047F0180027F00125DC0
:107D5E00357803121E57D003D002D001D000125D29
:107D6E0070E4755238125CB6D007D006D005D00438
:0A7D7E0012889FD2AF7F01029346E6
:0851E20090E2DBEDF090E2DA4F
:1051EA00125CD490E2DC121EDC90E2DBE024FE606A
:1051FA006324FA700302529E24FD600724026003AE
:10520A000252F1C2AFE4754E01125D0475520312E7
:10521A005CB6125314EF2420125C9E125D00755284
:10522A0011125CB612534E2448125C9E125CA912EB
:10523A00534E244C125C9EE4F54E125D04755211D5
:10524A00125CB612535DEF2454125C9EE4F54EF5DF
:10525A004D025290C2AFE4754E01125D04755203BD
:10526A00125CB6125314EF2448125C9E125CA91207
:10527A00535DEF244C125C9E1252F22454125C9E2F
:10528A00E4F54E754D011253322494125C9EE4F5F6
:10529A004E0252E9C2AFE4754E02125D0475520322
:1052AA00125CB690E2DC121E7612889FD2AF90E2B0
:1052BA00DAE0FF7D01127CFEC2AF90E2DC121E76BC
:1052CA00EF2420125C9E1252F22454125C9EE4F5E2
:1052DA004EF54D1253322494125C9EE4754E01121F
:0752EA005CAD12889FD2AFFA
:1052F10022E4754E01F54DF54CF54B755211F55102
:10530100F550F54F12889FD2AFC2AF90E2DC121E6A
:1053110076EF2290E2DC121E7612889FD2AF90E2E5
:10532100DAE0FF7D01127CFEC2AF90E2DC121E7654
:1053310022F54CF54BF552755101F550F54F128898
:105341009FD2AFC2AF90E2DC121E76EF2212889F8D
:10535100D2AFC2AF90E2DC121E76EF2212889FD24A
:0A536100AFC2AF90E2DC121E76220C
:106F6600125CD690E2DD121EDC90E2E574FFF012B0
:106F76005C93127008125CF4EF6033125C93125C3F
:106F8600A912889FD2AF125D4D2448125C9EE4F58B
:106F96004E125CAD12889FD2AF7F05129346125DEA
:106FA6004D2448125C9E125CA912889FD2AF125CD7
:106FB60093127008121E767804121E44125CF7EFC4
:106FC6006015125C93E4754E10125D047552101232
:106FD6005CB612889FD2AF125D4D2470125C9E1271
:106FE600536B90E2E1121EDCD2AF90E2E1121E7604
:106FF600125D86EF600690E2E57413F090E2E5E03C
:01700600FF8A
:107007002212536B90E2E1121EDCD2AF90E2E12232
:1067FD00E4FCFDFEEF5401FFE4121E578F4E8E4D4B
:10680D008D4C8C4B22E4FCFDFEEF5401FFE4221273
:10681D001E76EC4D4E4F22C2AFE4F54EF54DF54CC4
:10682D00F54B22121E76EF5407FFE4FEFDFC22C24B
:10683D00AF7F887E007D0D7C7122121E76EF543F56
:10684D00FFE4FEFDFC22121E76781F121E44EF544B
:10685D0001FFEF22121E76EF540FFFE4FEFDFC78D0
:10686D000D22C2AF7F087E017D0D7C7122121E7636
:10687D00EF5403FFE4FEFDFC22F551F550F54F22D8
:10688D007552007551E0755001754F0022E4F552B7
:10689D00F551F55022C2AFE4F54EF54DF54C2212EF
:1068AD001E0BA804A905AA06AB0722E4F552F55163
:1068BD00755007F54F22FFEC8F4E8E4D8D4CF54BDD
:0168CD0022A8
:108E9E00C2AFEC5401FCEC4480FC12538512687195
:108EAE0012537CD2AF12686F12536B90E394121E62
:0B8EBE00DCD2AF90E39412685370EA1E
:018EC9002286
:108D8900C2AFEC5401FCEC4440FC125385126871EB
:108D990012537CD2AF12686F12536B90E394121E78
:108DA900DCD2AF90E394121E76781E12685870E5F3
:018DB9002297
:0600160090E2DFEFF0FBB9
:10001C0090E2E4121EE80000000090E2E8121EE8F4
:10002C000000000090E2EC121EE80000000090E2DC
:10003C00F0121EE80000000090E2F4121EE800002E
:10004C00001890E2F8121EE80000000090E2FC128A
:10005C001EE80000000290E300121EE80000000001
:10006C0090E304121EE80000000390E308121EE85F
:10007C000000000790E30C121EE80000000090E363
:10008C0010121EE80000000090E314121EE800009D
:10009C00000090E318121EE80000000090E31C1210
:1000AC001EE80000007890E320121EE8000000001B
:1000BC0090E324121EE80000000090E328121EE8D2
:1000CC000000000090E32C121EE80000000090E3FA
:1000DC0030121EE80000000390E334121EE800000A
:1000EC00000090E338121EE80000000090E33C1280
:1000FC001EE80000000090E340121EE80000000122
:10010C0090E344121EE80000000190E348121EE840
:10011C000000000190E34C121EE80000000190E387
:10012C0050121EE80000000190E354121EE800007B
:10013C00000190E358121EE80000000490E35C12EA
:10014C001EE80000000090E360121EE800000000B2
:10015C0090E364121EE80000000190E368121EE8B0
:10016C000000000190E36C121EE80000000190E317
:10017C0070121EE80000000190E374121EE80000EB
:10018C00000090E378121EE80000000090E37C125F
:10019C001EE80000000090E380121EE80000000042
:1001AC0090E384121EE80000000090E388121EE821
:1001BC000000001F90E38C121EE80000000190E389
:1001CC0090121EE80000001FEB121F4E064F000598
:1001DC00B00202A70503360603C507042508054A25
:1001EC0009062D1106391201FA1300000C6990E270
:1001FC00E4121EE80000000090E2E8121EE8000085
:10020C00000090E2F0121EE80000000090E2F412F0
:10021C001EE80000003F90E30C121EE800000000F6
:10022C0090E310121EE80000000090E318121EE884
:10023C000000000090E31C121EE80000003C90E35C
:10024C0024121EE80000000090E328121EE80000B3
:10025C00000190E32C121EE80000000090E3301225
:10026C001EE80000000190E334121EE800000000BC
:10027C0090E304121EE80000000390E338121EE81D
:10028C000000000190E33C121EE80000000190E227
:10029C00FC121EE80000000302068B90E2E4121E22
:1002AC00E80000000090E2E8121EE8000000009058
:1002BC00E2F0121EE80000000090E2F4121EE800CA
:1002CC0000003F90E30C121EE80000000090E310C9
:1002DC00121EE80000000090E318121EE800000057
:1002EC000190E31C121EE80000003090E324121E63
:1002FC00E80000000190E328121EE80000000190C5
:10030C00E32C121EE80000000090E330121EE800FF
:10031C0000000190E334121EE80000000090E3049A
:10032C00121EE80000000402068B90E2E4121EE8A4
:10033C000000000090E2E8121EE80000000090E2CD
:10034C00F0121EE80000000090E2F4121EE800001B
:10035C00001890E30C121EE80000000090E310124D
:10036C001EE80000000090E318121EE800000000D8
:10037C0090E31C121EE80000007890E324121EE8A3
:10038C000000000090E328121EE80000000090E33B
:10039C002C121EE80000000090E330121EE8000052
:1003AC00000390E334121EE80000000090E30412F6
:1003BC001EE80000000502068B90E2E4121EE80025
:1003CC0000000190E2E8121EE80000000090E2F04C
:1003DC00121EE80000000290E2F4121EE800000079
:1003EC003090E30C121EE80000000090E310121E87
:1003FC00E80000000090E318121EE80000000090D6
:10040C00E31C121EE80000003C90E324121EE800DE
:10041C0000000090E32802059D90E2E4121EE80023
:10042C0000000190E2E8121EE80000000190E2F0EA
:10043C00121EE80000000090E2F4121EE80000001A
:10044C003090E30C121EE80000000090E310121E26
:10045C00E80000000090E318121EE8000000009075
:10046C00E31C121EE80000003C90E324121EE8007E
:10047C0000000090E328121EE80000000090E32C1E
:10048C00121EE80000000190E330121EE80000008C
:10049C000190E334121EE80000000190E300121EEC
:1004AC00E80000000290E2FC121EE80000000A9036
:1004BC00E34C121EE80000000090E354121EE8000A
:1004CC0000000090E374121EE80000000190E37835
:1004DC00121EE80000000190E37C121EE8000000F0
:1004EC000190E380121EE80000000190E364121EEC
:1004FC00E80000000090E368121EE8000000009085
:10050C00E36C121EE80000000090E370121EE8007D
:10051C0000000090E384121EE80000000090E388C5
:10052C00121EE80000001F90E38C121EE800000071
:10053C003F90E390121EE80000001F02068B90E231
:10054C00E4121EE80000000090E2E8121EE8000031
:10055C00000190E2F0121EE80000000290E2F4129A
:10056C001EE80000003090E30C121EE800000000B2
:10057C0090E310121EE80000000090E318121EE831
:10058C000000000090E31C121EE80000003C90E309
:10059C0024121EE80000000090E32C121EE800005C
:1005AC000001806E90E2E4121EE80000000090E270
:1005BC00E8121EE80000000090E2F0121EE80000B5
:1005CC00000090E2F4121EE80000003F90E30C12D1
:1005DC001EE80000000190E310121EE8000000016C
:1005EC0090E318121EE80000000190E31C121EE8B4
:1005FC000000003090E324121EE80000000190E39C
:10060C0028121EE80000000190E32C121EE80000E6
:10061C00000090E330121EE80000000190E33480EB
:10062C005790E2F8121EE800000001805290E35C43
:10063C00121EE80000000290E360121EE80005F2B2
:10064C0089803C90E340121EE80000000090E344D7
:10065C00121EE80000000090E348121EE8000000A3
:10066C000090E34C121EE80000000090E350121EB4
:10067C00E80000000090E354121EE8000000009017
:10068C00E2E0121E76128D89C2AF90E2F812681C5D
:10069C0060047F0180027F00781F1267FD12689A48
:1006AC00754F80120DBA90E2DFE064117004A30262
:1006BC000C63C2AF90E360121E761253857F9C12BE
:1006CC00684012537CD2AFC2AF90E35C12683078B2
:1006DC00101268061268B87F90120E041268A412E9
:1006EC000CEBE4F54E120CCFC2AF90E34C12681C2D
:1006FC0060047F0180027F00E4FCFDFEEF5401FFEB
:10070C00E4C004C005C006C00790E34812681C6032
:10071C00047F0180027F001268127805121E57D0E8
:10072C0003D002D001D000121E0BC004C005C006BD
:10073C00C00790E35012681C60047F0180027F00A8
:10074C001268127802121E57D003D002D001D000CA
:10075C00121E0BC004C005C006C00790E3541268FB
:10076C001C60047F0180027F001268127801121E47
:10077C0057D003D002D001D000121E0BC004C0050C
:10078C00C006C00790E34012681C60047F01800221
:10079C007F001268127804121E57D003D002D001C9
:1007AC00D000121E0B126809E475523F1268867F46
:1007BC00C0120C8E120E11C2AF90E2E412681C60D3
:1007CC00047F0180027F00126812781E12680612E4
:1007DC00689A754F40120DBAC2AF90E2E8126847A2
:1007EC007817126806E4F552F551755080754F1F55
:1007FC00120DC790E2EC121E76EF541FFFE4FEFDC3
:10080C00FC7812126806E4F552F55175507CF54FE0
:10081C00120DC790E2F01268307806126806E47583
:10082C0052C0755101120D9490E2F4121E76EF54E1
:10083C003FFFE48F4E12682975523FF551120D940B
:10084C0090E2FC12686112680612688D7FBC120D72
:10085C00E590E30012687A7808126806E4F55275A0
:10086C005103120D5390E30412683078011268069C
:10087C00E475520EF551120D53126826F55275514E
:10088C0080755003120DD6120C6A90E37812681C16
:10089C0060047F0180027F001268127802121E57DA
:1008AC00C004C005C006C00790E37412681C600445
:1008BC007F0180027F001268127803121E57D0034A
:1008CC00D002D001D000121E0BC004C005C006C05F
:1008DC000790E37C12681C60047F0180027F001289
:1008EC0068127801121E57D003D002D001D000122A
:1008FC0068AC90E38012681C60047F0180027F006A
:10090C00126812121E0B126809E475520F120D18A0
:10091C0090E36812681C60047F0180027F001268FB
:10092C00127806121E57C004C005C006C00790E31B
:10093C006412681C60047F0180027F0012681278C8
:10094C0007121E57D003D002D001D000121E0BC0CC
:10095C0004C005C006C00790E36C12681C60047FDD
:10096C000180027F001268127805121E57D003D046
:10097C0002D001D000121E0BC004C005C006C00777
:10098C0090E37012681C60047F0180027F00126883
:10099C00127804121E57D003D002D001D000121EC0
:1009AC000B126809E47552F0120D1890E358121EE0
:1009BC0076EF5407FFE48F4E1268297552071268C0
:1009CC00867FC8120E0490E388126847780C121EBA
:1009DC0057C004C005C006C00790E384126847786E
:1009EC0012121E57D003D002D001D000121E0BC021
:1009FC0004C005C006C00790E38C12684778061245
:100A0C001E57D003D002D001D0001268AC90E390F6
:100A1C00126847121E0B12680974FF12689B754FFF
:100A2C00007FCC120DE5E4F54EF54D754C01120D21
:100A3C0066C2AF90E30C12687A7804126806E4750B
:100A4C005230120D7F90E31012681C60047F0180FD
:100A5C00027F00EF5401FFE48F4E1268297552019A
:100A6C00120D7F90E31412681C60047F0180027FDA
:100A7C0000780F1267FDE4F552755180120D059048
:100A8C00E31812681C60047F0180027F0012681258
:100A9C00780E126806E4F552755140120D0590E37C
:100AAC001C121E76E4FEFDFC7806126806E47552F4
:100ABC00C075513F120DA790E32012681C60047F93
:100ACC000180027F001268127801126806E47552E8
:100ADC0002F551120DA790E32412681C60047F01EB
:100AEC0080027F00EF5401FFE48F4E12682975528B
:100AFC00011268867FE8120C8E126824F55275512B
:100B0C0030120D40E4F54EF54D754C02120CEB9085
:100B1C00E34412681C60047F0180027F001268129B
:100B2C00780E126806E4F552755140120D4090E3B0
:100B3C002812681C60047F0180027F001268127802
:100B4C0003126806E4755208120CBA90E32C126872
:100B5C001C60047F0180027F001268127802126808
:100B6C0006E4755204120CBA90E330121E76EF5460
:100B7C0003FFE48F4E1268297552031268867FE4D6
:100B8C00FE7D0D7C7112889FD2AFC2AF90E3341200
:100B9C00681C60047F0180027F00126812780812C2
:100BAC006806E4F552755101120DF3C2AF90E338AB
:100BBC0012681C60047F0180027F001268127805A5
:100BCC00126806E4755220120D2DC2AF90E33C1250
:100BDC00681C60047F0180027F0012681278041286
:100BEC006806E4755210120D2D120E11C2AFE47589
:100BFC004E20120CCF120E1B7F14129346C2AFE480
:100C0C00754E08126829755208F551F550120DD61B
:100C1C00126824755201F551120DF3120E1B7F3C14
:100C2C00129346120C6A90E308126830780F12681F
:100C3C0006755200755180755003754F007FC012B8
:100C4C00684012889FD2AFC2AFE4F54E754D30F5B7
:0D0C5C004C120D6690E2E0121E76128E9E84
:100C690022C2AFE4F54EF54DF54CF54B7552807542
:100C79005101F550F54F7FC0FE7D0D7C7112889FA3
:100C8900D2AFC2AF22FE7D0D7C7112889FD2AFC256
:100C9900AFE4754E01F54DF54CF54B755201F55123
:100CA900F550F54F7FA8FE7D0D7C7112889FD2AF5C
:100CB90022F551F550F54F7FE4FE7D0D7C711288C8
:100CC9009FD2AFC2AF22F54DF54CF54B755220F5C9
:100CD90051F550F54F7FE8FE7D0D7C7112889FD24A
:100CE900AF22F54BF552F551755002F54F7FE4FEF1
:100CF9007D0D7C7112889FD2AFC2AF22F550F54F9E
:100D09007FE8FE7D0D7C7112889FD2AFC2AF22F5BC
:100D190051F550F54F7FC4FE7D0D7C7112889FD22D
:100D2900AFC2AF22F551F550F54F7FA8FE7D0D7C7E
:100D39007112889FD2AF22F550F54F7FE4FE7D0DE9
:100D49007C7112889FD2AFC2AF22F550F54F7FBC9C
:100D5900FE7D0D7C7112889FD2AFC2AF22F54BF593
:100D6900527551F0755001F54F7FC4FE7D0D7C71B0
:100D790012889FD2AF22F551F550F54F7FE0FE7DE5
:100D89000D7C7112889FD2AFC2AF22F550F54F7F0B
:100D9900DCFE7D0D7C7112889FD2AFC2AF22F55067
:100DA900F54F7FE8FE7D0D7C7112889FD2AFC2AFEF
:100DB900227FD8FE7D0D7C7112889FD2AF227FD809
:100DC900FE7D0D7C7112889FD2AFC2AF22F54F7F95
:100DD900C0FE7D0D7C7112889FD2AF227E007D0DF1
:100DE9007C7112889FD2AFC2AF22F550F54F7FA810
:100DF900FE7D0D7C7112889FD2AF22FE7D0D7C7124
:100E090012889FD2AFC2AF2290E2E0121E76128EF4
:0C0E19009E2290E2E0121E76128E9E22B5
:1091A40090E2E0121EE8000000047F051200169011
:0E91B400E2DB121EE8000000107F070235D536
:10949800C00790E2DB121E7690E2E0121EDCD007D5
:0394A800020016A9
:108E1700C2AFEE5401FEE4FD7480FC125385126864
:108E27003E12537CD2AF12683C12536B90E303128D
:0C8E37001EDCD2AF90E30312685370EA17
:018E4300220C
:108CF400C2AFEE5401FEE4FD7440FC1253851268C9
:108D04003E12537CD2AF12683C12536B90E30312B1
:108D14001EDCD2AF90E303121E76781E12685870E0
:018D2400E569
:018D2500222B
:0635D50090E2DAEFF0FBCA
:1035DB0090E2DF7401F0E4A3F0A3F0A3F0A3121EBA
:1035EB00E80000000090E2E7121EE80000000090E7
:1035FB00E2EB121EE80000000290E2EF121EE80060
:10360B0000000690E2F3121EE80000000090E2F7C3
:10361B00121EE80000000090E2FB121EE800000002
:10362B000290E2FF121EE800000001EB607024F82C
:10363B00601D14605D24F8607614607B240B6003BE
:10364B000238D090E2E3121EE80000000C807C9060
:10365B00E2E3121EE80000000C90E2E07401F0902F
:10366B00E2E7121EE80000000290E2EB121EE800F7
:10367B0000000390E2E17401F090E2EF121EE8000B
:10368B0000000090E2FB121EE80000000A90E2FF2F
:10369B00801490E2E3121EE80000000F802DE490EE
:1036AB00E2DFF090E2E3121EE800000000801C90C5
:1036BB00E2E27401F0801490E2F3121EE8000000C5
:1036CB000290E2F7121EE80005F28990E2DB121E6F
:1036DB0076128CF4C2AF90E2E2E060047F018002CC
:1036EB007F001268127809126806E4F552755102D0
:1036FB00F550F54F7F58FE7D0D7C7112889FD2AF30
:10370B0090E2DAE064117004A30238CAC2AF90E20F
:10371B00F7121E761253857F7412684012537CD2B7
:10372B00AFC2AF90E2F312683078101268061268DD
:10373B00B87F681238EF90E2E312686112680612E4
:10374B00688D7F5412684012390690E2FF12681C94
:10375B0060047F0180027F00126812780D121E57E1
:10376B00C004C005C006C00790E2E0E060047F0122
:10377B0080027F00126812781B121E57D003D002F2
:10378B00D001D000121E0BC004C005C006C00790AC
:10379B00E2E1E060047F0180027F00126812780C86
:1037AB00121E57D003D002D001D000121E0BEF44D3
:1037BB000D1268C375520F755130755000754F0857
:1037CB007F5012684012390690E2E712687A780B44
:1037DB00121E57C004C005C006C00790E2FB12685A
:1037EB0061121E57D003D002D001D000121E0BC0A5
:1037FB0004C005C006C00790E2EB126830780812CF
:10380B001E57D003D002D001D000121E0BC004C033
:10381B0005C006C00790E2EF1268307805121E57FC
:10382B00D003D002D001D000121E0B1268097552C2
:10383B00E07551FF1268937F4C12684012889FD23B
:10384B00AFC2AF90E2E0E060047F0180027F001224
:10385B0068127808121E57EF44011268C3E47552C0
:10386B00017551011238D1C2AFE4754E801268292F
:10387B007552801268867F601238EF90E2DFE0604D
:10388B00047F0180027F001268127812126806E42E
:10389B00F552F551755004F54F1238E21238FC12FF
:1038AB0068A2754B8012689B754F801238E21238F4
:1038BB00FC126824755201F5511238D190E2DB12DB
:0538CB001E76128E17AD
:1038D00022F550F54F7F7CFE7D0D7C7112889FD2C2
:1038E000AF227F5CFE7D0D7C7112889FD2AF22FEDD
:1038F0007D0D7C7112889FD2AFC2AF2290E2DB12A5
:0E3900001E76128E172212889FD2AFC2AF22FF
:10701700C2AFE4F54E754D76F54CF54B7552FF75DD
:1070270051FFF550F54F7F101270BA126824F552D0
:10703700755180F5501270ACC2AFE4F54EF54D7541
:107047004C38F54BF552F55175507C1270AC1268FF
:10705700A2754B02F552F551755080754F07FF1217
:1070670070BAC2AFE4754E021268291270967F0299
:107077001293461268241270967F32129346C2AF5B
:0E7087007F1C12684012536BD2AFEF5401FF12
:1070950022755202F551F550F54F7F08FE7D0D7CA6
:1070A5007112889FD2AF22F54FFFFE7D0D7C7112C4
:1070B500889FD2AF22FE7D0D7C7112889FD2AF22B0
:107D88002020202020202020202D00010203030095
:107D980001004104040000004007070003004308F5
:107DA80008000200022121001000461E1E000700E4
:107DB8004522230011FFFF0909000900470A0A00AC
:107DC8000A00480B0B000B00490C0C000C004A0D74
:107DD8000D000D004B0E0E000E004C0F100007009A
:107DE80044111200040045131F000F0081142000E5
:107DF80005005E15230006FFFF12230080FFFF1613
:057E0800230013FFFF41
:102A710041E485004CE492004700480049004A00C7
:102A81004B004C4CE4860009000A000B000C000DC1
:022A9100000E35
:0A95DE007D0190E2D27406F0A32292
:0A7E8E0090E2E3ECF0A3EDF0AB0787
:107E9800A3121EE800000000C390E2E3E0648094AF
:107EA800F04006E4FFFEFDFC22C2AFAF03E48F4EB4
:107EB800F54DF54CF54B7552FF755103F550F54FDF
:107EC8007F787E057D017C7112889FD2AF90E2E3B6
:107ED800E0FEA3E0FFEE3395E0FDFCE47B04FAF955
:107EE800F8121CE1E42FFFE43EFEED3401FDEC3412
:107EF80071FCC2AF12536B90E2E5121EDCD2AF9058
:057F0800E2E5121E7607
:017F0D002251
:0577E20090E2DAEFF077
:1077E700ED64414C70087B017AE47992800CED647A
:1077F700014C700E7B017AE4798690E2E0121F4516
:10780700800890E2DAE0FF027E8EE490E2DFF090FB
:10781700E2DB121EE80000000090E2DFE0C39406FE
:1078270074809480504890E2DB121E8FC000C00124
:10783700C002C00390E2E0121F2590E2DFE075F07E
:1078470002A4F58285F083121C6FFDACF090E2DA9A
:10785700E0FF127E8ED003D002D001D000121CC6EA
:1078670090E2DB121EDC90E2DFE004F080AB90E2F6
:04787700DB121E768C
:01787B0022EA
:1092FA00C2AFE4FCFD741CFEE41253857F787E0540
:0A930A007D017C7112537CD2AF226A
:0554E20090E2CFEFF0A5
:1054E700E4A3F090E2D0E0FF7E00C39414748094AC
:1054F700804003025638E4FDEF70140D90E2D27439
:105507000AF0A37417F0A37419F0A314F0802AEF1C
:1055170064074E70101295DE7419F0A37411F0A38E
:10552700741AF08014EF640D4E700E1295DE741B22
:10553700F0A37411F0A3741CF0ED60211256391218
:105547008C5C12564A128C5C1256391293B712921F
:105557001A12564A1293B712921A1295F2E490E26F
:10556700D1F090E2D1E0C3940274809480400302AA
:10557700562390E2D0E075F006A42497F582E43430
:105587007DF583C083C08290E2D1E0FBD082D083D7
:1055970075F002121F19E493FE740193FFEE339521
:1055A700E0FDFC90E2D6121EDCEB5401907D939354
:1055B700FF128C5C90E2D1E0FF90E2D0E075F0063C
:1055C700A42495F582E4347DF583E5822FF582E402
:1055D7003583F583E493FF7D17128DBA74FFFFFEC1
:1055E700FDFC90E2D6121E8FC3121E33601790E2A5
:1055F700D6121E76AD07AC0690E2CFE0FF1277E237
:1056070012956080097BFF7A7D79881292DF7F028D
:105617001293CC90E2D1E004F00255691295F29012
:10562700E485E06003E4F02290E2D0E004F0025465
:01563700EA88
:10563800221295F290E2D2E0FF1293CC90E2D3E0EE
:10564800FF2290E2D4E0FF1293CC90E2D5E0FF2253
:107ACD00C2AF90E2D0E0FF7E007C007D04121FAEBD
:107ADD00EF2410FFEE3401FEED3407FDEC3471FCA4
:107AED0022121E768F4E8E4D8D4C8C4B90E2CD1208
:107AFD001E768F528E518D508C4F22E0F9F8121E4A
:107B0D0057ED543FFDE48F4E8E4D8D4C22FFE4FC1E
:107B1D00FDEE540FFEE4780C021E5790E2D3E0A464
:107B2D00FFEF540FFFE4FEFDFC22C2AFE4F54EF56E
:107B3D004DF54CF54B22AB07E47F01FEFDFC22F524
:0D7B4D004B7552FF7551FF75503FF54F22EB
:0564890090E2CCEDF0F3
:10648E00127B43A803121E57A3121EDC127B371277
:10649E007AF97F4C12655890E2CCE024FD500860EA
:1064AE003F146050026522127B371265237F58120B
:1064BE006558C2AF90E2CCE07006A3121E7680053E
:1064CE00E4FFFEFDFC127AF17F4412656490E2CC8B
:1064DE00E06402703FC2AFA3127AEE7F4C026517E2
:1064EE00C2AF90E2CD121E76127B138C4B12652337
:1064FE007F588015127B37127AF97F54126564C269
:10650E00AF90E2CD127AEE7F587E007D077C71123D
:04651E00889FD2AFD1
:106522002290E2CD121E768F528E518D508C4F7F6B
:10653200547E007D077C7112889FD2AFC2AFE4F512
:106542004EF54DF54CF54B90E2CD121E768F528EE4
:10655200518D508C4F227E007D077C7112889FD214
:0E656200AF227E007D077C7112889FD2AF228F
:1089E300127B43A803121E5790E2DC121EDCC2AFB7
:1089F3007F407E007D077C7112536B90E2E0121E74
:108A0300DCD2AF90E2DC121E7690E2E0121E8F12EF
:0D8A13001DFEEC4D4E4F60037F01227F00E1
:018A20002233
:108D260090E2DAEFF0ED600FC2AF127B45127B08DE
:108D3600127B4C7F348010C2AF127B4590E2DA1270
:108D46007B08127B4C7F38FE7D077C7112889FD290
:028D5600AF224A
:0B57AC0090E2D0EFF0A3EAF0A3EBF0D6
:1057B700E4A3F0ED14604D147003025859147003FC
:1057C7000258A3240360030258F8127ACDC004C01C
:1057D70005C006C007A3E0FEA3E0127B1AA804A930
:1057E70005AA06AB07A3E0540FFFE4FCFDFE121E5B
:1057F7000B127B138C4BE4755201755170F550F504
:105807004F0258EB127ACDC004C005C006C00790FE
:10581700E2D3E025E0127B2DC004C005C006C00717
:1058270090E2D1E0FEA3E07803C333CE33CED8F9BC
:10583700127B1AD003D002D001D000121E0B127BAC
:10584700138C4B755202755180755003754F0002CA
:1058570058EB127ACDC004C005C006C00775F00426
:10586700127B28C004C005C006C00790E2D1E0FE45
:10587700A3E07806C333CE33CED8F9127B1AD00310
:10588700D002D001D000121E0B127B138C4B755225
:105897000475510075501C754F008048127ACDC0B1
:1058A70004C005C006C00775F008127B28C004C0F5
:1058B70005C006C00790E2D2E07F0025E0FEEE5467
:1058C7000FFEED780C121E57D003D002D001D00086
:1058D700121E0B127B138C4B7552087551007550B5
:1058E700E0754F00D007D006D005D00412889FD2AC
:0658F700AF7F01029346A1
:106B1500E490E2CAF090E2CAE0FFC3940474809462
:106B250080500D7D0312648990E2CAE004F080E58F
:106B3500C2AF7F807EF47D397C001253857F0812B9
:106B45006BC6C2AFE4F54E754D32F54CF54BF552BB
:106B55007551FF75500FF54F7F0C7E017D077C71D8
:106B650012889FD2AFC2AF7FFF7E0D7D007C0012E1
:106B750053857F90126BC6E490E2CAF090E2CAE0BA
:106B8500F9C3940B748094805036E47FFF7E0DFD2D
:106B9500FCA801121E44EF5401FFE4FEFDFCEF606A
:106BA50017E0FF7B017A001257AC90E2CAE0FF7B49
:106BB500017A007D011257AC90E2CAE004F080BC76
:0D6BC500227E017D077C7112537CD2AF222D
:108A21002525204572726F723A2057726F6E67204A
:108A3100706172616D65746572207768656E20631F
:108A4100616C6C696E67207072696E745F747874A2
:0E8A510028292C207478745F6E6F3D307800F9
:1091C200EF75F003A424EBF582E434E0F583021F8B
:0E91D20025E475F001121C5985F082F5832208
:1093B700EF600FC394267480948050061291C20206
:0593C70094207F00224C
:108C5C0090E2DDEFF0C39426748094805010E0FF16
:108C6C001291C3EA494B60061291C20292DF7BFF5C
:108C7C007A8A79211292DF90E2DDE0FF1291E01204
:038C8C0095F2223C
:0A8DBA0090E2DBEDF090E2DAEFF05A
:108DC4001293B790E2DCEFF090E2DAE0FF128C5CF1
:108DD40090E2DCE0FF90E2DBE0FED39F4006EE9FF2
:048DE400FF1293CC1B
:018DE8002268
:0B70C50090E2D2EFF0A3ECF0A3EDF09E
:1070D000E490E2DAF090E2D5F090E2D2E025E0250B
:1070E000E0241AF582E434E0F583121F25AF019005
:1070F000E2D8EAF0A3EFF090E2D81291D3E493FF44
:1071000012909D90E2D7EFF0E07002804390E2D3BE
:107110001291D3E0FF12909D90E2D6EFF0A3E0FF32
:1071200090E2D6E0FE6F603190E2D2E025E025E00B
:10713000241DF582E434E0F583E0FF90E2D5E0C35E
:107140009F401390E2DAE0B4200690E2D5E014F01C
:1071500090E2D5E0FF227F002290E2DAEEF090E2AA
:10716000D5E0FF04F0D3EF94FE7480948040887FD4
:01717000001E
:0171710022FB
:107E0D004865782020202020202020446563696D5E
:107E1D00616C20202020333120202020203234207E
:107E2D0032332020202020313620313520202020D3
:107E3D0020203820372020202020202030002D2DFC
:107E4D002D2D2D2D2D2D2D2D202D2D2D2D2D2D2D62
