:0C2B2D00C10901550001560002530000D0
:10A5E8007E007D107C7022F54DF54CF54B22F5511F
:05A5F800F550F54F22B3
:10651800E4754EC012A5EF7552C012A5F67F54FE61
:106528007D077C71129A4EE4754E8312A5EF755261
:10653800831265E47F8812660F7F0012A5E8125760
:10654800737F0012660F7F0412A5E8125773E4F5F3
:106558004E12A5EF7552801265E4E4754E0712A538
:10656800EF75520712A5F67F08FE7D107C70129A0F
:106578004EE4754E0112A5EF75520112A5F67F047F
:10658800FE7D10126603C0E0EDC0E0EEC0E0EFC093
:10659800E01265F5D0E0FFD0E0FED0E0FDD0E08F5E
:1065A8004E8E4D8D4CF54B7F9C7E007D0012660310
:1065B800C0E0EDC0E0EEC0E0EFC0E01265F5D0E06D
:1065C800FFD0E0FED0E0FDD0E08F4E8E4D8D4CF533
:1065D8004B7F907E007D007C70029A4EF551F550FD
:1065E800F54F7F0CFE7D107C70129A4E227F0612AA
:1065F80057968F528E518D508C4F227C70129A4E26
:106608007F06125796EC227E007D007C0012577C94
:01661800225F
:10864C00C2AF7F081286C9E529540FFFE48F29F5C4
:10865C0028F527F5267F04FEFDFCAB29AA28A927BF
:10866C00A826C3121564600EE47F0CFEFDFCA82640
:10867C00C312156470447F001286C9E5552401FDB0
:10868C00E433FCE5566D7001EC7004D209800E7475
:10869C005B2555F8EFF6E55504541FF5557F14127C
:1086AC00A5E81257628F298E288D278C267B007A9D
:0C86BC00007926E4FF12586140BCD2AFE8
:1086C800227E007D107C701257628F298E288D279C
:0386D8008C2622CB
:0AA83700E55565566002D322C322E6
:0EA79100745B2556F8E6FFE55604541FF55696
:01A79F002297
:0297F9008F2FB0
:1097FB00E554455360130554E554AE5370020553BD
:10980B0014F5828E83E52FF022C2AF7F1412A5E8E8
:10981B001257628F338E328D318C30D2AF7B007A00
:10982B000079307F0612586150DFC2AFAF2FE4FCD6
:0F983B00FDFE12577C7F0012A5E8125773D2AFC3
:01984A0022FB
:102B3900021C0000C100C102C101011B00C103C187
:102B49000444E4E10000000001180A01190A011A0D
:012B59000A71
:07A8E7007E007D007C702261
:108528007F091285B17FFC12A8E71257737F0412E6
:108538005796ECC0E0EDC0E0EEC0E0EFC0E0128579
:10854800A3D0E0FFD0E0FED0E0FDD0E08F4E8E4D0E
:108558008D4CF54B7F9812A8E7129A4E7F0412575C
:1085680096ECC0E0EDC0E0EEC0E0EFC0E01285A3FD
:10857800D0E0FFD0E0FED0E0FDD0E08F4E8E4D8DF4
:108588004CF54B7F9012A8E7129A4E7F031285B1E3
:108598007F087E017D007C700257737F0412579616
:1085A8008F528E518D508C4F227E007D007C0012A0
:0385B800577C22CB
:109D7100051DE51D7002051CD2041518E518702695
:109D810075180AD2001519E519701075190AD20251
:109D9100151AE51A7005751A0AD201300308151B48
:069DA100E51B7002C20385
:019DA7002299
:0AA84100C2038F1BD2032003FD2287
:10A58A00C204CEEFCE1FEED39400748094804007AD
:08A59A003004FDC20480EB2235
:07A8E000C2038F1BD203220B
:04A94600A203B32293
:10A74F008F4E8E4D8D4C8C4B7F807E007D007C70AC
:01A75F0022D7
:09A89B00D2BAD2AAC2B8D2A82296
:030013000292D086
:0D92D000C0E0C0F0C083C082C0D075D010D7
:1092DD00C2AF7FAC12A7591257628F258E248D23F2
:1092ED008C22D2AF7B007A0079227F061258615012
:1092FD002F12864CC2AF7F06125796C014C015C0F0
:10930D0016C0177F061257968F528E518D508C4F67
:10931D00D017D016D015D01412A74F129A4ED2AF27
:0B932D00D0D0D082D083D0F0D0E0324E
:030003000293382D
:0D933800C0E0C0F0C083C082C0D075D00876
:10934500C2AF7FA812A7591257628F2D8E2C8D2B75
:109355008C2AD2AF7B007A00792A7F04125861509B
:109365002F129D71C2AF7F04125796C00CC00DC05D
:109375000EC00F7F041257968F528E518D508C4F11
:10938500D00FD00ED00DD00C12A74F129A4ED2AFDF
:0B939500D0D0D082D083D0F0D0E032E6
:10A24E00456E746572203F20746F206765742074AC
:10A25E00686520434C492068656C7020636F6D6D96
:04A26E00616E6400B9
:072B5A0044E4E50000000067
:0CA7F20012A08AEF60057F0512A90A2260
:0CA7FE0030000812A690129A09C2002236
:0CA80A0030020812A6661239B7C2022202
:10A1650030012412A38612A7F212A296C20190E42E
:10A17500E5121611EF2401FFE43EFEE43DFDE43C4B
:08A18500FC90E4E5121697229C
:108042001282C090E2C9EFF07FD37E007D017C00F6
:1080520012577C7F547E007D077C71125773128504
:108062002812651812A89BD2AF7F1412A58A12A8F3
:108072006912A869128DBE12A27212A71912A72B39
:1080820012818712A95012A65112A910EF60031291
:10809200A203127C4F126BDB128F31EF600312A22C
:1080A2000312A3A71273A41290237F01128BBB1297
:1080B2005F7412A8697BFF7AA2794E12A9227F3ED1
:1080C2001297F912A910EF600312A8C812940712AE
:1080D200A91CEF70EE12A7FE12A80A12A1657587FD
:0380E2000180E03A
:10899C0025252053797374656D2068616E67696E47
:1089AC006720283078004275696C642044617465D6
:1089BC002020202020203A2000536F6674776172AB
:1089CC00652056657273696F6E3A2000436F64655B
:1089DC00205265766973696F6E2020203A2000481A
:1089EC0057205265766973696F6E20202020203ADB
:1089FC002000436869702046616D696C79202020E5
:108A0C0020203A20003735317800205265762E0030
:0A8A1C0020556E6B6E6F776E2E0012
:082B610041E4E90041E4EA004F
:0AA84B00E0FEA3E0AA06F97BFF225D
:08A8C80075F2AF12A5A280FE9B
:10A2030012A91090E2CAEFF07FE812A58A7BFF7AC9
:10A2130089799C12A52390E2CAE0FF12A44112A2FD
:06A223007212A71980E28F
:06A90A0090E4EAEFF022E8
:06A9100090E4EAE0FF22E2
:06A9160090E4E9EFF022DD
:06A91C0090E4E9E0FF22D7
:10A719007BFF7A8979B212A52390E4DB12A84B0258
:02A72900A92263
:10A272007BFF7A8979C512A52390E4DD12A84B12DF
:10A28200A9227BFF7A8979D812A52390E4DF12A84C
:04A292004B02A922B0
:10A72B007BFF7A8979EB12A5231282C012A94D0205
:02A73B00A8690B
:108DBE00C2AF7F007E007D077C7112576290E2D1B8
:108DCE00121697D2AF90E2D1121611781C121575A9
:108DDE00EF540FFFEF244190E2D5F07BFF7A8979B3
:108DEE00FE12A52390E2D1121611780C121575EF12
:108DFE005410FFEE5475FEE4FDFC7B107A75F9F805
:108E0E00C31215647BFF701A7A8A791112A5237B1F
:108E1E00FF7A8A791612A52390E2D5E0FF12A94DAA
:0C8E2E0080077A8A791C12A52312A8691B
:018E3A002215
:10A7710090E2DCEFF012A8FC90E2DCE0FF0294D161
:03A94A0002A8FC64
:030000000270513A
:1070510075818A12707178FEE4F6D8FD90E0007FA8
:10706100007E20E4F0A3DFFCDEFA75818A0270E67F
:1070710075FF0075FE0075FD0775FCEA75FB7075FF
:10708100FA0075F90075F73C75FFDF75FEFF75FDB8
:107091000075FC0075F76475FF0075FE0075FC0155
:0A70A10075F760758E0075F2AF22DE
:042B690041E4ED0353
:103F1300493243202D2048617264776172652046DF
:103F230049464F732077696C6C20626520666C7517
:103F3300736865640054582062756666657220650F
:103F43006D7074792054696D656F75740A00493218
:103F5300432054782054696D656F7574004932436A
:103F6300202D20436F756C646E2774207472616E0C
:103F7300736D697420726561642072657175657310
:103F83007400776169745F666F725F74785F6275DE
:103F9300666665725F656D70747900526561642051
:103FA30054696D654F757428416464722920005209
:103FB30041575F494E54525F5354415428307864FB
:103FC300293A2030780052585F544C2830786529BC
:103FD3003A2030780054585F544C28307866293A98
:103FE30020307800434C525F52585F554E4445523F
:103FF3002830783131293A20307800434C525F52CF
:10400300585F4F5645522830783132293A2030785C
:1040130000434C525F54585F4F5645522830783115
:1040230033293A20307800434C525F52445F524563
:10403300512830783134293A20307800434C525F8C
:1040430054585F414252542830783135293A203050
:104053007800434C525F52585F444F4E45283078A6
:104063003136293A20307800434C525F414354495A
:10407300564954592830783137293A20307800434B
:104083004C525F53544F505F444554283078313875
:10409300293A20307800434C525F53544152545FC5
:1040A3004445542830783139293A20307800434C3C
:1040B300525F47454E5F43414C4C2830783161296C
:1040C3003A203078004354524C2830783162293AF0
:1040D30020307800535441542830783163293A20F2
:1040E3003078005458464C522830783164293A20AD
:1040F3003078005258464C522830783165293A209E
:1041030030780054585F414252545F534F555243E5
:10411300452830783230293A20307800434C525FBA
:10412300494E54522830783130293A20307800569D
:104133005453535F5457495F5457495F5258464C41
:104143005228746865206461746120696E20746804
:1041530065207278206669666F293A2000206973AA
:1041630020626967676572207468616E2065787084
:1041730065637465643A2000565453535F5457493A
:104183005F5457495F5241575F494E54525F5354EE
:1041930041543A2000565453535F5457495F545780
:1041A300495F54585F414252545F534F5552434500
:0341B3003A2000AF
:10782900C2AF7F747E047D107C702290E312121621
:1078390011EF24FFFFEE34FFFEED34FFFDEC34FFC2
:107849002290E312E4FFFEFDFC02162AD2AFC2AF7A
:107859007F017E007D007C0022E4FFFEFDFC121604
:107869002AC30215647B407A42790F780090E31E9F
:10787900021611783F120F1D7B007A24797478491A
:10788900121026E4FBFA22121611EF2401FFE43E3E
:10789900FEE43DFDE43CFC221215888F528E518D89
:1078A900502290E301E0FDF42290E31EE0FEA3E004
:1078B900FFE4FCFD22FC90E312021697E47B0AFA2E
:1078C900F9F8021412EFF0A3EDF0A302170090E308
:0478D900060216117C
:087F9E0090E31EEEF0A3EFF0EA
:107FA600C2AF7F0412782D12803690E3201216118C
:107FB600EFFBEE5403FAE4F9F81278B2C312156433
:107FC600606DC2AF7F7812782D1280361278291232
:107FD600576290E324121697D2AF90E32012784DA1
:107FE600C3121564700CFFFEFDFC90E32412786743
:107FF60060097BFF7A3F791312A922C2AF7F001274
:10800600785B12577C7F6C12782D125773D2AFC2F1
:10801600AF1278B212577C7F0412782D1257731262
:0F802600785512577C7F6C12782D125773D2AF9A
:0D8035002212576290E320121697D2AF225C
:109F42007F3212A8E012782912576290E31E12168D
:109F520097D2AF12A946500D7BFF7A3F793812A9EA
:109F620022E4FEFF2290E31E12786270D8FE7F0187
:019F720022CC
:0696A40090E31E12169770
:1096AA007F0512A8E012782912576290E322121657
:1096BA0097D2AF12A946500D7BFF7A3F795112A972
:1096CA0022E4FEFF22E47F06FEFDFC90E32212164E
:1096DA002AD312156450CEC2AF90E31E121611128D
:1096EA00577C7F1012782D125773D2AF7E007F01FC
:0196FA00224D
:1072000090E31EEDF0EF6045C2AFE47F01FEFDFCB0
:10721000E0F9F8121588ED4401FDEC8F4E8E4D8D8E
:107220004CF54BE47F01FEFDFCA801121588ED44EE
:1072300001FDEC1278A4F54F7F54127292A801124E
:1072400078A18C4F7F58127292A8018032C2AFE4AD
:10725000F54EF54DF54CF54BF552F551755031F5B0
:107260004F7F541272BDF552F551755030F54F7F76
:10727000581272BD7F01FEFDFC90E31EE0F9F8128A
:1072800078A18C4F7F3C7E007D077C71129A4ED294
:10729000AF227E007D077C71129A4ED2AFC2AFE45E
:1072A0007F01FEFDFC90E31EE0F9F81215888F4E79
:1072B0008E4D8D4C8C4BE47F01FEFDFC22FE7D0744
:1072C0007C71129A4ED2AFC2AFE4F54EF54DF54C3B
:0372D000F54B2259
:105F740090E31E1216A30EE6B28012786E12149DE0
:105F84001278C5EF24F812783DFCC2AF12577C7F1B
:105F94001412782D12607B1278C512783AFCC2AFC5
:105FA40012577C7F1812782D12607BEF24FFFFEECE
:105FB40034FFE4FCFDE4FE7801121588EF4401FF90
:105FC400ECC2AF12577C7F987E017D007C70125723
:105FD40073D2AF127876E41210C37BCD7ACC798C6D
:105FE40012787CF978C11260927F1C12782D1257B6
:105FF40073D2AF127876E41210C37B337A3379B359
:1060040012787C798078BF1260927F2012782D12EA
:106014005773D2AFE4FEFDFC0414044402FFEF54B2
:10602400FBFFEF54F7FFEF54EFFFEF4420FFEF4483
:1060340040FFEEC2AF12577C7F0012782D125773C7
:10604400D2AF12786E12149DE41210C3E4FBFA79F5
:1060540080783E120F1D121101C2AF12577C7F943B
:1060640012782D12577312785512577C7F6C127860
:066074002D125773D2AF9C
:10607A0022125773D2AF7B407A42790F780090E3AD
:10608A001E12161112149D22120E2C121101C2AFE9
:04609A0012577C22FB
:0682240090E3011278CE88
:10822A0090E30A1216A30000000090E301E0FDF4B7
:10823A0060057F0112720090E302E0FF7E00127F68
:10824A009E129F42EF4E605690E30612161190E37B
:10825A000EEEF0A3EFF0D390E30FE0940090E30E5C
:10826A00E064809480403790E3031216E012129A79
:10827A00FFE4FCFDFE1296A4EF4E602290E304E4B4
:10828A0075F00112134790E30A12789090E30A12EC
:10829A00169790E30E74FFF5F012134780B87F0229
:1082AA0012A84190E301E0FDF46005E4FF127200B8
:0682BA0090E30A02161118
:0626930090E3011278CE75
:1026990090E30A1216A300000000E490E318F0A3E7
:1026A900F01278AB60057F0112720090E302E0FF3F
:1026B9007E00127F9E1278D790E316EEF0A3EFF01A
:1026C90090E316E0FEA3E0FFD39400EE64809480CB
:1026D90050030229A9D3EF9408EE64809480400C3A
:1026E90090E3121216A300000008800F90E316E091
:1026F900FEA3E0FFEE3395E0FD804112784AD31244
:102709001564403D129F42EF4E60257F007E017D9A
:10271900007C001296A4EF4E701F7BFF7A3F796010
:1027290012A9221278AB6005E4FF1272000228DDBB
:102739007BFF7A3F798512A9221278341278BE80FC
:10274900BA7F0A12A8E090E316E0FAA3E0FBD3945B
:1027590008EA64809480401790E3121216A30000DF
:10276900000890E31674FF75F0F81213478013AF51
:1027790003AE02EE3395E0FD1278BEE490E316F065
:10278900A3F012784AD312156450030226C91229FC
:10279900E712A94640030228E37BFF7A3F799E129C
:1027A900A52390E302E0FFE4FCFDFE12909912A834
:1027B90069C2AF7F341229BF7A3F79B2122AEDC2BA
:1027C900AF7F381229BF7A3F79C9122AEDC2AF7F8C
:1027D9003C1229FD7A3F79D81229D37F441229FD69
:1027E9007A3F79E71229D37F48122A217A3F79FE65
:1027F900122A0FC2AF7F4C122A217A407914122A69
:102809000FC2AF7F50122A457A40792A122A33C261
:10281900AF7F54122A457A40793F122A33C2AF7FDB
:1028290058122A697A407955122A57C2AF7F5C1229
:102839002A697A40796B122A57C2AF7F60122A8DB2
:102849007A407982122A7BC2AF7F64122A8D7A403C
:102859007999122A7BC2AF7F6812782D122AD57A0C
:102869004079B1122A9FC2AF7F6C12782D122AD5F6
:102879007A4079C8122A9FC2AF7F7012782D122A26
:10288900E17A4079D7122AB1127829122AE17A40DD
:1028990079E6122AB11229E77A4079F6122AC3C2D7
:1028A900AF7F8012782D122B157A417906122AC32F
:1028B900C2AF7F4012782D122B157A41791F122B46
:1028C9002112A55812A869125F741278AB6005E449
:1028D900FF127200E4FFFEFDFC2290E30E12786203
:1028E90070030227971278D790E30E12162AD31293
:0428F9001564406BB7
:1028FD007A417932122B211290997BFF7A417960BE
:10290D0012A5231278D712909912A8697BFF7A41EC
:10291D00797B12A523C2AF7F3412782D122AFD7B4D
:10292D00FF7A41799812A523C2AF7F8012782D12BC
:10293D002AFDC2AF7F0012785B12577C7F6C127834
:10294D002D125773D2AF7F0212A84112785712572A
:0B295D007C7F6C12782D125773D2AFF4
:10296800C2AF7F1012782D12576290E30E1216979D
:10297800D2AF90E30E12161190E3031216E0EF1295
:10298800131390E304E475F00112134790E30A125D
:10299800789090E30A1216971278341278BE0227BC
:1029A8008B7F0212A8411278AB6005E4FF12720017
:0629B80090E30A12161163
:1029BE00227E047D107C7012576290E30E121697E1
:1029CE00D2AF7BFF227BFF12A52390E30E121611CE
:1029DE0012A55812A869C2AF22C2AF7F787E047DBD
:1029EE00107C7012576290E30E121697D2AF227EB1
:1029FE00047D107C7012576290E30E121697D2AFC0
:102A0E00227BFF12A52390E30E12161112A5581267
:102A1E00A869227E047D107C7012576290E30E121C
:102A2E001697D2AF227BFF12A52390E30E1216113A
:102A3E0012A55812A869227E047D107C701257626E
:102A4E0090E30E121697D2AF227BFF12A52390E3CE
:102A5E000E12161112A55812A869227E047D107C42
:102A6E007012576290E30E121697D2AF227BFF12AE
:102A7E00A52390E30E12161112A55812A869227EF4
:102A8E00047D107C7012576290E30E121697D2AF2F
:102A9E00227BFF12A52390E30E12161112A55812D7
:102AAE00A869227BFF12A52390E30E12161112A520
:102ABE005812A869227BFF12A52390E30E1216115D
:102ACE0012A55812A8692212576290E30E12169799
:102ADE00D2AF2212576290E30E121697D2AF221285
:102AEE00A52390E30E12161112A55812A8692212F0
:102AFE00576290E31A121697D2AF90E31A1216117C
:102B0E0012A45E12A8692212576290E30E12169753
:0F2B1E00D2AF227BFF12A52390E30E12161122D5
:109B1500E4FEFDFC90E31512162AC3021564E4FC6D
:109B2500FDFEEF5401FFE42290E2EAE0FF7E007CB7
:109B3500007D04121769EF2212153CA804A905AA95
:0F9B450006AB0722121611EE5401FEE4FDFC22BE
:10A49800C3EE94014015EEC4F854F0C868FEEFC44A
:0CA4A800540F482400FFEE3401FE222275
:0E2F8C0090E2EBEDF0A3EBF090E2EAEFF0FA4A
:102F9A00E490E2EDF0A3F0A3F090E2F51216A3009C
:102FAA00000000AF02E4FCFDFEFBFA7901F81214FE
:102FBA0012E42FFFE43EFEED341EFDEC3471FC906A
:102FCA00E2FD12169790E3011216A3000007FF9084
:102FDA00E3051216A300000FFF90E3091216A300DF
:102FEA00009C4090E30D1216A300002EE090E3111E
:102FFA001216A30000355E90E2EBE05403FFE4FCF6
:10300A00FDFE90E315121697E4FF129B1670047FDB
:10301A000380187F01129B1570047F02800D7F02C6
:10302A00129B1570047F0180027F00EF3395E0FE4A
:10303A00FDFC90E31912169790E2ECE090E2EEF0B4
:10304A00FBA3F090E3011216A3000000E4EB600F6B
:10305A0090E3051216A3000000B190E309800390E3
:10306A00E30D12161190E2F112169790E2EDE0606C
:10307A000A90E2F11216A300013880C2AF90E3056C
:10308A00129B497801121588C004C005C006C00702
:10309A0090E301129B49780A121588D003D002D016
:1030AA0001D000129B3D90E2EEE060047F018002B5
:1030BA007F00129B231232BB24081232D190E2EA1B
:1030CA00E0FF7B017AE3791D129A92C2AF90E31E68
:1030DA00E07D00FC90E31DE07E007810C333CE3320
:1030EA00CED8F990E31F1232E4244012330190E360
:1030FA0021E07D00FC90E320E07E007810C333CE0F
:10310A0033CED8F990E3221232E4243C12330190F0
:10311A00E319121611EF5403FFE4FEFDFC781A12AC
:10312A001588ED4474FDC004C005C006C00790E2CE
:10313A00EEE060047F0180027F00129B2378111267
:10314A001588D003D002D001D00012153CC004C0AB
:10315A0005C006C00790E2EFE060047F0180027FAD
:10316A0000129B237810121588D003D002D001D008
:10317A0000129B3D90E2EDE06006E47FFFFE8004D2
:10318A007FFF7EFFE4FDFC1232BB24701232D1C2F3
:10319A00AF129B2D2434FFEE3412FEED3481FDEC88
:1031AA003471FCC004C005C006C00790E2EEE070AE
:1031BA00047F0180027F00129B2378091215888FF1
:1031CA004E8E4D8D4C8C4BE4F552755102F550F5EF
:1031DA004FD007D006D005D004129A4ED2AFE49051
:1031EA00E2F0F090E2F0E0FFC3940574809480501E
:0131FA004391
:1031FB00EF04FF12A3E612A8A490E323EFF030E54F
:10320B00047F0180027F0090E2EEEFF090E2F56028
:10321B000812161190E309800612161190E30D1295
:0B322B00162A1213F790E2F512169716
:1032360090E2F0E004F080AF90E2F512162AC37433
:10324600049BFF74809AFE740399FDE498FCE47B6A
:103256003CFAF9F812149D90E2F9121697C2AF9053
:10326600E2EDE06007E4FFFEFDFC8007E47FFF7E01
:1032760001FDFC12577C7F6C7E067D017C71125726
:1032860073D2AFC2AFE47B3CFAF9F890E2F11216C2
:103296001112149D12A498E4FCFD12577C129B2D6A
:1032A600243CFFEE3406FEED3401FDEC3471FC12D5
:0432B6005773D2AFC9
:1032BA002212153C12577C90E2EAE0FF7E007C0065
:1032CA007D04121769EF22FFEE3406FEED3401FD8C
:1032DA00EC3471FC125773D2AF22FFEE4CFEEF4D65
:1032EA00FFE0FDEF4DFFEE3395E0FDFC12577C90B9
:1032FA00E2FD121611EF22FFE43EFEE43DFDE43C3E
:09330A00FC125773D2AFC2AF22CE
:0A9AD60090E2E8EDF090E2E7EFF017
:109AE00090E2E97420F012A92890E2E9E0FE90E209
:109AF000E8E0FD5EB506047E0180027E00EF6007AF
:109B0000EE60047F0180027F00AE0790E2E7E0FF95
:059B1000AB06022F8CE2
:0D000600C8ECC8C9EDC9CAEECACBEFCB22C9
:109A4E008F4A8E498D488C47125762120006AF52CC
:109A5E00AE51AD50AC4F12154912152F120006E53E
:109A6E004E5552FFE54D5551FEE54C5550FDE54B1B
:109A7E00554FFC12153C12577CAF4AAE49AD48AC5F
:049A8E0047025773C1
:1069F900F890E2E7121611E4FFFEEC12153C90E262
:106A0900E712169790E2F302161112153C90E2EC88
:106A1900E0FAA3E02408F582E43AF5831216979088
:106A2900E300021611F582E43AF583EFF090E304EE
:106A39000216117F03E490E2F4FEFDFC12162AC34C
:106A4900021564C2AF7F3C7E8B7D887C7122A3E0F6
:106A5900FFE4FCFDEF5403FFE4FE7809021588FF0B
:106A6900E4FEFDFC12169790E2F002161190E2E0A6
:106A7900E0FEA3E022EF2404F582E43EF583E02260
:106A8900E4FCFDFEEF5401FFE402158890E2ECE01E
:106A9900FAA3E0227E007D007C00228F828E83A3F0
:106AA900A322121575EF5403FFE4FEFDFC2290E2C8
:106AB900EEE0FEA3E0F5828E832212153CA804A91C
:106AC90005AA06AB07227F0C7E907D887C7122FD8A
:106AD900E490E2E3F0A3F0FB7F012290E2E30216E7
:016AE900119B
:0A4F1D0090E2E0EEF0A3EFF0AB0528
:104F2700E4A3F090E2EF1216A30000000090E2F372
:104F37001216A30000000090E2F71216A30000006B
:104F470000EB7019126A76FF129DA8126A76FF129B
:104F5700A300126A5AEF4402FFEC025110126A765C
:104F6700FF12A30090E2FBEEF0A3EFF0126A76FFC8
:104F7700129EAC90E2E7121697126A76FF12A10F03
:104F870090E2EB12169790E2FBE0FEA3E0FF6402CB
:104F97004E6009EF64034E600302503B126A7624A9
:104FA70008F582E43EF58312161190E2F312169784
:104FB70090E2FBE07004A3E0640290E2F370361223
:104FC70016117818121588E4FBFAF9ECF890E2EB61
:104FD700121611E4FC12153C90E2EB126A0A7808EB
:104FE700121575EFFBEEFAE41269F97818126AAB3D
:104FF70090E2E3803A121611EFFBEEFAE4F9126938
:10500700F97810121575EF543FFFE4FEFDFC90E2AE
:10501700E3126A0A7816126AAB90E2F7126A0A7804
:1050270019121575EF5401FFE4FEFDFC90E2EF1233
:105037001697804F90E2FBE4F0A304F090E2E312AE
:1050470016A300000000E47F0B90E2E3126A4250CF
:1050570032126AE490E2E1E02408FD90E2E0E034F5
:1050670000FAA9057B011258614018126AE4EF247F
:1050770001FFE43EFEE43DFDE43CFC90E2E3121652
:105087009780C3C2AF90E2E712161112577C7F34A4
:10509700126A50125773D2AFC2AF90E2EB121611D9
:1050A70012577C7F38126A50125773D2AF90E2EFD3
:1050B700121611EC4D4E4F60047F0180027F00787D
:1050C7000C126A89EE4408FEC004C005C006C0077A
:1050D70090E2FB126A57D003D002D001D00012151C
:1050E7003CC004C005C006C007126AE4EF543FFF86
:1050F700E4FEFDFC7803121588D003D002D001D05E
:0C5107000012153CEF4401FFEC129E1258
:015113002279
:0E48F70090E2ECEEF0A3EFF0A3ECF0A3EDF0F6
:10490500126A4C12576290E2F0121697D2AF126AF1
:1049150070E4FFEE5408FEE4FDFCEE700774FFFF43
:10492500FEFDFC22126A707809121575EF5403908A
:10493500E2F4126A687803121575EF543F90E2F8B5
:10494500126A68E4FFEE5410FEE4FDFCEE6005E437
:104955000FFE8005E4FFFEFDFC90E2FC121697C2F7
:10496500AF7F34126A5012576290E300121697D245
:10497500AFC2AF7F38126A5012576290E304121625
:1049850097D2AF7F02126A3E6008126A3C6003024A
:104995004A6A126AB77401F0126A3C7065126A704D
:1049A5007810121575EF5407FFE4FEFDFC7816121A
:1049B5001588C004C005C006C00790E2FC12161198
:1049C5007819121588D003D002D001D00012153CF9
:1049D500C004C005C006C00790E2F8121611781091
:1049E500121588D003D002D001D000126AC3126A12
:1049F50028E4FDFC126A137433FFFEEC90E3000219
:104A05004A65126A287808121588E4FFE4FCC00498
:104A1500C005C006C00790E2F812161178181215E5
:104A250088D003D002D001D00012153CC004C005C7
:104A3500C006C007126A367818121575E4FEFDFC2B
:104A4500D003D002D001D000126A13E4FF7401FE36
:104A5500EC90E300121697126A36745EFC90E3043C
:104A65001216978037126AB7E4F0C2AF7F04FEFDD5
:104A7500FC90E2F812162A121412E42FFFEE348C81
:104A8500FEED3488FDEC3471FC125762126A9524F0
:104A950008F582E43AF583121697D2AF126A2878A0
:104AA50010121575EE540FFE126A95FBF5828A8376
:104AB500EEF0A3EFF0126A2878081215758B828A3A
:104AC50083A3A3EFF0126A28126A95FBF5828A8305
:104AD500A3A3A3126A347818121575EB2404126A7D
:104AE5002E7810121575126A95FB2405126A2E7818
:104AF50008121575EB2406126A2E90E2ECE0FCA371
:0E4B0500E02407F582E43CF583EFF0126A70BD
:014B1300227F
:10964B0090E2E7ECF0A3EDF0A3EBF090E2E5EEF0A7
:03965B00A3EFF08A
:10965E00129DA890E2E9E0601A90E2E5E0FEA3E038
:10966E00FF12A30090E2EAEEF0A3EFF07F04126A7D
:10967E009D800F90E2EA126A57EF4406FFEE44080F
:10968E00FEEC129E1290E2E5E0FEA3E0FFA3E0FCEA
:06969E00A3E0FD0248F705
:10A2BA00C2AFE4754E2C754D01F54CF54B7552FE47
:10A2CA007551FF75501FF54F7F30126AD1129A4EA1
:03A2DA00D2AF22DE
:1079910090E2E0EFF0A3EDF0C2AFEB60047F018075
:1079A100027F00780D126A89C004C005C006C007B5
:1079B10090E2E0E060047F0180027F00E4FCFDFED4
:1079C100EF5401FFE47813121588D003D002D001DF
:1079D100D00012153CC004C005C006C00790E2E10A
:1079E100E0541FFFE4FCFDFE780E121588D003D091
:1079F10002D001D000126AC390E2E3E0FEA3E0FFEF
:107A0100E4FCFDEE541FFEE412153C8F4E8E4D8DAD
:107A11004C8C4B7552FF7551FF75500F754F00120D
:107A21006ACF129A4ED2AF7F03126A9D129E12C282
:107A3100AF7F00126A9D12577C126ACF125773D220
:027A4100AF2272
:08A8D0007F05126A9D029E1231
:10A5FD0090E2DFEFF0126AD812799190E2DFE0126B
:05A60D006AD8027991FA
:109E1200C2AF12577C126A4E125773D2AF126A4CFB
:109E220012576290E2FD121697D2AF90E2FD12161F
:109E320011EF5407FFE4FEFDFCFBFAF9F8C312151B
:039E42006470DA6F
:019E450022FA
:109DA80090E2FDEEF0A3EFF0C2AF129EAC12577C2A
:109DB8007F34126A50125773D2AFC2AF90E2FDE0FF
:109DC800FEA3E0FF12A10F12577C7F38126A5012CF
:059DD8005773D2AF2219
:049EAC00AD07AC064C
:109EB0008D828C83E0FAA3E0FBEA90E2FFF0A3EB53
:109EC000F08D828C83A3A3E090E301F08D828C83DC
:0E9ED000A3A3A3E090E302F090E2FF021611BC
:10A10F00126A7E90E2FFF0EF2405126A8190E3005D
:10A11F00F0EF2406126A8190E301F0EF2407126A30
:0BA12F008190E302F090E2FF021611A5
:10A4B400126AA4E064017011126AA4A3E0700A1283
:0CA4C4006A7E645E70037F01227F00222C
:10A5BA00126AA4E06433700C126AA4A3E0643370D4
:07A5CA00037F01227F002244
:10A30000AD07AC0612A4B4EF60057E007F0222AE5A
:10A3100004AF0512A5BAEF60057E007F0322E4FEBC
:02A32000FF221A
:0BA816007F037E007D007C00029B544D
:109B5400C2AF12577C7F447E8B7D887C7112577311
:109B6400D2AF7F6412A8E0C2AF7F447E8B7D887C35
:109B740071125762D2AFEF5403FFE4FEFDFCFBFA0F
:0D9B8400F9F8C3121564600512A94650DA05
:019B910022B1
:109C0E0025252054696D656F7574207768656E2003
:109C1E0063616C6C696E672068325F736572646530
:109C2E00735F6D6163726F5F70686173655F6C6F98
:0C9C3E006F705F6C6F636B656428290019
:1046A900D2AFC2AF90E2DDE0FFE4FCFDFEFBFA7998
:1046B90001F8121412E42FFFE43EFEED341EFDEC66
:1046C9003471FC22FFE43EFEE43DFDE43CFCE4756C
:1046D9004E01F54DF54CF54B755201F551F550F577
:1046E9004F22C2AF90E2E7E075F020A4FFAEF07C64
:1046F900007D04121769EF2408FFE43EFEED340340
:10470900FDEC3471FC22D2AFC2AF90E2E0E0FF7E53
:10471900007C007D04121769E42FFFEE3412FEEDD0
:104729003481FDEC3471FC2290E2CC121611EF2495
:1047390001FFE43EFEE43DFDE43CFC22C2AF90E211
:10474900CAE0FEA3E022C2AF90E2E0E0FF7E007C77
:10475900007D04121769EF2448FFEE3405FEED349D
:1047690001FDEC3471FC227808E4FCFDFEEF5401F4
:10477900FFE402158812169790E39812161190E338
:104789008812162A12140490E39812169790E39C43
:10479900021611E4F54EF54DF54CF54B22FFEE33BB
:1047A90095E0FDFC90E39412162A12152FEC4D4E5C
:1047B9004F22FFEE3395E0FDFC1213F7E47B08FA74
:1047C900F9F8121412E42FFFEE227F0590E2CCE4EF
:1047D900FEFDFC02162A1216118F4E8E4D8D4C8C41
:1047E9004BE422E475F00190E2CA02134712162A3B
:1047F9001213F790E390121697E490E2CAF0A3F02F
:1048090022D2AFC2AF7F007E007D007C0022E47F10
:10481900587E02FDFC90E39012162A12141290E3BE
:10482900A012162A12149DC32290E38812162A9008
:10483900E398021611FFC39408EE6480948022E085
:10484900FF7E007C007D04121769EF22E4FCFDFE67
:10485900EF5401FFE40215887E007401A8070822BD
:1048690090E38C12162A12140490E39C0216977F87
:10487900087E057D017C7122F552755101F550F5CF
:104889004F2224E8F58274E2222408F58274E32297
:1048990012169790E38C22EF5401FFE48F4E2212F7
:1048A9001611EF540FFFE4FEFDFC22D2AFEF5401C5
:1048B900FFE4FEFDFCEF221213F790E39002169736
:1048C9002428F58274E3222448F58274E32290E3D4
:1048D9007802169790E38402169712161112A4D043
:0E48E900E4FCFD22F552755140F550F54F22CA
:01A9530022E1
:10A4D000C3EE94014015EEC4F854F0C868FEEFC412
:0CA4E000540F482400FFEE3401FE22223D
:1018070090E3A57408F0A31216A30000000090E36C
:10181700AA7401F090E2D81216A300000BB890E367
:10182700681216A30000000090E2DC1216A3000065
:10183700000090E36C1216A300000BB890E3781237
:1018470016A30003800490E37C1216A30003800410
:1018570090E3881216A300000FA090E3A47401F090
:1018670090E2E41216A30000000890E2E01216A32B
:101877000000000890E3741216A30000001490E320
:10188700701216A30000001490E3801216A3000044
:10189700077790E3841216A30000077790E38C1272
:1018A70016A30000003290E3A01216A3000000C8A0
:1018B7007F0190E3A61247D8C3121564704A90E3DC
:1018C700A4F090E3881216A30000753090E3681225
:1018D70016A30000000090E36C1216A3000000009E
:1018E70090E38C1216A3000000C890E3701216A3B1
:1018F7000000000090E3741216A30000000090E3BC
:10190700A01216A3000000C890E3AAE0600C90E3C1
:10191700941216A300000081802890E3A5E0FFC37E
:1019270074089FFF7E0074FFA807088006CEA2E711
:1019370013CE13D8F8FFEE3395E0FDFC90E3941235
:10194700169790E36C12161190E3681247F6124748
:101957004712483E503E1248618005C333CE33CE0E
:10196700D8F91247A6602890E39012162AC000C043
:1019770001C002C00390E2DC12161190E2D81216E1
:101987002A1213F7D003D002D001D0001248C01298
:1019970047EC80BA12481774049FFF74809EFE7448
:1019A700039DFDE49CFC90E39812169790E3741254
:1019B700161190E3701247F612474712483E503E01
:1019C7001248618005C333CE33CED8F91247A660DB
:1019D7002890E39012162AC000C001C002C00390ED
:1019E700E2E412161190E2E012162A1213F7D0035E
:1019F700D002D001D0001248C01247EC80BA12487A
:101A07001774779FFF74079EFEE49DFDE49CFC120C
:101A1700487290E3A4E07003021B8AA3E024FFFE50
:101A2700E434FF90E2CAF0A3CEF0124747FFC3EEBB
:101A3700648094805003021B571248618005C333AA
:101A4700CE33CED8F91247A67003021AF3124838DC
:101A5700C004C005C006C0071247477802C333CE8B
:101A670033CED8F912488B3EF583D007D006D00580
:101A7700D004124793C004C005C006C007124747E9
:101A87007802C333CE33CED8F91248C93EF583D096
:101A970007D006D005D004121697124838C004C0E4
:101AA70005C006C0071247477802C333CE33CED8E6
:101AB700F91248923EF583D007D006D005D004121C
:101AC7004793C004C005C006C0071247477802C342
:101AD70033CE33CED8F91248D03EF583D007D0069F
:101AE700D005D00412477E124869805A12474778BA
:101AF70002C333CE33CED8F9FBAA0612488B3AF588
:101B0700831216A30000000074282BF58274E33AB1
:101B1700F5831216A3000000001247477802C3336B
:101B2700CE33CED8F9FBAA061248923AF58312169D
:101B3700A30000000074482BF58274E33AF5831282
:101B470016A30000000074FFF5F01247F0021A31E7
:101B57001248321214041248D71248321214049051
:101B6700E37C12489912162A12479612140490E33E
:101B77008012489912162A1247961214041248DD49
:101B8700021C8512480290E3A5E0FFC390E2CBE078
:101B97009F7480F890E2CAE06480984003021C5664
:101BA70090E388121611C004C005C006C00712478B
:101BB700477802C333CE33CED8F912488B3EF5832C
:101BC700D007D006D005D004124899121611C004C8
:101BD700C005C006C0071247477802C333CE33CECD
:101BE700D8F91248C93EF583D007D006D005D004EE
:101BF70012169790E388121611C004C005C006C0DC
:101C0700071247477802C333CE33CED8F91248922A
:101C17003EF583D007D006D005D004124899121696
:101C270011C004C005C006C0071247477802C33376
:101C3700CE33CED8F91248D03EF583D007D006D0A0
:101C470005D00412477E1248691247EC021B8D1219
:101C570048381248D712483890E37C12479390E3EC
:101C6700801247931248DDC2AF7FFF124810125708
:101C77007C7F787E137D817C71125773D2AF90E29F
:101C8700CC1216A3000000001247D3D312156440EC
:101C970003021D671247D3C3121564700C90E2D07C
:101CA7001216A30000000B80031220DC1248021258
:101CB700474712483E4003021D5B1248618005C337
:101CC70033CE33CED8F91247A6603BC2AF90E2D8E5
:101CD700121F4334201247271220B990E2E012481E
:101CE700E312201C1247BB34281247271220B99051
:101CF700E2DC121F4334301247271220F390E2E44C
:101D07001248E3021D2B12480C12201C1247BB3449
:101D170020121EF23428121EF234301247271257AF
:101D27007312480A12577CE47F08FEFDFC90E2D04C
:101D370012162A121412A804A905AA06AB071247FD
:101D4700471247BB3438124727125773D2AF12478F
:101D5700EC021CB612473190E2CC121697021C8F88
:101D670012480212474712483E5062C2AFEF78024C
:101D7700C333CE33CED8F912488B12207C340012ED
:101D87001F8E1247457802C333CE33CED8F9124897
:101D9700C91220C13401121F8E1247457802C3337E
:101DA700CE33CED8F912489212207C3402121FB9D2
:101DB7001247457802C333CE33CED8F91248D01232
:101DC70020C13403121FB91247EC021D6A90E2CCFE
:101DD7001216A3000000001247D3D31215645069EE
:101DE7001247D3C3121564700C90E2D01216A300E9
:101DF70000000B80031220DCC2AF90E368121FE4DF
:101E0700E42F122009C2AF90E3701220631247CB70
:101E1700342F1247271220F390E36C121FE4E42FAC
:101E2700FFEE34371247271220FB90E3741220632A
:101E37001247CB343F124727125773D2AF1247319D
:101E470090E2CC121697021DDE90E2D41216A30080
:101E5700000000E47F02FEFDFC90E2D412162AC3C4
:101E67001215644003021EF1C2AF90E37812203EC0
:101E7700EF24F0122009C2AF90E3801220A01214C1
:101E870012EF24F0FFEE342F1247271220FB90E3C6
:101E97007C12203EEF24F0FFEE343712472712570B
:101EA70073D2AFC2AF90E3841220A0121412EF24B2
:101EB700F0FFEE343F124727125773D2AF90E30477
:101EC70012161190E37C1216971248D790E344122A
:101ED70016111248DD90E38012169790E2D412474C
:0A1EE7003490E2D4121697021E5A3E
:101EF10022FEED3481FDEC3471FC125773D2AFC276
:101F0100AF7F007E007D007C0012577CE47F08FEDD
:101F1100FDFC90E2D012162A121412A804A905AAF7
:101F210006AB0790E2CAE0FEA3E0FFEE3395E0FDC9
:101F3100FC1213F7E47B08FAF9F8121412E42FFFEC
:101F4100EE22E47B3CFAF9F812161112149D12A448
:101F5100D0E4FCFD12577CE47F08FEFDFC90E2D04A
:101F610012162A121412A804A905AA06AB0790E2B8
:101F7100CAE0FEA3E0FFEE3395E0FDFC1213F7E4A7
:101F81007B08FAF9F8121412E42FFFEE22FEEF2576
:101F9100E0FFEE33FE3395E0FDFCE47B04FAF9F853
:101FA100121412E42FFFEE3420FEED3481FDEC34E7
:101FB10071FC125773D2AF22FEEF25E0FFEE33FE24
:101FC1003395E0FDFCE47B04FAF9F8121412E42FD6
:101FD100FFEE3420FEED3481FDEC3471FC125773B9
:101FE100D2AF22E47B3CFAF9F812161112149D12B9
:101FF100A4D0E4FCFD12577CE47F08FEFDFC90E2D6
:10200100D012162A12141222FFEE3427FEED34816B
:10201100FDEC3471FC125773D2AF2212577CE47F6E
:1020210008FEFDFC90E2D012162A121412A804A98F
:1020310005AA06AB0790E2CAE0FEA3E022E47B3CDE
:10204100FAF9F812161112149D12A4D0E4FCFD1233
:10205100577CE47F08FEFDFC90E2D412162A12148C
:10206100122212161112A4D0E4FCFD12577CE47F57
:1020710008FEFDFC90E2D012162A223EF5831216CC
:1020810011E47B3CFAF9F812149D12A4D0E4FCFD92
:1020910012577C90E2CBE024D8FF90E2CAE02212F2
:1020A100161112A4D0E4FCFD12577CE47F08FEFD5A
:1020B100FC90E2D412162A22125773D2AFC2AF2279
:1020C1003EF58312161112A4D0E4FCFD12577C9048
:1020D100E2CBE024D8FF90E2CAE02290E2CC1216D3
:1020E10011EF04FF12A3E6E4FCFDFE90E2D012160C
:1020F1009722125773D2AFC2AF22125773D2AFC217
:02210100AF220B
:0952C00090E2E0EFF0A3EDF0FB39
:1052C900A31216A300000064EB5403FFFD640260FF
:1052D90005ED640370047F018016EFFD7C00640115
:1052E90070047F02800AED4C70047F0380027F0006
:1052F90090E2E6EFF0C2AF90E2E01246B0EF241C74
:1053090012473A12479C7552101246E41254481239
:105319004848243412472312479C1248ED129A4EEA
:1053290012470FE4754E0212479F7552021246E466
:10533900129A4ED2AF7F0A12A58A12474FE4F54E50
:105349001246DB1254481246F0E4754E0212479F8A
:105359007552021246E4129A4E12470F12479C7573
:1053690052021246E4129A4ED2AF7F0112A58AC2A6
:10537900AF90E2E0124848247C124762125762D289
:10538900AFE4FEFDFCEF600E90E2E274FF121658E6
:10539900EC4D4E4F70D4C2AF90E2E01246B0E475C6
:1053A9004EC812479F7552C81246E412545312460A
:1053B900F012479C7552021246E4129A4ED2AF90EF
:1053C900E2E0E0FFA3E0FD12444C90E2E0E0FFA33D
:1053D900E0FD129AD612474FC004C005C006C007A7
:1053E900A3E030E4047F0080027F01EF60047F01C5
:1053F90080027F001248A01246DBD007D006D005F4
:10540900D0041254531246B0C00790E2E6E05403A8
:10541900FFE48F4E12479F7552031246E4D00712DC
:105429009A4ED2AFC2AF90E2E01246B012479C75D5
:0F54390052C81246E4129A4ED2AF7F0102A58AE2
:10544800129A4ED2AFC2AF90E2E022129A4ED2AF79
:06545800C2AF90E2E02269
:08680D0090E2DDEFF0A3EDF0D5
:106815005403FFFD64026005ED640370047F01808D
:1068250016EFFD7C00640170047F02800AED4C7058
:10683500047F0380027F0090E2DFEFF090E2DEE06C
:10684500FDF470030268EC90E2DDE0FF129AD69049
:10685500E2DDE0FFE4FD129CC2C2AF90E2DD12482A
:10686500482434124723E4F54E754D40F54CF54B5D
:106875001248ED1268FA124754C004C005C006C09C
:1068850007A3E030E4047F0080027F01EF60047F0E
:106895000180027F001248A01246DBD007D006D047
:1068A50005D0041268FA1246B0C00790E2DFE05442
:1068B50003FFE48F4E12479F7552031246E4D0073B
:1068C500129A4ED2AFC2AF90E2DD1246B0EF241C51
:1068D50012473AE4754E1112479F7552111246E45C
:1068E500129A4ED2AF800B90E2DDE0FFA3E0FD12DD
:0568F50052C002A9548D
:0B68FA00129A4ED2AFC2AF90E2DD2236
:054D210090E2DDEFF05F
:104D260012A7BD90E2E3EFF090E2DDE0FF12A13AB8
:104D3600EF600890E2DE7401F0800E90E2E3E0643A
:104D460001700A90E2DE04F0E4A3F0A3F090E2E33F
:104D5600E0FF7E006408700A90E2E104F0E4A3F04C
:104D6600801BEF64024E6004EF4E700AE490E2E1AD
:104D7600F0A304F08007E490E2E1F0A3F090E2E112
:104D8600E07003024E1B90E2DEE070047F018002B9
:104D96007F00781A124772EF4401FFC004C005C0B5
:104DA60006C00790E2DFE060047F0180027F0078A2
:104DB60019124855D003D002D001D00012153CC0BC
:104DC60004C005C006C00790E2E0E060047F0180F1
:104DD600027F007818124855D003D002D001D000C7
:104DE60012153C90E2E41216971246ABEF24941289
:104DF600473AC004C005C006C00790E2E41247DF88
:104E0600755201F551F550754F07D007D006D005FC
:104E1600D004024F171246ABEF244C12473AC00497
:104E2600C005C006C00790E2E2E060047F01800290
:104E36007F001248A01246DBD007D006D005D0046A
:104E4600129A4E1246A9EF245412473AC004C005DE
:104E5600C006C00790E2E2E060047F0180027F00A6
:104E66001247701247E2124881D007D006D005D00B
:104E760004129A4E1246A9EF245012473AC004C0B3
:104E860005C006C00790E2E0E060047F0180027F73
:104E960000E4FCFDFEEF5401FFC004C005C006C0DF
:104EA6000790E2DFE060047F0180027F00E4FCFD02
:104EB600FEEF5401FFE47804121588D003D002D027
:104EC60001D00012153CC004C005C006C00790E220
:104ED600DEE070047F0180027F00124770D003D0AD
:104EE60002D001D00012153C1247E2755211124849
:104EF60083D007D006D005D004129A4ED2AF90E2E6
:104F0600DDE0FF7D01128A261246ABEF24481246E9
:064F1600CD129A4ED2AF4D
:014F1C002272
:09444C0090E2E7EFF0A3EDF0FBB4
:1044550090E2F51216A300000000EBF4700302468B
:104465008690E2E8E0541390E2F9F01246EBC004BE
:10447500C005C006C007A3E030E404E4FF8003E400
:104485007F01FEFDFC1247E21246E1D007D006D0BF
:1044950005D004129A4ED2AF90E2E8E054036015BD
:1044A5006401601190E2F5121611EF4411FFEC90D2
:1044B500E2F512169790E2F9E030E41190E2F51278
:1044C5001611EF4401FFEC90E2F5121697C2AF907A
:1044D500E2E71246B0EF242012473AC004C005C0F7
:1044E50006C00790E2F51247DF7552111246E4D077
:1044F50007D006D005D00412469FFF64106005EF73
:104505006411701712468770091216A30000001077
:1045150080341216A30000000F802B90E2F9E060B2
:10452500046401701712468770091216A300000073
:104535001080131216A30000000E800A90E2E91203
:1045450016A30000000590E2ED1216A3000000007E
:1045550090E2F11216A30000000090E2F9E020E4D9
:104565001490E2ED1216A30000000590E2F1121678
:10457500A300000005C2AF90E2E71246B0EF243079
:1045850012473AC004C005C006C00790E2ED1248C4
:10459500A8C004C005C006C00790E2E9121611EFD5
:1045A500541FFFE4FEFDFC7808121588D003D002E5
:1045B500D001D00012153CC004C005C006C007904C
:1045C500E2F11248A87804121588D003D002D00170
:1045D500D00012153C1247E27552FF75511FF55078
:1045E500F54FD007D006D005D0041246941246B038
:1045F500EF243412473AC004C005C006C00790E254
:10460500E7E0FFE4FCFDFE7810121588EF4443FF58
:10461500EE4410FEEC8F4E8E4D8D4CF54B75527F52
:104625007551107550FF754F00D007D006D005D0D5
:1046350004129A4ED2AF7F0212A58AC2AF90E2E76A
:104645001246B0EF243412473A12479CF552755181
:1046550010F550F54F1246941246B0EF2404124659
:10466500CD12469F6004640170091246EBE4754E55
:104675000180061246EBE4F54E1246DB129A4ED245
:01468500AF85
:104686002290E2E7E0FF12A7BDEF90E2E922129A3C
:104696004ED2AFC2AF90E2E722129A4ED2AF90E26C
:0346A600F9E02216
:10A6E000C2AF1246D77F08FE7D077C71129A4ED208
:03A6F000AF80FE3A
:1081870012A953127AF4EF700D7BFF7A9C790E12C5
:10819700A9227F04803312A405C2AF7F03124810BF
:1081A70012577C124878125773D2AF7F0A12A8E091
:1081B700C2AF1248781257621248B4600512A94636
:1081C70050EE12A94650057F0302A90AC2AFE47513
:1081D7004E0412479F7552041246E4124878129AC9
:1081E7004ED2AF12A8D012A8167F0412A84112A22D
:1081F700BA121807C2AF7FEC7EB17D147C0012570C
:108207007C7F7412487A12577312480A12577C7F80
:0C821700307E8B7D887C71125773D2AFD3
:018223002238
:106BDB0090E2CC1216A300000000E490E2CAF09001
:106BEB00E2CAE0FFC39405748094805071EF04FFF8
:106BFB0012A3E690E2CBEFF0A312162AC000C0015D
:106C0B00C002C00390E2CBE0FF1248618005C333A2
:106C1B00CE33CED8F9FFEE3395E0FDFCD003D00296
:106C2B00D001D00012153C90E2CC121697C2AF7F68
:106C3B00807E257D007C0012577C90E2CB1246B003
:106C4B00EF242412473A125773D2AF90E2CBE0FFF6
:106C5B007DFF12A34490E2CAE004F0026BEAC2AFDC
:106C6B007F0C7E017D0D7C711257621248B4604718
:106C7B0090E2CB7404F090E2CBE0FFC394087480F5
:106C8B00948050337B017AE279CC1258614020908A
:106C9B00E2CBE0FF7DFF12A508C2AF90E2CB12461C
:106CAB00B012479C7552381246E4129A4ED2AF90EE
:0A6CBB00E2CBE004F080BF02A95410
:10A3440090E2DBEFF0A3EDF012A50890E2DBE0FF72
:10A35400A3E0FD12680D90E2DBE0FFA3E0FD024DF7
:01A3640021D7
:10A5080090E2DDEFF0A3EDF01252C090E2DEE0F44D
:0BA51800700890E2DDE0FF12A5FD22BC
:109CC20090E2E0EDF0C2AF1246B2EF243412473A0E
:109CD200C004C005C006C00790E2E0E070047F0146
:109CE20080027F001247701247E2124881D007D0EB
:0B9CF20006D005D004129A4ED2AF221B
:01A9540022E0
:10A5A200C2AF7F0112481012577C7F087E007D07E0
:08A5B2007C71125773D2AF2235
:105762008CFB8DFA8EF98FF6ACFFADFEAEFDAFFC71
:10577200228CFB8DFA8EF98FF7228CFF8DFE8EFD27
:035782008FFC2277
:1061C800C2AF90E2DD121611EF2478FFE43EFEE440
:1061D8003DFDE43CFC22E4754E01F54DF54CF54BD4
:1061E800755201F551F550F54F2290E2DD12161166
:1061F800EF54107B10FFE4FEFDFCFAF9F8C302151A
:1062080064EFF0E4FCFDFEFBFA7901F8121412E4E5
:106218002FFFE43EFEED341EFDEC3471FC2290E2CB
:10622800DE121611EF5401FFE4FEFDFC22E4754E68
:1062380011F54DF54CF54B2290E2DD121611EF22C7
:10624800E4FCFDFEEF5401FFE4021588C2AF90E2C2
:10625800E9121611EF22C2AF90E2E1121611EF24F3
:106268009822E4FCFDFEEF5401FFE42290E2DE02F6
:106278001611EFF090E2E2021611C2AF90E2DD12C1
:106288001611EF227552037551017550FF754FFFB6
:1062980022C2AF90E2F1121611EF24542212153CDB
:1062A8008F4E8E4D8D4C8C4B2224C5F582E434E400
:1062B800F583227804121575EF5401FF225420FF4C
:1062C800E4FEFDFC7B20225440FFE4FEFDFC7B4005
:1062D800225480FFE4FEFDFC7B80225404FFE4FE90
:0562E800FDFC7B042217
:086E930090E2F0EDF090E2EF57
:106E9B0012620990E2F112169790E2EFE0FF12A74F
:106EAB00BD90E2F5EFF090E2F0E0FE90E2EFE01241
:106EBB0062B1EEF0EF640270181262991261D37531
:106ECB004E03754D01754C01754B0012628C026FB0
:106EDB00691262991261D3C004C005C006C0079045
:106EEB00E2F5E0640970047F0180027F00EF60042B
:106EFB007F0180027F007801126248C004C005C088
:106F0B0006C00790E2F0E06006E47FA0FE8004E498
:106F1B007F20FEE4FDFC7810121588D003D002D040
:106F2B0001D00012153CC004C005C006C00790E29A
:106F3B00F5E0640970047F0180027F00EF60047F3D
:106F4B000180027F0012626AD003D002D001D00010
:106F5B001262A512628CD007D006D005D004129A0B
:086F6B004ED2AF7F3202A58A6D
:054B140090E2DDEFF06E
:104B190090E2E874FF12620A90E2E912169790E2B5
:104B2900DDE0FF12A7BD90E2EDEFF0C207C208C2B7
:104B3900AF90E2E91261CD124D0F7804121575128A
:104B4900622CEF700A126226EF70047F0180027FE7
:104B59000090E2E6EFF012625424701261D312570A
:104B69006290E2DE121697D2AF90E2E6E0601B1285
:104B79006226EF60091262741262BBE48002E4FFEC
:104B8900FEFDFC90E2E6EFF08016C2AF90E2E9127A
:104B990061CD1262357552111261EB129A4ED2AF84
:104BA900126274EF54017B011261FD7003D380011D
:104BB900C3920712625424681261D3124D0FEF5445
:104BC90001FF90E2E7EFF020086F90E2EDE0640961
:104BD900706790E2E7E060611262747815121575EA
:104BE90012622CFB12620270501262542448126144
:104BF900D3E4F54E1261E2129A4ED2AF7F3212A57A
:104C09008A12625424481261D31261DE129A4ED27A
:104C1900AF90E2DDE0FF1262B1E0FD126E93C2AF28
:104C290090E2E91261CD1262357552111261EB12EF
:104C39009A4ED2AFD208024B38126274781012150C
:104C490075E4FDFC90E2E212169790E2EDE0640251
:054C59006003024CE2C3
:104C5E0012627CE4FFEE5480FEEC7B007A8079FFDA
:104C6E0078FFC312156470047F0180027F0090E20A
:104C7E00EE12627A780A121575EF5403FF90E2E88D
:104C8E0012627AE4FFEE5410FEE4FDFCEE60030FB8
:104C9E0080027F00EF600790E2E8E04410F01262BD
:104CAE0074EF5480FFEF60047F0180027F00EF609D
:104CBE000790E2E8E04420F090E2E6E0600890E23F
:104CCE00EEE090E2E6F090E2E6E0702F90E2E8741B
:024CDE00FFF0E5
:104CE000802790E2E6E06021A3E0601DA374121229
:104CF000627BEF5480FFEF60047F0180027F00EF52
:0E4D0000600790E2E8E04420F090E2E8E0FF77
:104D0E002212576290E2DE121697D2AF90E2DE12B6
:034D1E0016112249
:105CF40012620B90E2E112169790E2E574FFF01243
:105D0400625E1261D3125E2A1261F270047F018016
:105D1400027F00EF70501262401262C5126202707C
:105D2400047F0180027F00EF703C1262401262CF58
:105D340012620270047F0180027F00EF70281262F9
:105D4400401262D912620270047F0180027F00EF68
:105D540070141262401262E312620270047F0180C6
:105D6400027F00EF602612625E1261D3E4754EF08A
:105D74001262397552F01261EB129A4ED2AF7F0162
:105D840012A58A12625E1261D3125E2A1262405414
:105D940002FFE4FEFDFC7B0212620270047F0180BC
:105DA400027F00EF607A90E2DD1262297B011262C9
:105DB4000270047F0180027F00EF60641261F27060
:105DC400047F0180027F00EF70561262401262C5A8
:105DD40012620270047F0180027F00EF704212623F
:105DE400401262CF12620270047F0180027F00EFD2
:105DF400702E1262401262D912620270047F018016
:105E0400027F00EF701A1262401262E312620270A3
:105E1400047F0180027F00EF700690E2E57411F0C8
:055E240090E2E5E0FF43
:0D5E29002212576290E2DD121697D2AF22CE
:108A260090E2E8EDF0C2AF12620BC004C005C006CA
:108A3600C00790E2E8E070047F0180027F007804BE
:108A4600126248C004C005C006C00790E2E8E070A4
:108A5600047F0180027F0012626A7805121588D0B1
:108A660003D002D001D00012153CC004C005C006D8
:108A7600C00790E2E8E070047F0180027F00126286
:108A86006A7803121588D003D002D001D000126292
:108A9600A5E47552381261EBD007D006D005D00494
:0A8AA600129A4ED2AF7F0102A58A9A
:08545E0090E2DBEDF090E2DAD0
:1054660012620990E2DC12169790E2DBE024FE60FD
:105476006324FA700302551A24FD600724026003B0
:1054860002556DC2AFE4754E0112623975520312B0
:1054960061EB125590EF24201261D31262357552DA
:1054A600111261EB1255CA24481261D31261DE1241
:1054B60055CA244C1261D3E4F54E12623975521165
:1054C6001261EB1255D9EF24541261D3E4F54EF56F
:1054D6004D02550CC2AFE4754E0112623975520386
:1054E6001261EB125590EF24481261D31261DE125D
:1054F60055D9EF244C1261D312556E24541261D340
:10550600E4F54E754D011255AE24941261D3E4F5BF
:105516004E025565C2AFE4754E02126239755203EA
:105526001261EB90E2DC121611129A4ED2AF90E2A3
:10553600DAE0FF7D01128A26C2AF90E2DC12161174
:10554600EF24201261D312556E24541261D3E4F570
:105556004EF54D1255AE24941261D3E4754E0112E8
:0755660061E2129A4ED2AF80
:10556D0022E4754E01F54DF54CF54B755211F55183
:10557D00F550F54F129A4ED2AFC2AF90E2DC121633
:10558D0011EF2290E2DC121611129A4ED2AF90E278
:10559D00DAE0FF7D01128A26C2AF90E2DC1216110D
:1055AD0022F54CF54BF552755101F550F54F129A08
:1055BD004ED2AFC2AF90E2DC121611EF22129A4E0C
:1055CD00D2AFC2AF90E2DC121611EF22129A4ED278
:0A55DD00AFC2AF90E2DC12161122FB
:107A430012620B90E2DD12169790E2E574FFF012DA
:107A530061C8127AE5126229EF60331261C81261BC
:107A6300DE129A4ED2AF12628224481261D3E4F539
:107A73004E1261E2129A4ED2AF7F0512A58A1262AC
:107A83008224481261D31261DE129A4ED2AF126180
:107A9300C8127AE5121611780412157512622CEFCA
:107AA30060151261C8E4754E1012623975521012D6
:107AB30061EB129A4ED2AF12628224701261D3121A
:107AC300576290E2E1121697D2AF90E2E1121611DB
:107AD3001262BBEF600690E2E57413F090E2E5E01A
:017AE300FFA3
:107AE4002212576290E2E1121697D2AF90E2E1229D
:1072D300E4FCFDFEEF5401FFE41215888F4E8E4D42
:1072E3008D4C8C4B22E4FCFDFEEF5401FFE4221293
:1072F3001611EC4D4E4F22C2AFE4F54EF54DF54C51
:10730300F54B22121611EF5407FFE4FEFDFC22C2D7
:10731300AF7F887E007D0D7C7122121611EF543FE2
:10732300FFE4FEFDFC22121611781F121575EF54AF
:1073330001FFEF22121611EF540FFFE4FEFDFC785C
:107343000D22C2AF7F087E017D0D7C7122121611C2
:10735300EF5403FFE4FEFDFC22F551F550F54F22F7
:107363007552007551E0755001754F0022E4F552D6
:10737300F551F55022C2AFE4F54EF54DF54C22120E
:10738300153CA804A905AA06AB0722E4F552F5515A
:10739300755007F54F22FFEC8F4E8E4D8D4CF54BFC
:0173A30022C7
:10A0B700C2AFEC5401FCEC4480FC12577C1273478E
:10A0C700125773D2AF12734512576290E394121668
:0BA0D70097D2AF90E39412732970EA57
:01A0E200225B
:109F7300C2AFEC5401FCEC4440FC12577C12734713
:109F8300125773D2AF12734512576290E3941216AD
:109F930097D2AF90E394121611781E12732E70E5C8
:019FA300229B
:0600160090E2DFEFF0FBB9
:10001C0090E2E41216A30000000090E2E81216A38E
:10002C000000000090E2EC1216A30000000090E229
:10003C00F01216A30000000090E2F41216A30000C8
:10004C00001890E2F81216A30000000090E2FC12D7
:10005C0016A30000000290E3001216A3000000009B
:10006C0090E3041216A30000000390E3081216A3F9
:10007C000000000790E30C1216A30000000090E3B0
:10008C00101216A30000000090E3141216A3000037
:10009C00000090E3181216A30000000090E31C125D
:1000AC0016A30000007890E3201216A300000000B5
:1000BC0090E3241216A30000000090E3281216A36C
:1000CC000000000090E32C1216A30000000090E347
:1000DC00301216A30000000390E3341216A30000A4
:1000EC00000090E3381216A30000000090E33C12CD
:1000FC0016A30000000090E3401216A300000001BC
:10010C0090E3441216A30000000190E3481216A3DA
:10011C000000000190E34C1216A30000000190E3D4
:10012C00501216A30000000190E3541216A3000015
:10013C00000190E3581216A30000000490E35C1237
:10014C0016A30000000090E3601216A3000000004C
:10015C0090E3641216A30000000190E3681216A34A
:10016C000000000190E36C1216A30000000190E364
:10017C00701216A30000000190E3741216A3000085
:10018C00000090E3781216A30000000090E37C12AC
:10019C0016A30000000090E3801216A300000000DC
:1001AC0090E3841216A30000000090E3881216A3BB
:1001BC000000001F90E38C1216A30000000190E3D6
:1001CC00901216A30000001FEB121709064F000532
:1001DC00B00202A70503360603C507042508054A25
:1001EC0009062D1106391201FA1300000C6990E270
:1001FC00E41216A30000000090E2E81216A300001F
:10020C00000090E2F01216A30000000090E2F4123D
:10021C0016A30000003F90E30C1216A30000000090
:10022C0090E3101216A30000000090E3181216A31E
:10023C000000000090E31C1216A30000003C90E3A9
:10024C00241216A30000000090E3281216A300004D
:10025C00000190E32C1216A30000000090E3301272
:10026C0016A30000000190E3341216A30000000056
:10027C0090E3041216A30000000390E3381216A3B7
:10028C000000000190E33C1216A30000000190E274
:10029C00FC1216A30000000302068B90E2E4121677
:1002AC00A30000000090E2E81216A30000000090EA
:1002BC00E2F01216A30000000090E2F41216A30064
:1002CC0000003F90E30C1216A30000000090E31016
:1002DC001216A30000000090E3181216A3000000F1
:1002EC000190E31C1216A30000003090E3241216B8
:1002FC00A30000000190E3281216A3000000019057
:10030C00E32C1216A30000000090E3301216A30099
:10031C0000000190E3341216A30000000090E304E7
:10032C001216A30000000402068B90E2E41216A33E
:10033C000000000090E2E81216A30000000090E21A
:10034C00F01216A30000000090E2F41216A30000B5
:10035C00001890E30C1216A30000000090E310129A
:10036C0016A30000000090E3181216A30000000072
:10037C0090E31C1216A30000007890E3241216A33D
:10038C000000000090E3281216A30000000090E388
:10039C002C1216A30000000090E3301216A30000EC
:1003AC00000390E3341216A30000000090E3041243
:1003BC0016A30000000502068B90E2E41216A300BF
:1003CC0000000190E2E81216A30000000090E2F099
:1003DC001216A30000000290E2F41216A300000013
:1003EC003090E30C1216A30000000090E3101216DC
:1003FC00A30000000090E3181216A3000000009068
:10040C00E31C1216A30000003C90E3241216A30078
:10041C0000000090E32802059D90E2E41216A30070
:10042C0000000190E2E81216A30000000190E2F037
:10043C001216A30000000090E2F41216A3000000B4
:10044C003090E30C1216A30000000090E31012167B
:10045C00A30000000090E3181216A3000000009007
:10046C00E31C1216A30000003C90E3241216A30018
:10047C0000000090E3281216A30000000090E32C6B
:10048C001216A30000000190E3301216A300000026
:10049C000190E3341216A30000000190E300121641
:1004AC00A30000000290E2FC1216A30000000A90C8
:1004BC00E34C1216A30000000090E3541216A300A4
:1004CC0000000090E3741216A30000000190E37882
:1004DC001216A30000000190E37C1216A30000008A
:1004EC000190E3801216A30000000190E364121641
:1004FC00A30000000090E3681216A3000000009017
:10050C00E36C1216A30000000090E3701216A30017
:10051C0000000090E3841216A30000000090E38812
:10052C001216A30000001F90E38C1216A30000000B
:10053C003F90E3901216A30000001F02068B90E27E
:10054C00E41216A30000000090E2E81216A30000CB
:10055C00000190E2F01216A30000000290E2F412E7
:10056C0016A30000003090E30C1216A3000000004C
:10057C0090E3101216A30000000090E3181216A3CB
:10058C000000000090E31C1216A30000003C90E356
:10059C00241216A30000000090E32C1216A30000F6
:1005AC000001806E90E2E41216A30000000090E2BD
:1005BC00E81216A30000000090E2F01216A300004F
:1005CC00000090E2F41216A30000003F90E30C121E
:1005DC0016A30000000190E3101216A30000000106
:1005EC0090E3181216A30000000190E31C1216A34E
:1005FC000000003090E3241216A30000000190E3E9
:10060C00281216A30000000190E32C1216A3000080
:10061C00000090E3301216A30000000190E3348038
:10062C005790E2F81216A300000001805290E35C90
:10063C001216A30000000290E3601216A30005F24C
:10064C0089803C90E3401216A30000000090E34424
:10065C001216A30000000090E3481216A30000003D
:10066C000090E34C1216A30000000090E350121609
:10067C00A30000000090E3541216A30000000090A9
:10068C00E2E0121611129F73C2AF90E2F81272F2EE
:10069C0060047F0180027F00781F1272D312737086
:1006AC00754F80120DBA90E2DFE064117004A30262
:1006BC000C63C2AF90E36012161112577C7F9C1230
:1006CC007316125773D2AFC2AF90E35C12730678F5
:1006DC00101272DC12738E7F90120E0412737A1247
:1006EC000CEBE4F54E120CCFC2AF90E34C1272F24D
:1006FC0060047F0180027F00E4FCFDFEEF5401FFEB
:10070C00E4C004C005C006C00790E3481272F26052
:10071C00047F0180027F001272E87805121588D0E0
:10072C0003D002D001D00012153CC004C005C00695
:10073C00C00790E3501272F260047F0180027F00C8
:10074C001272E87802121588D003D002D001D000C2
:10075C0012153CC004C005C006C00790E3541272C9
:10076C00F260047F0180027F001272E8780112159A
:10077C0088D003D002D001D00012153CC004C005B3
:10078C00C006C00790E3401272F260047F01800241
:10079C007F001272E87804121588D003D002D001C1
:1007AC00D00012153C1272DFE475523F12735C7F5D
:1007BC00C0120C8E120E11C2AF90E2E41272F260F3
:1007CC00047F0180027F001272E8781E1272DC1224
:1007DC007370754F40120DBAC2AF90E2E812731DE0
:1007EC0078171272DCE4F552F551755080754F1F75
:1007FC00120DC790E2EC121611EF541FFFE4FEFD30
:10080C00FC78121272DCE4F552F55175507CF54F00
:10081C00120DC790E2F012730678061272DCE475C2
:10082C0052C0755101120D9490E2F4121611EF544E
:10083C003FFFE48F4E1272FF75523FF551120D942B
:10084C0090E2FC1273371272DC1273637FBC120DD0
:10085C00E590E30012735078081272DCE4F55275DF
:10086C005103120D5390E30412730678011272DCDB
:10087C00E475520EF551120D531272FCF55275516E
:10088C0080755003120DD6120C6A90E3781272F236
:10089C0060047F0180027F001272E87802121588D2
:1008AC00C004C005C006C00790E3741272F2600465
:1008BC007F0180027F001272E87803121588D00342
:1008CC00D002D001D00012153CC004C005C006C037
:1008DC000790E37C1272F260047F0180027F0012A9
:1008EC0072E87801121588D003D002D001D0001222
:1008FC00738290E3801272F260047F0180027F00A9
:10090C001272E812153C1272DFE475520F120D18B8
:10091C0090E3681272F260047F0180027F00127211
:10092C00E87806121588C004C005C006C00790E31D
:10093C00641272F260047F0180027F001272E87808
:10094C0007121588D003D002D001D00012153CC07C
:10095C0004C005C006C00790E36C1272F260047FFD
:10096C000180027F001272E87805121588D003D03E
:10097C0002D001D00012153CC004C005C006C0074F
:10098C0090E3701272F260047F0180027F00127299
:10099C00E87804121588D003D002D001D0001215CB
:1009AC003C1272DFE47552F0120D1890E3581216D7
:1009BC0011EF5407FFE48F4E1272FF75520712733A
:1009CC005C7FC8120E0490E38812731D780C12150C
:1009DC0088C004C005C006C00790E38412731D785C
:1009EC0012121588D003D002D001D00012153CC0D1
:1009FC0004C005C006C00790E38C12731D78061264
:100A0C001588D003D002D001D00012738290E390ED
:100A1C0012731D12153C1272DF74FF127371754F35
:100A2C00007FCC120DE5E4F54EF54D754C01120D21
:100A3C0066C2AF90E30C12735078041272DCE4754A
:100A4C005230120D7F90E3101272F260047F01801D
:100A5C00027F00EF5401FFE48F4E1272FF755201BA
:100A6C00120D7F90E3141272F260047F0180027FFA
:100A7C0000780F1272D3E4F552755180120D059067
:100A8C00E3181272F260047F0180027F001272E898
:100A9C00780E1272DCE4F552755140120D0590E39C
:100AAC001C121611E4FEFDFC78061272DCE4755281
:100ABC00C075513F120DA790E3201272F260047FB3
:100ACC000180027F001272E878011272DCE4755228
:100ADC0002F551120DA790E3241272F260047F010B
:100AEC0080027F00EF5401FFE48F4E1272FF7552AB
:100AFC000112735C7FE8120C8E1272FAF55275516A
:100B0C0030120D40E4F54EF54D754C02120CEB9085
:100B1C00E3441272F260047F0180027F001272E8DB
:100B2C00780E1272DCE4F552755140120D4090E3D0
:100B3C00281272F260047F0180027F001272E87842
:100B4C00031272DCE4755208120CBA90E32C127288
:100B5C00F260047F0180027F001272E87802127248
:100B6C00DCE4755204120CBA90E330121611EF54F7
:100B7C0003FFE48F4E1272FF75520312735C7FE415
:100B8C00FE7D0D7C71129A4ED2AFC2AF90E334123F
:100B9C0072F260047F0180027F001272E878081202
:100BAC0072DCE4F552755101120DF3C2AF90E338CB
:100BBC001272F260047F0180027F001272E87805E5
:100BCC001272DCE4755220120D2DC2AF90E33C1270
:100BDC0072F260047F0180027F001272E8780412C6
:100BEC0072DCE4755210120D2D120E11C2AFE475A9
:100BFC004E20120CCF120E1B7F1412A58AC2AFE42A
:100C0C00754E081272FF755208F551F550120DD63B
:100C1C001272FA755201F551120DF3120E1B7F3C34
:100C2C0012A58A120C6A90E308127306780F1272DE
:100C3C00DC755200755180755003754F007FC012E2
:100C4C007316129A4ED2AFC2AFE4F54E754D30F515
:0D0C5C004C120D6690E2E012161112A0B7C6
:100C690022C2AFE4F54EF54DF54CF54B7552807542
:100C79005101F550F54F7FC0FE7D0D7C71129A4EE2
:100C8900D2AFC2AF22FE7D0D7C71129A4ED2AFC295
:100C9900AFE4754E01F54DF54CF54B755201F55123
:100CA900F550F54F7FA8FE7D0D7C71129A4ED2AF9B
:100CB90022F551F550F54F7FE4FE7D0D7C71129AB6
:100CC9004ED2AFC2AF22F54DF54CF54B755220F51A
:100CD90051F550F54F7FE8FE7D0D7C71129A4ED289
:100CE900AF22F54BF552F551755002F54F7FE4FEF1
:100CF9007D0D7C71129A4ED2AFC2AF22F550F54FDD
:100D09007FE8FE7D0D7C71129A4ED2AFC2AF22F5FB
:100D190051F550F54F7FC4FE7D0D7C71129A4ED26C
:100D2900AFC2AF22F551F550F54F7FA8FE7D0D7C7E
:100D390071129A4ED2AF22F550F54F7FE4FE7D0D28
:100D49007C71129A4ED2AFC2AF22F550F54F7FBCDB
:100D5900FE7D0D7C71129A4ED2AFC2AF22F54BF5D2
:100D6900527551F0755001F54F7FC4FE7D0D7C71B0
:100D7900129A4ED2AF22F551F550F54F7FE0FE7D24
:100D89000D7C71129A4ED2AFC2AF22F550F54F7F4A
:100D9900DCFE7D0D7C71129A4ED2AFC2AF22F550A6
:100DA900F54F7FE8FE7D0D7C71129A4ED2AFC2AF2E
:100DB900227FD8FE7D0D7C71129A4ED2AF227FD848
:100DC900FE7D0D7C71129A4ED2AFC2AF22F54F7FD4
:100DD900C0FE7D0D7C71129A4ED2AF227E007D0D30
:100DE9007C71129A4ED2AFC2AF22F550F54F7FA84F
:100DF900FE7D0D7C71129A4ED2AF22FE7D0D7C7163
:100E0900129A4ED2AFC2AF2290E2E012161112A08E
:0C0E1900B72290E2E012161112A0B722DE
:10A4050090E2E01216A3000000047F0512001690EA
:0EA41500E2DB1216A3000000107F0702367E65
:10A6F300C00790E2DB12161190E2E0121697D00722
:03A703000200163B
:10A03000C2AFEE5401FEE4FD7480FC12577C127333
:10A0400014125773D2AF12731212576290E30312B5
:0CA050001697D2AF90E30312732970EA58
:01A05C0022E1
:109EDE00C2AFEE5401FEE4FD7440FC12577C1273C7
:109EEE0014125773D2AF12731212576290E3031209
:109EFE001697D2AF90E303121611781E12732E70BE
:019F0E00E56D
:019F0F00222F
:06367E0090E2DAEFF0FB20
:1036840090E2DF7401F0E4A3F0A3F0A3F0A3121618
:10369400A30000000090E2E71216A30000000090CF
:1036A400E2EB1216A30000000290E2EF1216A30050
:1036B40000000690E2F31216A30000000090E2F767
:1036C4001216A30000000090E2FB1216A3000000F3
:1036D4000290E2FF1216A300000001EB607024F8D0
:1036E400601D14605D24F8607614607B240B600315
:1036F40002397990E2E31216A30000000C807C905A
:10370400E2E31216A30000000C90E2E07401F090D2
:10371400E2E71216A30000000290E2EB1216A300E7
:1037240000000390E2E17401F090E2EF1216A300AE
:1037340000000090E2FB1216A30000000A90E2FFD2
:10374400801490E2E31216A30000000F802DE49091
:10375400E2DFF090E2E31216A300000000801C9068
:10376400E2E27401F0801490E2F31216A300000068
:103774000290E2F71216A30005F28990E2DB12161A
:1037840011129EDEC2AF90E2E2E060047F0180028B
:103794007F001272E878091272DCE4F55275510266
:1037A400F550F54F7F58FE7D0D7C71129A4ED2AFC5
:1037B40090E2DAE064117004A3023973C2AF90E2BC
:1037C400F712161112577C7F74127316125773D2A4
:1037D400AFC2AF90E2F312730678101272DC127368
:1037E4008E7F6812399890E2E31273371272DC12FA
:1037F40073637F541273161239AF90E2FF1272F2A0
:1038040060047F0180027F001272E8780D1215882F
:10381400C004C005C006C00790E2E0E060047F0178
:1038240080027F001272E8781B121588D003D00240
:10383400D001D00012153CC004C005C006C00790DA
:10384400E2E1E060047F0180027F001272E8780CFC
:10385400121588D003D002D001D00012153CEF44D9
:103864000D12739975520F755130755000754F08CC
:103874007F501273161239AF90E2E7127350780B2F
:10388400121588C004C005C006C00790E2FB12737D
:1038940037121588D003D002D001D00012153CC0D5
:1038A40004C005C006C00790E2EB12730678081244
:1038B4001588D003D002D001D00012153CC004C03A
:1038C40005C006C00790E2EF12730678051215884A
:1038D400D003D002D001D00012153C1272DF755211
:1038E400E07551FF1273697F4C127316129A4ED20F
:1038F400AFC2AF90E2E0E060047F0180027F00127B
:1039040072E87808121588EF4401127399E475522D
:103914000175510112397AC2AFE4754E801272FFFB
:1039240075528012735C7F6012399890E2DFE06018
:10393400047F0180027F001272E878121272DCE4C4
:10394400F552F551755004F54F12398B1239A51201
:103954007378754B80127371754F8012398B1239DD
:10396400A51272FA755201F55112397A90E2DB12FE
:05397400161112A03045
:1039790022F550F54F7F7CFE7D0D7C71129A4ED257
:10398900AF227F5CFE7D0D7C71129A4ED2AF22FE72
:103999007D0D7C71129A4ED2AFC2AF2290E2DB123A
:0E39A900161112A03022129A4ED2AFC2AF22D7
:107AF400C2AFE4F54E754D76F54CF54B7552FF75F6
:107B040051FFF550F54F7F10127B971272FAF55220
:107B1400755180F550127B89C2AFE4F54EF54D7571
:107B24004C38F54BF552F55175507C127B89127324
:107B340078754B02F552F551755080754F07FF1259
:107B44007B97C2AFE4754E021272FF127B737F0201
:107B540012A58A1272FA127B737F3212A58AC2AFFF
:0E7B64007F1C127316125762D2AFEF5401FF4E
:107B720022755202F551F550F54F7F08FE7D0D7CBE
:107B820071129A4ED2AF22F54FFFFE7D0D7C71121B
:107B92009A4ED2AF22FE7D0D7C71129A4ED2AF2246
:108B36002020202020202020202D000102030300D9
:108B46000100410404000000400707000300430839
:108B560008000200022121001000461E1E00070028
:108B66004522230011FFFF0909000900470A0A00F0
:108B76000A00480B0B000B00490C0C000C004A0DB8
:108B86000D000D004B0E0E000E004C0F10000700DE
:108B960044111200040045131F000F008114200029
:108BA60005005E15230006FFFF12230080FFFF1657
:058BB600230013FFFF86
:102B6D0041E485004CE492004700480049004A00CA
:102B7D004B004C4CE4860009000A000B000C000DC4
:022B8D00000E38
:0AA855007D0190E2D27406F0A32208
:0A8CBF0090E2E3ECF0A3EDF0AB0748
:108CC900A31216A300000000C390E2E3E0648094BD
:108CD900F04006E4FFFEFDFC22C2AFAF03E48F4E75
:108CE900F54DF54CF54B7552FF755103F550F54FA0
:108CF9007F787E057D017C71129A4ED2AF90E2E3B6
:108D0900E0FEA3E0FFEE3395E0FDFCE47B04FAF915
:108D1900F8121412E42FFFE43EFEED3401FDEC34A9
:108D290071FCC2AF12576290E2E5121697D2AF906A
:058D3900E2E512161135
:018D3E002212
:0583F70090E2DAEFF056
:1083FC00ED64414C70087B017AE47992800CED6459
:10840C00014C700E7B017AE4798690E2E012170041
:10841C00800890E2DAE0FF028CBFE490E2DFF0909B
:10842C00E2DB1216A30000000090E2DFE0C394062A
:10843C0074809480504890E2DB12162AC000C00170
:10844C00C002C00390E2E01216E090E2DFE075F0AB
:10845C0002A4F58285F083121373FDACF090E2DA7E
:10846C00E0FF128CBFD003D002D001D0001213F762
:10847C0090E2DB12169790E2DFE004F080AB90E222
:04848C00DB121611D8
:0184900022C9
:10A53E00C2AFE4FCFD741CFEE412577C7F787E05EE
:0AA54E007D017C71125773D2AF2219
:0558D90090E2CFEFF0AA
:1058DE00E4A3F090E2D0E0FF7E00C39414748094B1
:1058EE00804003025A2FE4FDEF70140D90E2D27443
:1058FE000AF0A37417F0A37419F0A314F0802AEF22
:10590E0064074E701012A8557419F0A37411F0A309
:10591E00741AF08014EF640D4E700E12A855741B9D
:10592E00F0A37411F0A3741CF0ED6021125A301222
:10593E009E46125A41129E46125A3012A61212A4B6
:10594E007B125A4112A61212A47B12A869E490E2AD
:10595E00D1F090E2D1E0C3940274809480400302AF
:10596E005A1A90E2D0E075F006A42445F582E4348C
:10597E008BF583C083C08290E2D1E0FBD082D083CE
:10598E0075F0021216D4E493FE740193FFEE339574
:10599E00E0FDFC90E2D6121697EB5401908B4193EA
:1059AE00FF129E4690E2D1E0FF90E2D0E075F00645
:1059BE00A42443F582E4348BF583E5822FF582E44B
:1059CE003583F583E493FF7D17129FD374FFFFFE9B
:1059DE00FDFC90E2D612162AC3121564601790E2EF
:1059EE00D6121611AD07AC0690E2CFE0FF1283F788
:1059FE0012A7CB80097BFF7A8B793612A5237F0203
:105A0E0012A62790E2D1E004F002596012A8699024
:105A1E00E485E06003E4F02290E2D0E004F0025866
:015A2E00E196
:105A2F002212A86990E2D2E0FF12A62790E2D3E0FB
:105A3F00FF2290E2D4E0FF12A62790E2D5E0FF22EA
:10876900C2AF90E2E6E0FF7E007C007D041217694B
:10877900EF2410FFEE3401FEED3407FDEC3471FCFB
:10878900221216118F4E8E4D8D4C8C4B90E2CD12CC
:1087990016118F528E518D508C4F22E0F9F8121517
:1087A90088ED543FFDE48F4E8E4D8D4C22FFE4FC45
:1087B900FDEE540FFEE4780C02158890E2E9E0A47E
:1087C900FFEF540FFFE4FEFDFC22C2AFE4F54EF5C6
:1087D9004DF54CF54B22AB07E47F01FEFDFC22F57C
:0D87E9004B7552FF7551FF75503FF54F2243
:056CC50090E2CCEDF0AF
:106CCA001287DFA803121588A31216971287D31208
:106CDA0087957F4C126D9490E2CCE024FD500860B9
:106CEA003F146050026D5E1287D3126D5F7F581297
:106CFA006D94C2AF90E2CCE07006A3121611800523
:106D0A00E4FFFEFDFC12878D7F44126DA090E2CC59
:106D1A00E06402703FC2AFA312878A7F4C026D53B0
:106D2A00C2AF90E2CD1216111287AF8C4B126D5F73
:106D3A007F5880151287D31287957F54126DA0C28F
:106D4A00AF90E2CD12878A7F587E007D077C711250
:046D5A009A4ED2AFCC
:106D5E002290E2CD1216118F528E518D508C4F7F94
:106D6E00547E007D077C71129A4ED2AFC2AFE4F50D
:106D7E004EF54DF54CF54B90E2CD1216118F528E0D
:106D8E00518D508C4F227E007D077C71129A4ED20F
:0E6D9E00AF227E007D077C71129A4ED2AF228A
:109B92001287DFA80312158890E2DC121697C2AF73
:109BA2007F407E007D077C7112576290E2E01216C0
:109BB20097D2AF90E2DC12161190E2E012162A124E
:0D9BC200152FEC4D4E4F60037F01227F00F8
:019BCF002273
:109F100090E2DAEFF0ED600FC2AF1287E11287A492
:109F20001287E87F348010C2AF1287E190E2DA1224
:109F300087A41287E87F38FE7D077C71129A4ED283
:029F4000AF224E
:0B5BA30090E2E6EFF0A3EAF0A3EBF0C5
:105BAE00E4A3F0ED14604D147003025C5014700306
:105BBE00025C9A24036003025CEF128769C004C082
:105BCE0005C006C007A3E0FEA3E01287B6A804A98D
:105BDE0005AA06AB07A3E0540FFFE4FCFDFE121569
:105BEE003C1287AF8C4BE4755201755170F550F530
:105BFE004F025CE2128769C004C005C006C0079060
:105C0E00E2E9E025E01287C9C004C005C006C0075E
:105C1E0090E2E7E0FEA3E07803C333CE33CED8F9AB
:105C2E001287B6D003D002D001D00012153C1287D5
:105C3E00AF8C4B755202755180755003754F000233
:105C4E005CE2128769C004C005C006C00775F00487
:105C5E001287C4C004C005C006C00790E2E7E0FE8C
:105C6E00A3E07806C333CE33CED8F91287B6D0036D
:105C7E00D002D001D00012153C1287AF8C4B75525A
:105C8E000475510075501C754F008048128769C00D
:105C9E0004C005C006C00775F0081287C4C004C052
:105CAE0005C006C00790E2E8E07F0025E0FEEE5456
:105CBE000FFEED780C121588D003D002D001D00063
:105CCE0012153C1287AF8C4B7552087551007550EA
:105CDE00E0754F00D007D006D005D004129A4ED2F0
:065CEE00AF7F0102A58A50
:1075F200E490E2CAF090E2CAE0FFC394047480947B
:1076020080500D7D03126CC590E2CAE004F080E563
:10761200C2AF7F807EF47D397C0012577C7F0812D6
:1076220076A3C2AFE4F54E754D32F54CF54BF552EB
:107632007551FF75500FF54F7F0C7E017D077C71F0
:10764200129A4ED2AFC2AF7FFF7E0D7D007C001238
:10765200577C7F901276A3E490E2CAF090E2CAE0EF
:10766200F9C3940B748094805036E47FFF7E0DFD45
:10767200FCA801121575EF5401FFE4FEFDFCEF605A
:1076820017E0FF7B017A00125BA390E2CAE0FF7B66
:10769200017A007D01125BA390E2CAE004F080BC93
:0D76A200227E017D077C71125773D2AF224A
:102B8F0048E4B500AB00AB0057001F48E4BD037D20
:062B9F00037D00A9004BBC
:10984B00C2AF90E2D0E0FFE4FCFDFEFBFA7901F839
:10985B00121412E42FFFE43EFEED341EFDEC3471C6
:10986B00FCEF22F583E0FEA3E0FFE48F4E8E4DF577
:10987B004CF54B74FFF552F551F550754F00222402
:10988B0010FFE43EFEE43DFDE43CFC2290E2D102FD
:02989B0016E0D5
:1090230090E2CB7401F090E2CAF090E2CAE0FF7ED6
:1090330000D3940574809480504DEF940874809409
:1090430080401BEF940B74809480501290E2CCE428
:10905300F0A37457F0A3E4F0A374A9F0801090E296
:10906300CCE4F0A3741FF0A3E4F0A3744BF090E2FC
:10907300CAE0FF12A3E67B017AE279CB1285BB90AB
:10908300E2CAE004F080A3E4FF1297517F01129734
:06909300517F020297511B
:1085BB0090E2D0EFF0A3121700C2AF12129A600430
:1085CB007F0180027F00E4FCFDFEEF5401FFE478A5
:1085DB00021215888F4E8E4D8D4C8C4BE4755204C8
:1085EB00F551F550F54F7FA0FE7D0E7C71129A4E22
:1085FB00D2AF12989712129A604612984B12988A21
:10860B00C006C007129897900001121373FFAEF0CB
:10861B00129875D007D006129A4ED2AF12984B24EF
:10862B001412988CC006C00712989790000312136F
:10863B0073FFAEF0129875D007D006129A4ED2AFD8
:01864B00220C
:0594D10090E2DDEFF068
:1094D60012A571EF540390E2DEF0C2AF90E2DD1206
:1094E600985012988AC006C00790E2DEE025E02474
:1094F600B5F582E434E412986ED007D006129A4E7F
:10950600D2AFC2AF90E2DD129850241412988CC0EC
:1095160006C00790E2DEE025E024BDF582E434E4EF
